{
	"data": {
		"bytecode": {
			"linkReferences": {},
			"object": "6801a055690d9db80000600b5560046101a0818152632e62736360e01b6101c05260809081526101e0828152630b9cdbdb60e21b6102005260a0526102208281526305ccae8d60e31b6102405260c052610260828152632e61646160e01b6102805260e05260066102a0908152652e6d6174696360d01b6102c052610100526102e08281526302e6963760e41b6103005261012052610320828152630b991bdd60e21b6103405261014052610360828152630b9a5b9d60e21b61038052610160526103e06040526103a0918252630b985b1b60e21b6103c05261018091909152620000ef90601190600962000205565b50671bc16d674ec800006012553480156200010957600080fd5b50604080518082018252600d8082526c16150b511bdb585a5b8b539195609a1b602080840182815285518087019096529285528401528151919291620001529160009162000269565b5080516200016890600190602084019062000269565b505050620001856200017f620001af60201b60201c565b620001b3565b62000194426201518062000371565b600c55601080546001600160a01b03191630179055620003d3565b3390565b600780546001600160a01b038381166001600160a01b0319831681179093556040519116919082907f8be0079c531659141344cd1fd0a4f28419497f9722a3daafe3b4186f6b6457e090600090a35050565b82805482825590600052602060002090810192821562000257579160200282015b828111156200025757825180516200024691849160209091019062000269565b509160200191906001019062000226565b5062000265929150620002f4565b5090565b828054620002779062000396565b90600052602060002090601f0160209004810192826200029b5760008555620002e6565b82601f10620002b657805160ff1916838001178555620002e6565b82800160010185558215620002e6579182015b82811115620002e6578251825591602001919060010190620002c9565b506200026592915062000315565b80821115620002655760006200030b82826200032c565b50600101620002f4565b5b8082111562000265576000815560010162000316565b5080546200033a9062000396565b6000825580601f106200034e57506200036e565b601f0160209004906000526020600020908101906200036e919062000315565b50565b600082198211156200039157634e487b7160e01b81526011600452602481fd5b500190565b600281046001821680620003ab57607f821691505b60208210811415620003cd57634e487b7160e01b600052602260045260246000fd5b50919050565b6142ac80620003e36000396000f3fe608060405234801561001057600080fd5b50600436106102325760003560e01c806395d89b4111610130578063c20925c9116100b8578063e985e9c51161007c578063e985e9c51461049e578063f2fde38b146104b1578063f431d1e9146104c4578063f4a0a528146104d7578063ff3e64e6146104ea57610232565b8063c20925c91461044a578063c87b56dd1461045d578063d21ed58014610470578063df03ba6814610483578063e9563a191461048b57610232565b8063a665f76d116100ff578063a665f76d146103f6578063a7f93ebd14610409578063a8c4d10514610411578063b88d4fde14610424578063bafe149a1461043757610232565b806395d89b41146103b55780639873803d146103bd5780639c9fb5f4146103d0578063a22cb465146103e357610232565b806342842e0e116101be57806370a082311161018257806370a082311461035f578063715018a61461037257806387715a0f1461037a57806389d5feee1461038d5780638da5cb5b146103ad57610232565b806342842e0e146102fe578063561892361461031157806359c77222146103265780636352211e146103395780636b92eb0c1461034c57610232565b80630e101b60116102055780630e101b60146102aa5780631c31f710146102bd57806323b872dd146102d057806338af3eed146102e3578063400f50ee146102eb57610232565b806301ffc9a71461023757806306fdde0314610260578063081812fc14610275578063095ea7b314610295575b600080fd5b61024a6102453660046132b0565b6104ff565b60405161025791906136ea565b60405180910390f35b610268610547565b60405161025791906136f5565b61028861028336600461345f565b6105d9565b60405161025791906135d1565b6102a86102a3366004613269565b610625565b005b6102886102b836600461345f565b6106bd565b6102a86102cb3660046130b0565b610706565b6102a86102de366004613104565b6107b7565b6102886107ef565b6102686102f93660046132e8565b6107fe565b6102a861030c366004613104565b61086a565b610319610885565b60405161025791906140ee565b6102a86103343660046130b0565b610896565b61028861034736600461345f565b610921565b61031961035a3660046131ee565b610956565b61031961036d3660046130b0565b610d21565b6102a8610d65565b6102a8610388366004613413565b610db0565b6103a061039b3660046130b0565b611013565b60405161025791906136a6565b61028861107f565b61026861108e565b6102a86103cb36600461331b565b61109d565b6102a86103de3660046132e8565b611270565b6102a86103f13660046131c1565b611401565b6102a861040436600461337c565b6114cf565b6103196115d0565b61031961041f3660046133bf565b6115d6565b6102a8610432366004613144565b611961565b6102a861044536600461337c565b6119a0565b6102a861045836600461345f565b611ba2565b61026861046b36600461345f565b611c16565b61031961047e36600461345f565b611d2f565b610319611dd6565b6102a86104993660046132e8565b611ddc565b61024a6104ac3660046130cc565b6123ad565b6102a86104bf3660046130b0565b6123db565b6102a86104d236600461345f565b61244c565b6102a86104e536600461345f565b612577565b6104f26125eb565b6040516102579190613646565b60006001600160e01b031982166380ac58cd60e01b148061053057506001600160e01b03198216635b5e139f60e01b145b8061053f575061053f826126c4565b90505b919050565b60606000805461055690614191565b80601f016020809104026020016040519081016040528092919081815260200182805461058290614191565b80156105cf5780601f106105a4576101008083540402835291602001916105cf565b820191906000526020600020905b8154815290600101906020018083116105b257829003601f168201915b5050505050905090565b60006105e4826126dd565b6106095760405162461bcd60e51b815260040161060090613d82565b60405180910390fd5b506000908152600460205260409020546001600160a01b031690565b600061063082610921565b9050806001600160a01b0316836001600160a01b031614156106645760405162461bcd60e51b815260040161060090613ed2565b806001600160a01b03166106766126fa565b6001600160a01b031614806106925750610692816104ac6126fa565b6106ae5760405162461bcd60e51b815260040161060090613ac6565b6106b883836126fe565b505050565b600081600114156106da5750600d546001600160a01b0316610542565b81600214156106f55750600e546001600160a01b0316610542565b5050600d546001600160a01b031690565b61070e6126fa565b6001600160a01b031661071f61107f565b6001600160a01b0316146107455760405162461bcd60e51b815260040161060090613dce565b6001600160a01b03811661076b5760405162461bcd60e51b815260040161060090613a83565b601080546001600160a01b0319166001600160a01b03831690811790915560405133907f8a0149b2f3ddf2c9ee85738165131d82babbb938f749321d59f75750afa7f4e690600090a350565b6107c86107c26126fa565b8261276c565b6107e45760405162461bcd60e51b815260040161060090613f13565b6106b88383836127e9565b6010546001600160a01b031690565b6060426009836040516108119190613553565b908152602001604051809103902060020154116108405760405162461bcd60e51b81526004016106009061394e565b61053f6009836040516108539190613553565b908152602001604051809103902060010154611c16565b6106b883838360405180602001604052806000815250611961565b60006108916008612916565b905090565b61089e6126fa565b6001600160a01b03166108af61107f565b6001600160a01b0316146108d55760405162461bcd60e51b815260040161060090613dce565b600d80546001600160a01b0319166001600160a01b03831690811790915560405133907f9a789ba6a022c5dd35cbc1dda6260e60fcc2516b6d0523db7d3a3794755d5d0590600090a350565b6000818152600260205260408120546001600160a01b03168061053f5760405162461bcd60e51b815260040161060090613b6d565b60006109606126fa565b6001600160a01b031661097161107f565b6001600160a01b0316146109975760405162461bcd60e51b815260040161060090613dce565b61099f611dd6565b42116109bd5760405162461bcd60e51b815260040161060090613c4c565b6001600160a01b0385166109e35760405162461bcd60e51b815260040161060090614042565b6109eb6115d0565b6109f5908361412f565b6109ff60016106bd565b6001600160a01b03166370a08231336040518263ffffffff1660e01b8152600401610a2a91906135d1565b60206040518083038186803b158015610a4257600080fd5b505afa158015610a56573d6000803e3d6000fd5b505050506040513d601f19601f82011682018060405250810190610a7a9190613477565b1015610a985760405162461bcd60e51b815260040161060090613768565b6000845111610ab95760405162461bcd60e51b815260040161060090613e9b565b6000835111610ada5760405162461bcd60e51b8152600401610600906139ba565b60018210158015610aec5750600a8211155b610b085760405162461bcd60e51b815260040161060090613d2f565b610b4133610b146107ef565b610b1c6115d0565b610b26908661412f565b610b3060016106bd565b6001600160a01b031692919061291a565b610b4b6008612972565b6000610b576008612916565b9050610b63868261297b565b85600986604051610b749190613553565b90815260405190819003602001812080546001600160a01b03939093166001600160a01b0319909316929092179091558190600990610bb4908890613553565b90815260405190819003602001902060010155610bd38361016d61412f565b610be0906201518061412f565b610bea9042614103565b600986604051610bfa9190613553565b9081526020016040518091039020600201819055506000600986604051610c219190613553565b908152604051908190036020018120600301805492151560ff1990931692909217909155600090600990610c56908890613553565b90815260200160405180910390206004018190555083600986604051610c7c9190613553565b90815260200160405180910390206005019080519060200190610ca0929190612f88565b506001600160a01b0386166000908152600a602090815260408083208054600181018255908452919092200182905551610cdb908690613553565b604051908190038120906001600160a01b038816907f398b38ccfa99463deebffc69169b0ffed68ae59697476da0aeafbf74bf302c1b90600090a390505b949350505050565b60006001600160a01b038216610d495760405162461bcd60e51b815260040161060090613b23565b506001600160a01b031660009081526003602052604090205490565b610d6d6126fa565b6001600160a01b0316610d7e61107f565b6001600160a01b031614610da45760405162461bcd60e51b815260040161060090613dce565b610dae6000612a5a565b565b610db8611dd6565b4211610dd65760405162461bcd60e51b815260040161060090613c4c565b610dde6115d0565b610de8908261412f565b610df260016106bd565b6001600160a01b03166370a08231336040518263ffffffff1660e01b8152600401610e1d91906135d1565b60206040518083038186803b158015610e3557600080fd5b505afa158015610e49573d6000803e3d6000fd5b505050506040513d601f19601f82011682018060405250810190610e6d9190613477565b1015610e8b5760405162461bcd60e51b815260040161060090613768565b6000835111610eac5760405162461bcd60e51b81526004016106009061373f565b60018110158015610ebe5750600a8111155b610eda5760405162461bcd60e51b815260040161060090613d2f565b6011548210610efb5760405162461bcd60e51b815260040161060090613794565b610f1933610f076107ef565b610f0f6115d0565b610b26908561412f565b600080845111610f385760405180602001604052806000815250610f85565b8360118481548110610f5a57634e487b7160e01b600052603260045260246000fd5b90600052602060002001604051602001610f7592919061359e565b6040516020818303038152906040525b9050610f938261016d61412f565b610fa0906201518061412f565b610faa9042614103565b600982604051610fba9190613553565b90815260405190819003602001812060020191909155610fdb908290613553565b6040519081900381209033907f78635df14d3fe30b948a7977339ce6635025a590b1f1dde3f8aa39e6d78de54b90600090a350505050565b6001600160a01b0381166000908152600a602090815260409182902080548351818402810184019094528084526060939283018282801561107357602002820191906000526020600020905b81548152602001906001019080831161105f575b50505050509050919050565b6007546001600160a01b031690565b60606001805461055690614191565b6110a56115d0565b6110af60016106bd565b6001600160a01b03166370a08231336040518263ffffffff1660e01b81526004016110da91906135d1565b60206040518083038186803b1580156110f257600080fd5b505afa158015611106573d6000803e3d6000fd5b505050506040513d601f19601f8201168201806040525081019061112a9190613477565b10156111485760405162461bcd60e51b815260040161060090613768565b600060098360405161115a9190613553565b908152604051908190036020019020546001600160a01b031690503381146111945760405162461bcd60e51b815260040161060090613c04565b6111a8336111a06107ef565b610b266115d0565b60008351116111c95760405162461bcd60e51b815260040161060090613708565b60008251116111ea5760405162461bcd60e51b8152600401610600906139ba565b6112156009846040516111fd9190613553565b90815260200160405180910390206001015483612aac565b816040516112239190613553565b6040518091039020836040516112399190613553565b6040519081900381209033907f6a470467bfb3700194eda002cbe84f65b70e4a8534e058a8dc06f55f632935cf90600090a4505050565b6112786126fa565b6001600160a01b031661128961107f565b6001600160a01b0316146112af5760405162461bcd60e51b815260040161060090613dce565b60115460005b60115481101561135757601181815481106112e057634e487b7160e01b600052603260045260246000fd5b906000526020600020016040516020016112fa91906135c5565b60405160208183030381529060405280519060200120836040516020016113219190613553565b60405160208183030381529060405280519060200120141561134557809150611357565b8061134f816141cc565b9150506112b5565b5060115481146113795760405162461bcd60e51b815260040161060090614079565b6011805460018101825560009190915282516113bc917f31ecc21a745e3968a04e9570e4425bc18fa8019c68028196b546d1669c200c6801906020850190612f88565b50816040516113cb9190613553565b6040519081900381209033907f83882cd25e30059bc0e7b2b22d16e4b730d5471e0812ce89788dd22303c47c3790600090a35050565b6114096126fa565b6001600160a01b0316826001600160a01b0316141561143a5760405162461bcd60e51b815260040161060090613917565b80600560006114476126fa565b6001600160a01b03908116825260208083019390935260409182016000908120918716808252919093529120805460ff19169215159290921790915561148b6126fa565b6001600160a01b03167f17307eab39ab6107e8899845ad3d59bd9653f200f220920489ca2b5937696c31836040516114c391906136ea565b60405180910390a35050565b60006009836040516114e19190613553565b908152604051908190036020019020546001600160a01b0316905033811461151b5760405162461bcd60e51b815260040161060090613c04565b600160098460405161152d9190613553565b908152604051908190036020018120600301805492151560ff19909316929092179091558290600990611561908690613553565b90815260405190819003602001812060040191909155611582908490613553565b6040518091039020336001600160a01b03167fca5efa69465f7b855c422cc812d04259ceb90f80140ae5282cc8eb54e54c546c846040516115c391906140ee565b60405180910390a3505050565b600b5490565b60006115e0611dd6565b42116115fe5760405162461bcd60e51b815260040161060090613c4c565b6116066115d0565b61161060016106bd565b6001600160a01b03166370a08231336040518263ffffffff1660e01b815260040161163b91906135d1565b60206040518083038186803b15801561165357600080fd5b505afa158015611667573d6000803e3d6000fd5b505050506040513d601f19601f8201168201806040525081019061168b9190613477565b10156116a95760405162461bcd60e51b815260040161060090613768565b60008551116116ca5760405162461bcd60e51b81526004016106009061373f565b600182101580156116dc5750600a8211155b6116f85760405162461bcd60e51b815260040161060090613d2f565b60115484106117195760405162461bcd60e51b815260040161060090613794565b6117263330610b1c6115d0565b6000808651116117455760405180602001604052806000815250611792565b856011868154811061176757634e487b7160e01b600052603260045260246000fd5b9060005260206000200160405160200161178292919061359e565b6040516020818303038152906040525b905061179e6008612972565b60006117aa6008612916565b90506117b6338261297b565b336009836040516117c79190613553565b90815260405190819003602001812080546001600160a01b03939093166001600160a01b0319909316929092179091558190600990611807908590613553565b908152604051908190036020019020600101556118268461016d61412f565b611833906201518061412f565b61183d9042614103565b60098360405161184d9190613553565b90815260200160405180910390206002018190555060006009836040516118749190613553565b908152604051908190036020018120600301805492151560ff19909316929092179091556000906009906118a9908590613553565b908152602001604051809103902060040181905550846009836040516118cf9190613553565b908152602001604051809103902060050190805190602001906118f3929190612f88565b50336000908152600a602090815260408083208054600181018255908452919092200182905551611925908390613553565b6040519081900381209033907fee9ba7ebca3c2c751338640c4ceaabe8e67cec7238718d356b666f5b1aac65c690600090a39695505050505050565b61197261196c6126fa565b8361276c565b61198e5760405162461bcd60e51b815260040161060090613f13565b61199a84848484612af0565b50505050565b6119a86126fa565b6001600160a01b03166119b961107f565b6001600160a01b0316146119df5760405162461bcd60e51b815260040161060090613dce565b6119e7611dd6565b4211611a055760405162461bcd60e51b815260040161060090613c4c565b611a0d6115d0565b611a17908261412f565b611a2160016106bd565b6001600160a01b03166370a08231336040518263ffffffff1660e01b8152600401611a4c91906135d1565b60206040518083038186803b158015611a6457600080fd5b505afa158015611a78573d6000803e3d6000fd5b505050506040513d601f19601f82011682018060405250810190611a9c9190613477565b1015611aba5760405162461bcd60e51b815260040161060090613768565b6000825111611adb5760405162461bcd60e51b815260040161060090613e9b565b60018110158015611aed5750600a8111155b611b095760405162461bcd60e51b815260040161060090613d2f565b611b1533610f076107ef565b611b218161016d61412f565b611b2e906201518061412f565b611b389042614103565b600983604051611b489190613553565b9081526020016040518091039020600201819055508082604051611b6c9190613553565b6040519081900381209033907f9de62ffafdf5b831a9bcf93cd86a5c9bec2f8b567cd49266e210aea0583f1cfa90600090a45050565b611baa6126fa565b6001600160a01b0316611bbb61107f565b6001600160a01b031614611be15760405162461bcd60e51b815260040161060090613dce565b6012819055604051819033907ffa687075f357bee6c0210d4f4a22cd3d6d38ab2e3ca4c07b935d8b9bed10b7b090600090a350565b6060611c21826126dd565b611c3d5760405162461bcd60e51b815260040161060090613cde565b60008281526006602052604081208054611c5690614191565b80601f0160208091040260200160405190810160405280929190818152602001828054611c8290614191565b8015611ccf5780601f10611ca457610100808354040283529160200191611ccf565b820191906000526020600020905b815481529060010190602001808311611cb257829003601f168201915b505050505090506000611ce0612b23565b9050805160001415611cf457509050610542565b815115611d26578082604051602001611d0e92919061356f565b60405160208183030381529060405292505050610542565b610d1984612b35565b60006002821115611d525760405162461bcd60e51b8152600401610600906140bf565b611d5b826106bd565b6001600160a01b03166370a08231306040518263ffffffff1660e01b8152600401611d8691906135d1565b60206040518083038186803b158015611d9e57600080fd5b505afa158015611db2573d6000803e3d6000fd5b505050506040513d601f19601f8201168201806040525081019061053f9190613477565b600c5490565b611de4611dd6565b4211611e025760405162461bcd60e51b815260040161060090613f9b565b6000815111611e235760405162461bcd60e51b815260040161060090613708565b600981604051611e339190613553565b908152602001604051809103902060040154611e4f60026106bd565b6001600160a01b03166370a08231336040518263ffffffff1660e01b8152600401611e7a91906135d1565b60206040518083038186803b158015611e9257600080fd5b505afa158015611ea6573d6000803e3d6000fd5b505050506040513d601f19601f82011682018060405250810190611eca9190613477565b1015611ee85760405162461bcd60e51b815260040161060090613768565b611f3c600982604051611efb9190613553565b908152604051908190036020018120546001600160a01b0316903090600990611f25908690613553565b90815260200160405180910390206001015461086a565b611f6d3330600984604051611f519190613553565b908152602001604051809103902060040154610b3060026106bd565b611feb30600983604051611f819190613553565b908152604051908190036020018120546001600160a01b031690606490600990611fac908790613553565b9081526020016040518091039020600401546012546064611fcd919061414e565b611fd7919061412f565b611fe1919061411b565b610b3060026106bd565b6120003033600984604051611f259190613553565b6000600a60006009846040516120169190613553565b9081526040805160209281900383019020546001600160a01b031683529082019290925201600090812054915081905b600a600060098660405161205a9190613553565b9081526040805160209281900383019020546001600160a01b0316835290820192909252016000205481101561213357600a600060098660405161209e9190613553565b9081526040805160209281900383019020546001600160a01b0316835290820192909252016000208054829081106120e657634e487b7160e01b600052603260045260246000fd5b90600052602060002001546009856040516121019190613553565b908152602001604051809103902060010154141561212157809150612133565b8061212b816141cc565b915050612046565b508181101561228657600a60006009856040516121509190613553565b9081526040805160209281900383019020546001600160a01b03168352908201929092520160002061218360018461414e565b815481106121a157634e487b7160e01b600052603260045260246000fd5b9060005260206000200154600a60006009866040516121c09190613553565b9081526040805160209281900383019020546001600160a01b03168352908201929092520160002080548390811061220857634e487b7160e01b600052603260045260246000fd5b9060005260206000200181905550600a600060098560405161222a9190613553565b9081526040805160209281900383019020546001600160a01b03168352908201929092520160002080548061226f57634e487b7160e01b600052603160045260246000fd5b600190038181906000526020600020016000905590555b336009846040516122979190613553565b90815260405190819003602001812080546001600160a01b03939093166001600160a01b0319909316929092179091556000906009906122d8908690613553565b908152604051908190036020018120600301805492151560ff199093169290921790915560009060099061230d908690613553565b908152604080516020928190038301812060040193909355336000908152600a909252902090600990612341908690613553565b908152604051602091819003820181206001908101548454918201855560009485529290932090920155612376908490613553565b6040519081900381209033907f1e16ed3fa80468f8486b2ad46c023b0b7ae24615d22fb0a5a471a18cc2663fa490600090a3505050565b6001600160a01b03918216600090815260056020908152604080832093909416825291909152205460ff1690565b6123e36126fa565b6001600160a01b03166123f461107f565b6001600160a01b03161461241a5760405162461bcd60e51b815260040161060090613dce565b6001600160a01b0381166124405760405162461bcd60e51b81526004016106009061380d565b61244981612a5a565b50565b600281111561246d5760405162461bcd60e51b8152600401610600906140bf565b6000612478826106bd565b6001600160a01b03166370a08231306040518263ffffffff1660e01b81526004016124a391906135d1565b60206040518083038186803b1580156124bb57600080fd5b505afa1580156124cf573d6000803e3d6000fd5b505050506040513d601f19601f820116820180604052508101906124f39190613477565b9050600081116125155760405162461bcd60e51b8152600401610600906138ce565b61252b306125216107ef565b83610b30866106bd565b806125346107ef565b6001600160a01b0316306001600160a01b03167f73b4085607a6c9fca1c3d2544335bc2cc164c57debcede3d0a05d79fb524c1df60405160405180910390a45050565b61257f6126fa565b6001600160a01b031661259061107f565b6001600160a01b0316146125b65760405162461bcd60e51b815260040161060090613dce565b600b819055604051819033907f663e40bf3edf9e46f1132f481f812ee033807ea8f6a28e87d0e54688bc470d3a90600090a350565b60606011805480602002602001604051908101604052809291908181526020016000905b828210156126bb57838290600052602060002001805461262e90614191565b80601f016020809104026020016040519081016040528092919081815260200182805461265a90614191565b80156126a75780601f1061267c576101008083540402835291602001916126a7565b820191906000526020600020905b81548152906001019060200180831161268a57829003601f168201915b50505050508152602001906001019061260f565b50505050905090565b6001600160e01b031981166301ffc9a760e01b14919050565b6000908152600260205260409020546001600160a01b0316151590565b3390565b600081815260046020526040902080546001600160a01b0319166001600160a01b038416908117909155819061273382610921565b6001600160a01b03167f8c5be1e5ebec7d5bd14f71427d1e84f3dd0314c0f7b2291e5b200ac8c7c3b92560405160405180910390a45050565b6000612777826126dd565b6127935760405162461bcd60e51b815260040161060090613a37565b600061279e83610921565b9050806001600160a01b0316846001600160a01b031614806127d95750836001600160a01b03166127ce846105d9565b6001600160a01b0316145b80610d195750610d1981856123ad565b826001600160a01b03166127fc82610921565b6001600160a01b0316146128225760405162461bcd60e51b815260040161060090613e03565b6001600160a01b0382166128485760405162461bcd60e51b81526004016106009061388a565b6128538383836106b8565b61285e6000826126fe565b6001600160a01b038316600090815260036020526040812080546001929061288790849061414e565b90915550506001600160a01b03821660009081526003602052604081208054600192906128b5908490614103565b909155505060008181526002602052604080822080546001600160a01b0319166001600160a01b0386811691821790925591518493918716917fddf252ad1be2c89b69c2b068fc378daa952ba7f163c4a11628f55a4df523b3ef91a4505050565b5490565b61199a846323b872dd60e01b85858560405160240161293b939291906135e5565b60408051601f198184030181529190526020810180516001600160e01b03166001600160e01b031990931692909217909152612bb8565b80546001019055565b6001600160a01b0382166129a15760405162461bcd60e51b815260040161060090613ca9565b6129aa816126dd565b156129c75760405162461bcd60e51b815260040161060090613853565b6129d3600083836106b8565b6001600160a01b03821660009081526003602052604081208054600192906129fc908490614103565b909155505060008181526002602052604080822080546001600160a01b0319166001600160a01b03861690811790915590518392907fddf252ad1be2c89b69c2b068fc378daa952ba7f163c4a11628f55a4df523b3ef908290a45050565b600780546001600160a01b038381166001600160a01b0319831681179093556040519116919082907f8be0079c531659141344cd1fd0a4f28419497f9722a3daafe3b4186f6b6457e090600090a35050565b612ab5826126dd565b612ad15760405162461bcd60e51b815260040161060090613bb6565b600082815260066020908152604090912082516106b892840190612f88565b612afb8484846127e9565b612b0784848484612c47565b61199a5760405162461bcd60e51b8152600401610600906137bb565b60408051602081019091526000815290565b6060612b40826126dd565b612b5c5760405162461bcd60e51b815260040161060090613e4c565b6000612b66612b23565b90506000815111612b865760405180602001604052806000815250612bb1565b80612b9084612d5f565b604051602001612ba192919061356f565b6040516020818303038152906040525b9392505050565b6000612c0d826040518060400160405280602081526020017f5361666545524332303a206c6f772d6c6576656c2063616c6c206661696c6564815250856001600160a01b0316612e7a9092919063ffffffff16565b8051909150156106b85780806020019051810190612c2b9190613294565b6106b85760405162461bcd60e51b815260040161060090613ff8565b6000612c5b846001600160a01b0316612e89565b15612d5757836001600160a01b031663150b7a02612c776126fa565b8786866040518563ffffffff1660e01b8152600401612c999493929190613609565b602060405180830381600087803b158015612cb357600080fd5b505af1925050508015612ce3575060408051601f3d908101601f19168201909252612ce0918101906132cc565b60015b612d3d573d808015612d11576040519150601f19603f3d011682016040523d82523d6000602084013e612d16565b606091505b508051612d355760405162461bcd60e51b8152600401610600906137bb565b805181602001fd5b6001600160e01b031916630a85bd0160e11b149050610d19565b506001610d19565b606081612d8457506040805180820190915260018152600360fc1b6020820152610542565b8160005b8115612dae5780612d98816141cc565b9150612da79050600a8361411b565b9150612d88565b60008167ffffffffffffffff811115612dd757634e487b7160e01b600052604160045260246000fd5b6040519080825280601f01601f191660200182016040528015612e01576020820181803683370190505b5090505b8415610d1957612e1660018361414e565b9150612e23600a866141e7565b612e2e906030614103565b60f81b818381518110612e5157634e487b7160e01b600052603260045260246000fd5b60200101906001600160f81b031916908160001a905350612e73600a8661411b565b9450612e05565b6060610d198484600085612e8f565b3b151590565b606082471015612eb15760405162461bcd60e51b8152600401610600906139f1565b612eba85612e89565b612ed65760405162461bcd60e51b815260040161060090613f64565b600080866001600160a01b03168587604051612ef29190613553565b60006040518083038185875af1925050503d8060008114612f2f576040519150601f19603f3d011682016040523d82523d6000602084013e612f34565b606091505b5091509150612f44828286612f4f565b979650505050505050565b60608315612f5e575081612bb1565b825115612f6e5782518084602001fd5b8160405162461bcd60e51b815260040161060091906136f5565b828054612f9490614191565b90600052602060002090601f016020900481019282612fb65760008555612ffc565b82601f10612fcf57805160ff1916838001178555612ffc565b82800160010185558215612ffc579182015b82811115612ffc578251825591602001919060010190612fe1565b5061300892915061300c565b5090565b5b80821115613008576000815560010161300d565b600067ffffffffffffffff8084111561303c5761303c614227565b604051601f8501601f19168101602001828111828210171561306057613060614227565b60405284815291508183850186101561307857600080fd5b8484602083013760006020868301015250509392505050565b600082601f8301126130a1578081fd5b612bb183833560208501613021565b6000602082840312156130c1578081fd5b8135612bb18161423d565b600080604083850312156130de578081fd5b82356130e98161423d565b915060208301356130f98161423d565b809150509250929050565b600080600060608486031215613118578081fd5b83356131238161423d565b925060208401356131338161423d565b929592945050506040919091013590565b60008060008060808587031215613159578081fd5b84356131648161423d565b935060208501356131748161423d565b925060408501359150606085013567ffffffffffffffff811115613196578182fd5b8501601f810187136131a6578182fd5b6131b587823560208401613021565b91505092959194509250565b600080604083850312156131d3578182fd5b82356131de8161423d565b915060208301356130f981614252565b60008060008060808587031215613203578384fd5b843561320e8161423d565b9350602085013567ffffffffffffffff8082111561322a578485fd5b61323688838901613091565b9450604087013591508082111561324b578384fd5b5061325887828801613091565b949793965093946060013593505050565b6000806040838503121561327b578182fd5b82356132868161423d565b946020939093013593505050565b6000602082840312156132a5578081fd5b8151612bb181614252565b6000602082840312156132c1578081fd5b8135612bb181614260565b6000602082840312156132dd578081fd5b8151612bb181614260565b6000602082840312156132f9578081fd5b813567ffffffffffffffff81111561330f578182fd5b610d1984828501613091565b6000806040838503121561332d578182fd5b823567ffffffffffffffff80821115613344578384fd5b61335086838701613091565b93506020850135915080821115613365578283fd5b5061337285828601613091565b9150509250929050565b6000806040838503121561338e578182fd5b823567ffffffffffffffff8111156133a4578283fd5b6133b085828601613091565b95602094909401359450505050565b600080600080608085870312156133d4578182fd5b843567ffffffffffffffff808211156133eb578384fd5b6133f788838901613091565b955060208701359450604087013591508082111561324b578384fd5b600080600060608486031215613427578081fd5b833567ffffffffffffffff81111561343d578182fd5b61344986828701613091565b9660208601359650604090950135949350505050565b600060208284031215613470578081fd5b5035919050565b600060208284031215613488578081fd5b5051919050565b600081518084526134a7816020860160208601614165565b601f01601f19169290920160200192915050565b8054600090600281046001808316806134d557607f831692505b60208084108214156134f557634e487b7160e01b86526022600452602486fd5b818015613509576001811461351a57613547565b60ff19861689528489019650613547565b613523886140f7565b60005b8681101561353f5781548b820152908501908301613526565b505084890196505b50505050505092915050565b60008251613565818460208701614165565b9190910192915050565b60008351613581818460208801614165565b835190830190613595818360208801614165565b01949350505050565b600083516135b0818460208801614165565b6135bc818401856134bb565b95945050505050565b6000612bb182846134bb565b6001600160a01b0391909116815260200190565b6001600160a01b039384168152919092166020820152604081019190915260600190565b6001600160a01b038581168252841660208201526040810183905260806060820181905260009061363c9083018461348f565b9695505050505050565b6000602080830181845280855180835260408601915060408482028701019250838701855b8281101561369957603f1988860301845261368785835161348f565b9450928501929085019060010161366b565b5092979650505050505050565b6020808252825182820181905260009190848201906040850190845b818110156136de578351835292840192918401916001016136c2565b50909695505050505050565b901515815260200190565b600060208252612bb1602083018461348f565b60208082526019908201527f4e46544e616d655f3a2043616e277420626520626c616e6b2100000000000000604082015260600190565b6020808252600f908201526e43616e277420626520626c616e6b2160881b604082015260600190565b60208082526012908201527143616e277420706179206e6674206665652160701b604082015260600190565b6020808252600d908201526c27baba1037b31030b93930bc9760991b604082015260600190565b60208082526032908201527f4552433732313a207472616e7366657220746f206e6f6e20455243373231526560408201527131b2b4bb32b91034b6b83632b6b2b73a32b960711b606082015260800190565b60208082526026908201527f4f776e61626c653a206e6577206f776e657220697320746865207a65726f206160408201526564647265737360d01b606082015260800190565b6020808252601c908201527f4552433732313a20746f6b656e20616c7265616479206d696e74656400000000604082015260600190565b60208082526024908201527f4552433732313a207472616e7366657220746f20746865207a65726f206164646040820152637265737360e01b606082015260800190565b60208082526029908201527f43757272656e742042616c616e636520697320746f6f20736d616c6c20746f206040820152683bb4ba34323930bb9760b91b606082015260800190565b60208082526019908201527f4552433732313a20617070726f766520746f2063616c6c657200000000000000604082015260600190565b60208082526046908201527f54686973204e465420686173206265656e20657870697265642e204f776e657260408201527f206e65656420746f20657874656e642069747320737562736372697074696f6e606082015265103a34b6b29760d11b608082015260a00190565b60208082526019908201527f746f6b656e5552493a2043616e277420626520626c616e6b2100000000000000604082015260600190565b60208082526026908201527f416464726573733a20696e73756666696369656e742062616c616e636520666f6040820152651c8818d85b1b60d21b606082015260800190565b6020808252602c908201527f4552433732313a206f70657261746f7220717565727920666f72206e6f6e657860408201526b34b9ba32b73a103a37b5b2b760a11b606082015260800190565b60208082526023908201527f4e65772062656e656669636961727920697320746865207a65726f206164647260408201526265737360e81b606082015260800190565b60208082526038908201527f4552433732313a20617070726f76652063616c6c6572206973206e6f74206f7760408201527f6e6572206e6f7220617070726f76656420666f7220616c6c0000000000000000606082015260800190565b6020808252602a908201527f4552433732313a2062616c616e636520717565727920666f7220746865207a65604082015269726f206164647265737360b01b606082015260800190565b60208082526029908201527f4552433732313a206f776e657220717565727920666f72206e6f6e657869737460408201526832b73a103a37b5b2b760b91b606082015260800190565b6020808252602e908201527f45524337323155524953746f726167653a2055524920736574206f66206e6f6e60408201526d32bc34b9ba32b73a103a37b5b2b760911b606082015260800190565b60208082526028908201527f4f776e61626c653a2063616c6c6572206973206e6f7420746865206375727265604082015267373a1037bbb732b960c11b606082015260800190565b6020808252603a908201527f41637469766554696d653a20596f752063616e2774207265676973746572204e60408201527f4654206265666f726520746865206163746976652074696d652e000000000000606082015260800190565b6020808252818101527f4552433732313a206d696e7420746f20746865207a65726f2061646472657373604082015260600190565b60208082526031908201527f45524337323155524953746f726167653a2055524920717565727920666f72206040820152703737b732bc34b9ba32b73a103a37b5b2b760791b606082015260800190565b60208082526033908201527f43616e2774206265206c657373207468616e20312079656172206f722067726560408201527261746572207468616e2031302079656172732160681b606082015260800190565b6020808252602c908201527f4552433732313a20617070726f76656420717565727920666f72206e6f6e657860408201526b34b9ba32b73a103a37b5b2b760a11b606082015260800190565b6020808252818101527f4f776e61626c653a2063616c6c6572206973206e6f7420746865206f776e6572604082015260600190565b60208082526029908201527f4552433732313a207472616e73666572206f6620746f6b656e2074686174206960408201526839903737ba1037bbb760b91b606082015260800190565b6020808252602f908201527f4552433732314d657461646174613a2055524920717565727920666f72206e6f60408201526e3732bc34b9ba32b73a103a37b5b2b760891b606082015260800190565b60208082526017908201527f6e65774e46543a2043616e277420626520626c616e6b21000000000000000000604082015260600190565b60208082526021908201527f4552433732313a20617070726f76616c20746f2063757272656e74206f776e656040820152603960f91b606082015260800190565b60208082526031908201527f4552433732313a207472616e736665722063616c6c6572206973206e6f74206f6040820152701ddb995c881b9bdc88185c1c1c9bdd9959607a1b606082015260800190565b6020808252601d908201527f416464726573733a2063616c6c20746f206e6f6e2d636f6e7472616374000000604082015260600190565b6020808252603d908201527f41637469766554696d653a20596f752063616e277420627579204e465420626560408201527f666f7265207468652063757272656e74206163746976652074696d652e000000606082015260800190565b6020808252602a908201527f5361666545524332303a204552433230206f7065726174696f6e20646964206e6040820152691bdd081cdd58d8d9595960b21b606082015260800190565b6020808252601d908201527f726563697069656e7420697320746865207a65726f2061646472657373000000604082015260600190565b60208082526026908201527f546865206e616d6520657874656e73696f6e20697320616c726561647920657860408201526534b9ba32b21760d11b606082015260800190565b6020808252601590820152742ab735b737bbb7103830bcb6b2b73a103a37b5b2b760591b604082015260600190565b90815260200190565b60009081526020902090565b60008219821115614116576141166141fb565b500190565b60008261412a5761412a614211565b500490565b6000816000190483118215151615614149576141496141fb565b500290565b600082821015614160576141606141fb565b500390565b60005b83811015614180578181015183820152602001614168565b8381111561199a5750506000910152565b6002810460018216806141a557607f821691505b602082108114156141c657634e487b7160e01b600052602260045260246000fd5b50919050565b60006000198214156141e0576141e06141fb565b5060010190565b6000826141f6576141f6614211565b500690565b634e487b7160e01b600052601160045260246000fd5b634e487b7160e01b600052601260045260246000fd5b634e487b7160e01b600052604160045260246000fd5b6001600160a01b038116811461244957600080fd5b801515811461244957600080fd5b6001600160e01b03198116811461244957600080fdfea264697066735822122010337ed13963a4cdda9400c198f23c89b70c330b2d012cf4bd7713703e3b3f7364736f6c63430008000033",
			"opcodes": "PUSH9 0x1A055690D9DB80000 PUSH1 0xB SSTORE PUSH1 0x4 PUSH2 0x1A0 DUP2 DUP2 MSTORE PUSH4 0x2E627363 PUSH1 0xE0 SHL PUSH2 0x1C0 MSTORE PUSH1 0x80 SWAP1 DUP2 MSTORE PUSH2 0x1E0 DUP3 DUP2 MSTORE PUSH4 0xB9CDBDB PUSH1 0xE2 SHL PUSH2 0x200 MSTORE PUSH1 0xA0 MSTORE PUSH2 0x220 DUP3 DUP2 MSTORE PUSH4 0x5CCAE8D PUSH1 0xE3 SHL PUSH2 0x240 MSTORE PUSH1 0xC0 MSTORE PUSH2 0x260 DUP3 DUP2 MSTORE PUSH4 0x2E616461 PUSH1 0xE0 SHL PUSH2 0x280 MSTORE PUSH1 0xE0 MSTORE PUSH1 0x6 PUSH2 0x2A0 SWAP1 DUP2 MSTORE PUSH6 0x2E6D61746963 PUSH1 0xD0 SHL PUSH2 0x2C0 MSTORE PUSH2 0x100 MSTORE PUSH2 0x2E0 DUP3 DUP2 MSTORE PUSH4 0x2E69637 PUSH1 0xE4 SHL PUSH2 0x300 MSTORE PUSH2 0x120 MSTORE PUSH2 0x320 DUP3 DUP2 MSTORE PUSH4 0xB991BDD PUSH1 0xE2 SHL PUSH2 0x340 MSTORE PUSH2 0x140 MSTORE PUSH2 0x360 DUP3 DUP2 MSTORE PUSH4 0xB9A5B9D PUSH1 0xE2 SHL PUSH2 0x380 MSTORE PUSH2 0x160 MSTORE PUSH2 0x3E0 PUSH1 0x40 MSTORE PUSH2 0x3A0 SWAP2 DUP3 MSTORE PUSH4 0xB985B1B PUSH1 0xE2 SHL PUSH2 0x3C0 MSTORE PUSH2 0x180 SWAP2 SWAP1 SWAP2 MSTORE PUSH3 0xEF SWAP1 PUSH1 0x11 SWAP1 PUSH1 0x9 PUSH3 0x205 JUMP JUMPDEST POP PUSH8 0x1BC16D674EC80000 PUSH1 0x12 SSTORE CALLVALUE DUP1 ISZERO PUSH3 0x109 JUMPI PUSH1 0x0 DUP1 REVERT JUMPDEST POP PUSH1 0x40 DUP1 MLOAD DUP1 DUP3 ADD DUP3 MSTORE PUSH1 0xD DUP1 DUP3 MSTORE PUSH13 0x16150B511BDB585A5B8B539195 PUSH1 0x9A SHL PUSH1 0x20 DUP1 DUP5 ADD DUP3 DUP2 MSTORE DUP6 MLOAD DUP1 DUP8 ADD SWAP1 SWAP7 MSTORE SWAP3 DUP6 MSTORE DUP5 ADD MSTORE DUP2 MLOAD SWAP2 SWAP3 SWAP2 PUSH3 0x152 SWAP2 PUSH1 0x0 SWAP2 PUSH3 0x269 JUMP JUMPDEST POP DUP1 MLOAD PUSH3 0x168 SWAP1 PUSH1 0x1 SWAP1 PUSH1 0x20 DUP5 ADD SWAP1 PUSH3 0x269 JUMP JUMPDEST POP POP POP PUSH3 0x185 PUSH3 0x17F PUSH3 0x1AF PUSH1 0x20 SHL PUSH1 0x20 SHR JUMP JUMPDEST PUSH3 0x1B3 JUMP JUMPDEST PUSH3 0x194 TIMESTAMP PUSH3 0x15180 PUSH3 0x371 JUMP JUMPDEST PUSH1 0xC SSTORE PUSH1 0x10 DUP1 SLOAD PUSH1 0x1 PUSH1 0x1 PUSH1 0xA0 SHL SUB NOT AND ADDRESS OR SWAP1 SSTORE PUSH3 0x3D3 JUMP JUMPDEST CALLER SWAP1 JUMP JUMPDEST PUSH1 0x7 DUP1 SLOAD PUSH1 0x1 PUSH1 0x1 PUSH1 0xA0 SHL SUB DUP4 DUP2 AND PUSH1 0x1 PUSH1 0x1 PUSH1 0xA0 SHL SUB NOT DUP4 AND DUP2 OR SWAP1 SWAP4 SSTORE PUSH1 0x40 MLOAD SWAP2 AND SWAP2 SWAP1 DUP3 SWAP1 PUSH32 0x8BE0079C531659141344CD1FD0A4F28419497F9722A3DAAFE3B4186F6B6457E0 SWAP1 PUSH1 0x0 SWAP1 LOG3 POP POP JUMP JUMPDEST DUP3 DUP1 SLOAD DUP3 DUP3 SSTORE SWAP1 PUSH1 0x0 MSTORE PUSH1 0x20 PUSH1 0x0 KECCAK256 SWAP1 DUP2 ADD SWAP3 DUP3 ISZERO PUSH3 0x257 JUMPI SWAP2 PUSH1 0x20 MUL DUP3 ADD JUMPDEST DUP3 DUP2 GT ISZERO PUSH3 0x257 JUMPI DUP3 MLOAD DUP1 MLOAD PUSH3 0x246 SWAP2 DUP5 SWAP2 PUSH1 0x20 SWAP1 SWAP2 ADD SWAP1 PUSH3 0x269 JUMP JUMPDEST POP SWAP2 PUSH1 0x20 ADD SWAP2 SWAP1 PUSH1 0x1 ADD SWAP1 PUSH3 0x226 JUMP JUMPDEST POP PUSH3 0x265 SWAP3 SWAP2 POP PUSH3 0x2F4 JUMP JUMPDEST POP SWAP1 JUMP JUMPDEST DUP3 DUP1 SLOAD PUSH3 0x277 SWAP1 PUSH3 0x396 JUMP JUMPDEST SWAP1 PUSH1 0x0 MSTORE PUSH1 0x20 PUSH1 0x0 KECCAK256 SWAP1 PUSH1 0x1F ADD PUSH1 0x20 SWAP1 DIV DUP2 ADD SWAP3 DUP3 PUSH3 0x29B JUMPI PUSH1 0x0 DUP6 SSTORE PUSH3 0x2E6 JUMP JUMPDEST DUP3 PUSH1 0x1F LT PUSH3 0x2B6 JUMPI DUP1 MLOAD PUSH1 0xFF NOT AND DUP4 DUP1 ADD OR DUP6 SSTORE PUSH3 0x2E6 JUMP JUMPDEST DUP3 DUP1 ADD PUSH1 0x1 ADD DUP6 SSTORE DUP3 ISZERO PUSH3 0x2E6 JUMPI SWAP2 DUP3 ADD JUMPDEST DUP3 DUP2 GT ISZERO PUSH3 0x2E6 JUMPI DUP3 MLOAD DUP3 SSTORE SWAP2 PUSH1 0x20 ADD SWAP2 SWAP1 PUSH1 0x1 ADD SWAP1 PUSH3 0x2C9 JUMP JUMPDEST POP PUSH3 0x265 SWAP3 SWAP2 POP PUSH3 0x315 JUMP JUMPDEST DUP1 DUP3 GT ISZERO PUSH3 0x265 JUMPI PUSH1 0x0 PUSH3 0x30B DUP3 DUP3 PUSH3 0x32C JUMP JUMPDEST POP PUSH1 0x1 ADD PUSH3 0x2F4 JUMP JUMPDEST JUMPDEST DUP1 DUP3 GT ISZERO PUSH3 0x265 JUMPI PUSH1 0x0 DUP2 SSTORE PUSH1 0x1 ADD PUSH3 0x316 JUMP JUMPDEST POP DUP1 SLOAD PUSH3 0x33A SWAP1 PUSH3 0x396 JUMP JUMPDEST PUSH1 0x0 DUP3 SSTORE DUP1 PUSH1 0x1F LT PUSH3 0x34E JUMPI POP PUSH3 0x36E JUMP JUMPDEST PUSH1 0x1F ADD PUSH1 0x20 SWAP1 DIV SWAP1 PUSH1 0x0 MSTORE PUSH1 0x20 PUSH1 0x0 KECCAK256 SWAP1 DUP2 ADD SWAP1 PUSH3 0x36E SWAP2 SWAP1 PUSH3 0x315 JUMP JUMPDEST POP JUMP JUMPDEST PUSH1 0x0 DUP3 NOT DUP3 GT ISZERO PUSH3 0x391 JUMPI PUSH4 0x4E487B71 PUSH1 0xE0 SHL DUP2 MSTORE PUSH1 0x11 PUSH1 0x4 MSTORE PUSH1 0x24 DUP2 REVERT JUMPDEST POP ADD SWAP1 JUMP JUMPDEST PUSH1 0x2 DUP2 DIV PUSH1 0x1 DUP3 AND DUP1 PUSH3 0x3AB JUMPI PUSH1 0x7F DUP3 AND SWAP2 POP JUMPDEST PUSH1 0x20 DUP3 LT DUP2 EQ ISZERO PUSH3 0x3CD JUMPI PUSH4 0x4E487B71 PUSH1 0xE0 SHL PUSH1 0x0 MSTORE PUSH1 0x22 PUSH1 0x4 MSTORE PUSH1 0x24 PUSH1 0x0 REVERT JUMPDEST POP SWAP2 SWAP1 POP JUMP JUMPDEST PUSH2 0x42AC DUP1 PUSH3 0x3E3 PUSH1 0x0 CODECOPY PUSH1 0x0 RETURN INVALID PUSH1 0x80 PUSH1 0x40 MSTORE CALLVALUE DUP1 ISZERO PUSH2 0x10 JUMPI PUSH1 0x0 DUP1 REVERT JUMPDEST POP PUSH1 0x4 CALLDATASIZE LT PUSH2 0x232 JUMPI PUSH1 0x0 CALLDATALOAD PUSH1 0xE0 SHR DUP1 PUSH4 0x95D89B41 GT PUSH2 0x130 JUMPI DUP1 PUSH4 0xC20925C9 GT PUSH2 0xB8 JUMPI DUP1 PUSH4 0xE985E9C5 GT PUSH2 0x7C JUMPI DUP1 PUSH4 0xE985E9C5 EQ PUSH2 0x49E JUMPI DUP1 PUSH4 0xF2FDE38B EQ PUSH2 0x4B1 JUMPI DUP1 PUSH4 0xF431D1E9 EQ PUSH2 0x4C4 JUMPI DUP1 PUSH4 0xF4A0A528 EQ PUSH2 0x4D7 JUMPI DUP1 PUSH4 0xFF3E64E6 EQ PUSH2 0x4EA JUMPI PUSH2 0x232 JUMP JUMPDEST DUP1 PUSH4 0xC20925C9 EQ PUSH2 0x44A JUMPI DUP1 PUSH4 0xC87B56DD EQ PUSH2 0x45D JUMPI DUP1 PUSH4 0xD21ED580 EQ PUSH2 0x470 JUMPI DUP1 PUSH4 0xDF03BA68 EQ PUSH2 0x483 JUMPI DUP1 PUSH4 0xE9563A19 EQ PUSH2 0x48B JUMPI PUSH2 0x232 JUMP JUMPDEST DUP1 PUSH4 0xA665F76D GT PUSH2 0xFF JUMPI DUP1 PUSH4 0xA665F76D EQ PUSH2 0x3F6 JUMPI DUP1 PUSH4 0xA7F93EBD EQ PUSH2 0x409 JUMPI DUP1 PUSH4 0xA8C4D105 EQ PUSH2 0x411 JUMPI DUP1 PUSH4 0xB88D4FDE EQ PUSH2 0x424 JUMPI DUP1 PUSH4 0xBAFE149A EQ PUSH2 0x437 JUMPI PUSH2 0x232 JUMP JUMPDEST DUP1 PUSH4 0x95D89B41 EQ PUSH2 0x3B5 JUMPI DUP1 PUSH4 0x9873803D EQ PUSH2 0x3BD JUMPI DUP1 PUSH4 0x9C9FB5F4 EQ PUSH2 0x3D0 JUMPI DUP1 PUSH4 0xA22CB465 EQ PUSH2 0x3E3 JUMPI PUSH2 0x232 JUMP JUMPDEST DUP1 PUSH4 0x42842E0E GT PUSH2 0x1BE JUMPI DUP1 PUSH4 0x70A08231 GT PUSH2 0x182 JUMPI DUP1 PUSH4 0x70A08231 EQ PUSH2 0x35F JUMPI DUP1 PUSH4 0x715018A6 EQ PUSH2 0x372 JUMPI DUP1 PUSH4 0x87715A0F EQ PUSH2 0x37A JUMPI DUP1 PUSH4 0x89D5FEEE EQ PUSH2 0x38D JUMPI DUP1 PUSH4 0x8DA5CB5B EQ PUSH2 0x3AD JUMPI PUSH2 0x232 JUMP JUMPDEST DUP1 PUSH4 0x42842E0E EQ PUSH2 0x2FE JUMPI DUP1 PUSH4 0x56189236 EQ PUSH2 0x311 JUMPI DUP1 PUSH4 0x59C77222 EQ PUSH2 0x326 JUMPI DUP1 PUSH4 0x6352211E EQ PUSH2 0x339 JUMPI DUP1 PUSH4 0x6B92EB0C EQ PUSH2 0x34C JUMPI PUSH2 0x232 JUMP JUMPDEST DUP1 PUSH4 0xE101B60 GT PUSH2 0x205 JUMPI DUP1 PUSH4 0xE101B60 EQ PUSH2 0x2AA JUMPI DUP1 PUSH4 0x1C31F710 EQ PUSH2 0x2BD JUMPI DUP1 PUSH4 0x23B872DD EQ PUSH2 0x2D0 JUMPI DUP1 PUSH4 0x38AF3EED EQ PUSH2 0x2E3 JUMPI DUP1 PUSH4 0x400F50EE EQ PUSH2 0x2EB JUMPI PUSH2 0x232 JUMP JUMPDEST DUP1 PUSH4 0x1FFC9A7 EQ PUSH2 0x237 JUMPI DUP1 PUSH4 0x6FDDE03 EQ PUSH2 0x260 JUMPI DUP1 PUSH4 0x81812FC EQ PUSH2 0x275 JUMPI DUP1 PUSH4 0x95EA7B3 EQ PUSH2 0x295 JUMPI JUMPDEST PUSH1 0x0 DUP1 REVERT JUMPDEST PUSH2 0x24A PUSH2 0x245 CALLDATASIZE PUSH1 0x4 PUSH2 0x32B0 JUMP JUMPDEST PUSH2 0x4FF JUMP JUMPDEST PUSH1 0x40 MLOAD PUSH2 0x257 SWAP2 SWAP1 PUSH2 0x36EA JUMP JUMPDEST PUSH1 0x40 MLOAD DUP1 SWAP2 SUB SWAP1 RETURN JUMPDEST PUSH2 0x268 PUSH2 0x547 JUMP JUMPDEST PUSH1 0x40 MLOAD PUSH2 0x257 SWAP2 SWAP1 PUSH2 0x36F5 JUMP JUMPDEST PUSH2 0x288 PUSH2 0x283 CALLDATASIZE PUSH1 0x4 PUSH2 0x345F JUMP JUMPDEST PUSH2 0x5D9 JUMP JUMPDEST PUSH1 0x40 MLOAD PUSH2 0x257 SWAP2 SWAP1 PUSH2 0x35D1 JUMP JUMPDEST PUSH2 0x2A8 PUSH2 0x2A3 CALLDATASIZE PUSH1 0x4 PUSH2 0x3269 JUMP JUMPDEST PUSH2 0x625 JUMP JUMPDEST STOP JUMPDEST PUSH2 0x288 PUSH2 0x2B8 CALLDATASIZE PUSH1 0x4 PUSH2 0x345F JUMP JUMPDEST PUSH2 0x6BD JUMP JUMPDEST PUSH2 0x2A8 PUSH2 0x2CB CALLDATASIZE PUSH1 0x4 PUSH2 0x30B0 JUMP JUMPDEST PUSH2 0x706 JUMP JUMPDEST PUSH2 0x2A8 PUSH2 0x2DE CALLDATASIZE PUSH1 0x4 PUSH2 0x3104 JUMP JUMPDEST PUSH2 0x7B7 JUMP JUMPDEST PUSH2 0x288 PUSH2 0x7EF JUMP JUMPDEST PUSH2 0x268 PUSH2 0x2F9 CALLDATASIZE PUSH1 0x4 PUSH2 0x32E8 JUMP JUMPDEST PUSH2 0x7FE JUMP JUMPDEST PUSH2 0x2A8 PUSH2 0x30C CALLDATASIZE PUSH1 0x4 PUSH2 0x3104 JUMP JUMPDEST PUSH2 0x86A JUMP JUMPDEST PUSH2 0x319 PUSH2 0x885 JUMP JUMPDEST PUSH1 0x40 MLOAD PUSH2 0x257 SWAP2 SWAP1 PUSH2 0x40EE JUMP JUMPDEST PUSH2 0x2A8 PUSH2 0x334 CALLDATASIZE PUSH1 0x4 PUSH2 0x30B0 JUMP JUMPDEST PUSH2 0x896 JUMP JUMPDEST PUSH2 0x288 PUSH2 0x347 CALLDATASIZE PUSH1 0x4 PUSH2 0x345F JUMP JUMPDEST PUSH2 0x921 JUMP JUMPDEST PUSH2 0x319 PUSH2 0x35A CALLDATASIZE PUSH1 0x4 PUSH2 0x31EE JUMP JUMPDEST PUSH2 0x956 JUMP JUMPDEST PUSH2 0x319 PUSH2 0x36D CALLDATASIZE PUSH1 0x4 PUSH2 0x30B0 JUMP JUMPDEST PUSH2 0xD21 JUMP JUMPDEST PUSH2 0x2A8 PUSH2 0xD65 JUMP JUMPDEST PUSH2 0x2A8 PUSH2 0x388 CALLDATASIZE PUSH1 0x4 PUSH2 0x3413 JUMP JUMPDEST PUSH2 0xDB0 JUMP JUMPDEST PUSH2 0x3A0 PUSH2 0x39B CALLDATASIZE PUSH1 0x4 PUSH2 0x30B0 JUMP JUMPDEST PUSH2 0x1013 JUMP JUMPDEST PUSH1 0x40 MLOAD PUSH2 0x257 SWAP2 SWAP1 PUSH2 0x36A6 JUMP JUMPDEST PUSH2 0x288 PUSH2 0x107F JUMP JUMPDEST PUSH2 0x268 PUSH2 0x108E JUMP JUMPDEST PUSH2 0x2A8 PUSH2 0x3CB CALLDATASIZE PUSH1 0x4 PUSH2 0x331B JUMP JUMPDEST PUSH2 0x109D JUMP JUMPDEST PUSH2 0x2A8 PUSH2 0x3DE CALLDATASIZE PUSH1 0x4 PUSH2 0x32E8 JUMP JUMPDEST PUSH2 0x1270 JUMP JUMPDEST PUSH2 0x2A8 PUSH2 0x3F1 CALLDATASIZE PUSH1 0x4 PUSH2 0x31C1 JUMP JUMPDEST PUSH2 0x1401 JUMP JUMPDEST PUSH2 0x2A8 PUSH2 0x404 CALLDATASIZE PUSH1 0x4 PUSH2 0x337C JUMP JUMPDEST PUSH2 0x14CF JUMP JUMPDEST PUSH2 0x319 PUSH2 0x15D0 JUMP JUMPDEST PUSH2 0x319 PUSH2 0x41F CALLDATASIZE PUSH1 0x4 PUSH2 0x33BF JUMP JUMPDEST PUSH2 0x15D6 JUMP JUMPDEST PUSH2 0x2A8 PUSH2 0x432 CALLDATASIZE PUSH1 0x4 PUSH2 0x3144 JUMP JUMPDEST PUSH2 0x1961 JUMP JUMPDEST PUSH2 0x2A8 PUSH2 0x445 CALLDATASIZE PUSH1 0x4 PUSH2 0x337C JUMP JUMPDEST PUSH2 0x19A0 JUMP JUMPDEST PUSH2 0x2A8 PUSH2 0x458 CALLDATASIZE PUSH1 0x4 PUSH2 0x345F JUMP JUMPDEST PUSH2 0x1BA2 JUMP JUMPDEST PUSH2 0x268 PUSH2 0x46B CALLDATASIZE PUSH1 0x4 PUSH2 0x345F JUMP JUMPDEST PUSH2 0x1C16 JUMP JUMPDEST PUSH2 0x319 PUSH2 0x47E CALLDATASIZE PUSH1 0x4 PUSH2 0x345F JUMP JUMPDEST PUSH2 0x1D2F JUMP JUMPDEST PUSH2 0x319 PUSH2 0x1DD6 JUMP JUMPDEST PUSH2 0x2A8 PUSH2 0x499 CALLDATASIZE PUSH1 0x4 PUSH2 0x32E8 JUMP JUMPDEST PUSH2 0x1DDC JUMP JUMPDEST PUSH2 0x24A PUSH2 0x4AC CALLDATASIZE PUSH1 0x4 PUSH2 0x30CC JUMP JUMPDEST PUSH2 0x23AD JUMP JUMPDEST PUSH2 0x2A8 PUSH2 0x4BF CALLDATASIZE PUSH1 0x4 PUSH2 0x30B0 JUMP JUMPDEST PUSH2 0x23DB JUMP JUMPDEST PUSH2 0x2A8 PUSH2 0x4D2 CALLDATASIZE PUSH1 0x4 PUSH2 0x345F JUMP JUMPDEST PUSH2 0x244C JUMP JUMPDEST PUSH2 0x2A8 PUSH2 0x4E5 CALLDATASIZE PUSH1 0x4 PUSH2 0x345F JUMP JUMPDEST PUSH2 0x2577 JUMP JUMPDEST PUSH2 0x4F2 PUSH2 0x25EB JUMP JUMPDEST PUSH1 0x40 MLOAD PUSH2 0x257 SWAP2 SWAP1 PUSH2 0x3646 JUMP JUMPDEST PUSH1 0x0 PUSH1 0x1 PUSH1 0x1 PUSH1 0xE0 SHL SUB NOT DUP3 AND PUSH4 0x80AC58CD PUSH1 0xE0 SHL EQ DUP1 PUSH2 0x530 JUMPI POP PUSH1 0x1 PUSH1 0x1 PUSH1 0xE0 SHL SUB NOT DUP3 AND PUSH4 0x5B5E139F PUSH1 0xE0 SHL EQ JUMPDEST DUP1 PUSH2 0x53F JUMPI POP PUSH2 0x53F DUP3 PUSH2 0x26C4 JUMP JUMPDEST SWAP1 POP JUMPDEST SWAP2 SWAP1 POP JUMP JUMPDEST PUSH1 0x60 PUSH1 0x0 DUP1 SLOAD PUSH2 0x556 SWAP1 PUSH2 0x4191 JUMP JUMPDEST DUP1 PUSH1 0x1F ADD PUSH1 0x20 DUP1 SWAP2 DIV MUL PUSH1 0x20 ADD PUSH1 0x40 MLOAD SWAP1 DUP2 ADD PUSH1 0x40 MSTORE DUP1 SWAP3 SWAP2 SWAP1 DUP2 DUP2 MSTORE PUSH1 0x20 ADD DUP3 DUP1 SLOAD PUSH2 0x582 SWAP1 PUSH2 0x4191 JUMP JUMPDEST DUP1 ISZERO PUSH2 0x5CF JUMPI DUP1 PUSH1 0x1F LT PUSH2 0x5A4 JUMPI PUSH2 0x100 DUP1 DUP4 SLOAD DIV MUL DUP4 MSTORE SWAP2 PUSH1 0x20 ADD SWAP2 PUSH2 0x5CF JUMP JUMPDEST DUP3 ADD SWAP2 SWAP1 PUSH1 0x0 MSTORE PUSH1 0x20 PUSH1 0x0 KECCAK256 SWAP1 JUMPDEST DUP2 SLOAD DUP2 MSTORE SWAP1 PUSH1 0x1 ADD SWAP1 PUSH1 0x20 ADD DUP1 DUP4 GT PUSH2 0x5B2 JUMPI DUP3 SWAP1 SUB PUSH1 0x1F AND DUP3 ADD SWAP2 JUMPDEST POP POP POP POP POP SWAP1 POP SWAP1 JUMP JUMPDEST PUSH1 0x0 PUSH2 0x5E4 DUP3 PUSH2 0x26DD JUMP JUMPDEST PUSH2 0x609 JUMPI PUSH1 0x40 MLOAD PUSH3 0x461BCD PUSH1 0xE5 SHL DUP2 MSTORE PUSH1 0x4 ADD PUSH2 0x600 SWAP1 PUSH2 0x3D82 JUMP JUMPDEST PUSH1 0x40 MLOAD DUP1 SWAP2 SUB SWAP1 REVERT JUMPDEST POP PUSH1 0x0 SWAP1 DUP2 MSTORE PUSH1 0x4 PUSH1 0x20 MSTORE PUSH1 0x40 SWAP1 KECCAK256 SLOAD PUSH1 0x1 PUSH1 0x1 PUSH1 0xA0 SHL SUB AND SWAP1 JUMP JUMPDEST PUSH1 0x0 PUSH2 0x630 DUP3 PUSH2 0x921 JUMP JUMPDEST SWAP1 POP DUP1 PUSH1 0x1 PUSH1 0x1 PUSH1 0xA0 SHL SUB AND DUP4 PUSH1 0x1 PUSH1 0x1 PUSH1 0xA0 SHL SUB AND EQ ISZERO PUSH2 0x664 JUMPI PUSH1 0x40 MLOAD PUSH3 0x461BCD PUSH1 0xE5 SHL DUP2 MSTORE PUSH1 0x4 ADD PUSH2 0x600 SWAP1 PUSH2 0x3ED2 JUMP JUMPDEST DUP1 PUSH1 0x1 PUSH1 0x1 PUSH1 0xA0 SHL SUB AND PUSH2 0x676 PUSH2 0x26FA JUMP JUMPDEST PUSH1 0x1 PUSH1 0x1 PUSH1 0xA0 SHL SUB AND EQ DUP1 PUSH2 0x692 JUMPI POP PUSH2 0x692 DUP2 PUSH2 0x4AC PUSH2 0x26FA JUMP JUMPDEST PUSH2 0x6AE JUMPI PUSH1 0x40 MLOAD PUSH3 0x461BCD PUSH1 0xE5 SHL DUP2 MSTORE PUSH1 0x4 ADD PUSH2 0x600 SWAP1 PUSH2 0x3AC6 JUMP JUMPDEST PUSH2 0x6B8 DUP4 DUP4 PUSH2 0x26FE JUMP JUMPDEST POP POP POP JUMP JUMPDEST PUSH1 0x0 DUP2 PUSH1 0x1 EQ ISZERO PUSH2 0x6DA JUMPI POP PUSH1 0xD SLOAD PUSH1 0x1 PUSH1 0x1 PUSH1 0xA0 SHL SUB AND PUSH2 0x542 JUMP JUMPDEST DUP2 PUSH1 0x2 EQ ISZERO PUSH2 0x6F5 JUMPI POP PUSH1 0xE SLOAD PUSH1 0x1 PUSH1 0x1 PUSH1 0xA0 SHL SUB AND PUSH2 0x542 JUMP JUMPDEST POP POP PUSH1 0xD SLOAD PUSH1 0x1 PUSH1 0x1 PUSH1 0xA0 SHL SUB AND SWAP1 JUMP JUMPDEST PUSH2 0x70E PUSH2 0x26FA JUMP JUMPDEST PUSH1 0x1 PUSH1 0x1 PUSH1 0xA0 SHL SUB AND PUSH2 0x71F PUSH2 0x107F JUMP JUMPDEST PUSH1 0x1 PUSH1 0x1 PUSH1 0xA0 SHL SUB AND EQ PUSH2 0x745 JUMPI PUSH1 0x40 MLOAD PUSH3 0x461BCD PUSH1 0xE5 SHL DUP2 MSTORE PUSH1 0x4 ADD PUSH2 0x600 SWAP1 PUSH2 0x3DCE JUMP JUMPDEST PUSH1 0x1 PUSH1 0x1 PUSH1 0xA0 SHL SUB DUP2 AND PUSH2 0x76B JUMPI PUSH1 0x40 MLOAD PUSH3 0x461BCD PUSH1 0xE5 SHL DUP2 MSTORE PUSH1 0x4 ADD PUSH2 0x600 SWAP1 PUSH2 0x3A83 JUMP JUMPDEST PUSH1 0x10 DUP1 SLOAD PUSH1 0x1 PUSH1 0x1 PUSH1 0xA0 SHL SUB NOT AND PUSH1 0x1 PUSH1 0x1 PUSH1 0xA0 SHL SUB DUP4 AND SWAP1 DUP2 OR SWAP1 SWAP2 SSTORE PUSH1 0x40 MLOAD CALLER SWAP1 PUSH32 0x8A0149B2F3DDF2C9EE85738165131D82BABBB938F749321D59F75750AFA7F4E6 SWAP1 PUSH1 0x0 SWAP1 LOG3 POP JUMP JUMPDEST PUSH2 0x7C8 PUSH2 0x7C2 PUSH2 0x26FA JUMP JUMPDEST DUP3 PUSH2 0x276C JUMP JUMPDEST PUSH2 0x7E4 JUMPI PUSH1 0x40 MLOAD PUSH3 0x461BCD PUSH1 0xE5 SHL DUP2 MSTORE PUSH1 0x4 ADD PUSH2 0x600 SWAP1 PUSH2 0x3F13 JUMP JUMPDEST PUSH2 0x6B8 DUP4 DUP4 DUP4 PUSH2 0x27E9 JUMP JUMPDEST PUSH1 0x10 SLOAD PUSH1 0x1 PUSH1 0x1 PUSH1 0xA0 SHL SUB AND SWAP1 JUMP JUMPDEST PUSH1 0x60 TIMESTAMP PUSH1 0x9 DUP4 PUSH1 0x40 MLOAD PUSH2 0x811 SWAP2 SWAP1 PUSH2 0x3553 JUMP JUMPDEST SWAP1 DUP2 MSTORE PUSH1 0x20 ADD PUSH1 0x40 MLOAD DUP1 SWAP2 SUB SWAP1 KECCAK256 PUSH1 0x2 ADD SLOAD GT PUSH2 0x840 JUMPI PUSH1 0x40 MLOAD PUSH3 0x461BCD PUSH1 0xE5 SHL DUP2 MSTORE PUSH1 0x4 ADD PUSH2 0x600 SWAP1 PUSH2 0x394E JUMP JUMPDEST PUSH2 0x53F PUSH1 0x9 DUP4 PUSH1 0x40 MLOAD PUSH2 0x853 SWAP2 SWAP1 PUSH2 0x3553 JUMP JUMPDEST SWAP1 DUP2 MSTORE PUSH1 0x20 ADD PUSH1 0x40 MLOAD DUP1 SWAP2 SUB SWAP1 KECCAK256 PUSH1 0x1 ADD SLOAD PUSH2 0x1C16 JUMP JUMPDEST PUSH2 0x6B8 DUP4 DUP4 DUP4 PUSH1 0x40 MLOAD DUP1 PUSH1 0x20 ADD PUSH1 0x40 MSTORE DUP1 PUSH1 0x0 DUP2 MSTORE POP PUSH2 0x1961 JUMP JUMPDEST PUSH1 0x0 PUSH2 0x891 PUSH1 0x8 PUSH2 0x2916 JUMP JUMPDEST SWAP1 POP SWAP1 JUMP JUMPDEST PUSH2 0x89E PUSH2 0x26FA JUMP JUMPDEST PUSH1 0x1 PUSH1 0x1 PUSH1 0xA0 SHL SUB AND PUSH2 0x8AF PUSH2 0x107F JUMP JUMPDEST PUSH1 0x1 PUSH1 0x1 PUSH1 0xA0 SHL SUB AND EQ PUSH2 0x8D5 JUMPI PUSH1 0x40 MLOAD PUSH3 0x461BCD PUSH1 0xE5 SHL DUP2 MSTORE PUSH1 0x4 ADD PUSH2 0x600 SWAP1 PUSH2 0x3DCE JUMP JUMPDEST PUSH1 0xD DUP1 SLOAD PUSH1 0x1 PUSH1 0x1 PUSH1 0xA0 SHL SUB NOT AND PUSH1 0x1 PUSH1 0x1 PUSH1 0xA0 SHL SUB DUP4 AND SWAP1 DUP2 OR SWAP1 SWAP2 SSTORE PUSH1 0x40 MLOAD CALLER SWAP1 PUSH32 0x9A789BA6A022C5DD35CBC1DDA6260E60FCC2516B6D0523DB7D3A3794755D5D05 SWAP1 PUSH1 0x0 SWAP1 LOG3 POP JUMP JUMPDEST PUSH1 0x0 DUP2 DUP2 MSTORE PUSH1 0x2 PUSH1 0x20 MSTORE PUSH1 0x40 DUP2 KECCAK256 SLOAD PUSH1 0x1 PUSH1 0x1 PUSH1 0xA0 SHL SUB AND DUP1 PUSH2 0x53F JUMPI PUSH1 0x40 MLOAD PUSH3 0x461BCD PUSH1 0xE5 SHL DUP2 MSTORE PUSH1 0x4 ADD PUSH2 0x600 SWAP1 PUSH2 0x3B6D JUMP JUMPDEST PUSH1 0x0 PUSH2 0x960 PUSH2 0x26FA JUMP JUMPDEST PUSH1 0x1 PUSH1 0x1 PUSH1 0xA0 SHL SUB AND PUSH2 0x971 PUSH2 0x107F JUMP JUMPDEST PUSH1 0x1 PUSH1 0x1 PUSH1 0xA0 SHL SUB AND EQ PUSH2 0x997 JUMPI PUSH1 0x40 MLOAD PUSH3 0x461BCD PUSH1 0xE5 SHL DUP2 MSTORE PUSH1 0x4 ADD PUSH2 0x600 SWAP1 PUSH2 0x3DCE JUMP JUMPDEST PUSH2 0x99F PUSH2 0x1DD6 JUMP JUMPDEST TIMESTAMP GT PUSH2 0x9BD JUMPI PUSH1 0x40 MLOAD PUSH3 0x461BCD PUSH1 0xE5 SHL DUP2 MSTORE PUSH1 0x4 ADD PUSH2 0x600 SWAP1 PUSH2 0x3C4C JUMP JUMPDEST PUSH1 0x1 PUSH1 0x1 PUSH1 0xA0 SHL SUB DUP6 AND PUSH2 0x9E3 JUMPI PUSH1 0x40 MLOAD PUSH3 0x461BCD PUSH1 0xE5 SHL DUP2 MSTORE PUSH1 0x4 ADD PUSH2 0x600 SWAP1 PUSH2 0x4042 JUMP JUMPDEST PUSH2 0x9EB PUSH2 0x15D0 JUMP JUMPDEST PUSH2 0x9F5 SWAP1 DUP4 PUSH2 0x412F JUMP JUMPDEST PUSH2 0x9FF PUSH1 0x1 PUSH2 0x6BD JUMP JUMPDEST PUSH1 0x1 PUSH1 0x1 PUSH1 0xA0 SHL SUB AND PUSH4 0x70A08231 CALLER PUSH1 0x40 MLOAD DUP3 PUSH4 0xFFFFFFFF AND PUSH1 0xE0 SHL DUP2 MSTORE PUSH1 0x4 ADD PUSH2 0xA2A SWAP2 SWAP1 PUSH2 0x35D1 JUMP JUMPDEST PUSH1 0x20 PUSH1 0x40 MLOAD DUP1 DUP4 SUB DUP2 DUP7 DUP1 EXTCODESIZE ISZERO DUP1 ISZERO PUSH2 0xA42 JUMPI PUSH1 0x0 DUP1 REVERT JUMPDEST POP GAS STATICCALL ISZERO DUP1 ISZERO PUSH2 0xA56 JUMPI RETURNDATASIZE PUSH1 0x0 DUP1 RETURNDATACOPY RETURNDATASIZE PUSH1 0x0 REVERT JUMPDEST POP POP POP POP PUSH1 0x40 MLOAD RETURNDATASIZE PUSH1 0x1F NOT PUSH1 0x1F DUP3 ADD AND DUP3 ADD DUP1 PUSH1 0x40 MSTORE POP DUP2 ADD SWAP1 PUSH2 0xA7A SWAP2 SWAP1 PUSH2 0x3477 JUMP JUMPDEST LT ISZERO PUSH2 0xA98 JUMPI PUSH1 0x40 MLOAD PUSH3 0x461BCD PUSH1 0xE5 SHL DUP2 MSTORE PUSH1 0x4 ADD PUSH2 0x600 SWAP1 PUSH2 0x3768 JUMP JUMPDEST PUSH1 0x0 DUP5 MLOAD GT PUSH2 0xAB9 JUMPI PUSH1 0x40 MLOAD PUSH3 0x461BCD PUSH1 0xE5 SHL DUP2 MSTORE PUSH1 0x4 ADD PUSH2 0x600 SWAP1 PUSH2 0x3E9B JUMP JUMPDEST PUSH1 0x0 DUP4 MLOAD GT PUSH2 0xADA JUMPI PUSH1 0x40 MLOAD PUSH3 0x461BCD PUSH1 0xE5 SHL DUP2 MSTORE PUSH1 0x4 ADD PUSH2 0x600 SWAP1 PUSH2 0x39BA JUMP JUMPDEST PUSH1 0x1 DUP3 LT ISZERO DUP1 ISZERO PUSH2 0xAEC JUMPI POP PUSH1 0xA DUP3 GT ISZERO JUMPDEST PUSH2 0xB08 JUMPI PUSH1 0x40 MLOAD PUSH3 0x461BCD PUSH1 0xE5 SHL DUP2 MSTORE PUSH1 0x4 ADD PUSH2 0x600 SWAP1 PUSH2 0x3D2F JUMP JUMPDEST PUSH2 0xB41 CALLER PUSH2 0xB14 PUSH2 0x7EF JUMP JUMPDEST PUSH2 0xB1C PUSH2 0x15D0 JUMP JUMPDEST PUSH2 0xB26 SWAP1 DUP7 PUSH2 0x412F JUMP JUMPDEST PUSH2 0xB30 PUSH1 0x1 PUSH2 0x6BD JUMP JUMPDEST PUSH1 0x1 PUSH1 0x1 PUSH1 0xA0 SHL SUB AND SWAP3 SWAP2 SWAP1 PUSH2 0x291A JUMP JUMPDEST PUSH2 0xB4B PUSH1 0x8 PUSH2 0x2972 JUMP JUMPDEST PUSH1 0x0 PUSH2 0xB57 PUSH1 0x8 PUSH2 0x2916 JUMP JUMPDEST SWAP1 POP PUSH2 0xB63 DUP7 DUP3 PUSH2 0x297B JUMP JUMPDEST DUP6 PUSH1 0x9 DUP7 PUSH1 0x40 MLOAD PUSH2 0xB74 SWAP2 SWAP1 PUSH2 0x3553 JUMP JUMPDEST SWAP1 DUP2 MSTORE PUSH1 0x40 MLOAD SWAP1 DUP2 SWAP1 SUB PUSH1 0x20 ADD DUP2 KECCAK256 DUP1 SLOAD PUSH1 0x1 PUSH1 0x1 PUSH1 0xA0 SHL SUB SWAP4 SWAP1 SWAP4 AND PUSH1 0x1 PUSH1 0x1 PUSH1 0xA0 SHL SUB NOT SWAP1 SWAP4 AND SWAP3 SWAP1 SWAP3 OR SWAP1 SWAP2 SSTORE DUP2 SWAP1 PUSH1 0x9 SWAP1 PUSH2 0xBB4 SWAP1 DUP9 SWAP1 PUSH2 0x3553 JUMP JUMPDEST SWAP1 DUP2 MSTORE PUSH1 0x40 MLOAD SWAP1 DUP2 SWAP1 SUB PUSH1 0x20 ADD SWAP1 KECCAK256 PUSH1 0x1 ADD SSTORE PUSH2 0xBD3 DUP4 PUSH2 0x16D PUSH2 0x412F JUMP JUMPDEST PUSH2 0xBE0 SWAP1 PUSH3 0x15180 PUSH2 0x412F JUMP JUMPDEST PUSH2 0xBEA SWAP1 TIMESTAMP PUSH2 0x4103 JUMP JUMPDEST PUSH1 0x9 DUP7 PUSH1 0x40 MLOAD PUSH2 0xBFA SWAP2 SWAP1 PUSH2 0x3553 JUMP JUMPDEST SWAP1 DUP2 MSTORE PUSH1 0x20 ADD PUSH1 0x40 MLOAD DUP1 SWAP2 SUB SWAP1 KECCAK256 PUSH1 0x2 ADD DUP2 SWAP1 SSTORE POP PUSH1 0x0 PUSH1 0x9 DUP7 PUSH1 0x40 MLOAD PUSH2 0xC21 SWAP2 SWAP1 PUSH2 0x3553 JUMP JUMPDEST SWAP1 DUP2 MSTORE PUSH1 0x40 MLOAD SWAP1 DUP2 SWAP1 SUB PUSH1 0x20 ADD DUP2 KECCAK256 PUSH1 0x3 ADD DUP1 SLOAD SWAP3 ISZERO ISZERO PUSH1 0xFF NOT SWAP1 SWAP4 AND SWAP3 SWAP1 SWAP3 OR SWAP1 SWAP2 SSTORE PUSH1 0x0 SWAP1 PUSH1 0x9 SWAP1 PUSH2 0xC56 SWAP1 DUP9 SWAP1 PUSH2 0x3553 JUMP JUMPDEST SWAP1 DUP2 MSTORE PUSH1 0x20 ADD PUSH1 0x40 MLOAD DUP1 SWAP2 SUB SWAP1 KECCAK256 PUSH1 0x4 ADD DUP2 SWAP1 SSTORE POP DUP4 PUSH1 0x9 DUP7 PUSH1 0x40 MLOAD PUSH2 0xC7C SWAP2 SWAP1 PUSH2 0x3553 JUMP JUMPDEST SWAP1 DUP2 MSTORE PUSH1 0x20 ADD PUSH1 0x40 MLOAD DUP1 SWAP2 SUB SWAP1 KECCAK256 PUSH1 0x5 ADD SWAP1 DUP1 MLOAD SWAP1 PUSH1 0x20 ADD SWAP1 PUSH2 0xCA0 SWAP3 SWAP2 SWAP1 PUSH2 0x2F88 JUMP JUMPDEST POP PUSH1 0x1 PUSH1 0x1 PUSH1 0xA0 SHL SUB DUP7 AND PUSH1 0x0 SWAP1 DUP2 MSTORE PUSH1 0xA PUSH1 0x20 SWAP1 DUP2 MSTORE PUSH1 0x40 DUP1 DUP4 KECCAK256 DUP1 SLOAD PUSH1 0x1 DUP2 ADD DUP3 SSTORE SWAP1 DUP5 MSTORE SWAP2 SWAP1 SWAP3 KECCAK256 ADD DUP3 SWAP1 SSTORE MLOAD PUSH2 0xCDB SWAP1 DUP7 SWAP1 PUSH2 0x3553 JUMP JUMPDEST PUSH1 0x40 MLOAD SWAP1 DUP2 SWAP1 SUB DUP2 KECCAK256 SWAP1 PUSH1 0x1 PUSH1 0x1 PUSH1 0xA0 SHL SUB DUP9 AND SWAP1 PUSH32 0x398B38CCFA99463DEEBFFC69169B0FFED68AE59697476DA0AEAFBF74BF302C1B SWAP1 PUSH1 0x0 SWAP1 LOG3 SWAP1 POP JUMPDEST SWAP5 SWAP4 POP POP POP POP JUMP JUMPDEST PUSH1 0x0 PUSH1 0x1 PUSH1 0x1 PUSH1 0xA0 SHL SUB DUP3 AND PUSH2 0xD49 JUMPI PUSH1 0x40 MLOAD PUSH3 0x461BCD PUSH1 0xE5 SHL DUP2 MSTORE PUSH1 0x4 ADD PUSH2 0x600 SWAP1 PUSH2 0x3B23 JUMP JUMPDEST POP PUSH1 0x1 PUSH1 0x1 PUSH1 0xA0 SHL SUB AND PUSH1 0x0 SWAP1 DUP2 MSTORE PUSH1 0x3 PUSH1 0x20 MSTORE PUSH1 0x40 SWAP1 KECCAK256 SLOAD SWAP1 JUMP JUMPDEST PUSH2 0xD6D PUSH2 0x26FA JUMP JUMPDEST PUSH1 0x1 PUSH1 0x1 PUSH1 0xA0 SHL SUB AND PUSH2 0xD7E PUSH2 0x107F JUMP JUMPDEST PUSH1 0x1 PUSH1 0x1 PUSH1 0xA0 SHL SUB AND EQ PUSH2 0xDA4 JUMPI PUSH1 0x40 MLOAD PUSH3 0x461BCD PUSH1 0xE5 SHL DUP2 MSTORE PUSH1 0x4 ADD PUSH2 0x600 SWAP1 PUSH2 0x3DCE JUMP JUMPDEST PUSH2 0xDAE PUSH1 0x0 PUSH2 0x2A5A JUMP JUMPDEST JUMP JUMPDEST PUSH2 0xDB8 PUSH2 0x1DD6 JUMP JUMPDEST TIMESTAMP GT PUSH2 0xDD6 JUMPI PUSH1 0x40 MLOAD PUSH3 0x461BCD PUSH1 0xE5 SHL DUP2 MSTORE PUSH1 0x4 ADD PUSH2 0x600 SWAP1 PUSH2 0x3C4C JUMP JUMPDEST PUSH2 0xDDE PUSH2 0x15D0 JUMP JUMPDEST PUSH2 0xDE8 SWAP1 DUP3 PUSH2 0x412F JUMP JUMPDEST PUSH2 0xDF2 PUSH1 0x1 PUSH2 0x6BD JUMP JUMPDEST PUSH1 0x1 PUSH1 0x1 PUSH1 0xA0 SHL SUB AND PUSH4 0x70A08231 CALLER PUSH1 0x40 MLOAD DUP3 PUSH4 0xFFFFFFFF AND PUSH1 0xE0 SHL DUP2 MSTORE PUSH1 0x4 ADD PUSH2 0xE1D SWAP2 SWAP1 PUSH2 0x35D1 JUMP JUMPDEST PUSH1 0x20 PUSH1 0x40 MLOAD DUP1 DUP4 SUB DUP2 DUP7 DUP1 EXTCODESIZE ISZERO DUP1 ISZERO PUSH2 0xE35 JUMPI PUSH1 0x0 DUP1 REVERT JUMPDEST POP GAS STATICCALL ISZERO DUP1 ISZERO PUSH2 0xE49 JUMPI RETURNDATASIZE PUSH1 0x0 DUP1 RETURNDATACOPY RETURNDATASIZE PUSH1 0x0 REVERT JUMPDEST POP POP POP POP PUSH1 0x40 MLOAD RETURNDATASIZE PUSH1 0x1F NOT PUSH1 0x1F DUP3 ADD AND DUP3 ADD DUP1 PUSH1 0x40 MSTORE POP DUP2 ADD SWAP1 PUSH2 0xE6D SWAP2 SWAP1 PUSH2 0x3477 JUMP JUMPDEST LT ISZERO PUSH2 0xE8B JUMPI PUSH1 0x40 MLOAD PUSH3 0x461BCD PUSH1 0xE5 SHL DUP2 MSTORE PUSH1 0x4 ADD PUSH2 0x600 SWAP1 PUSH2 0x3768 JUMP JUMPDEST PUSH1 0x0 DUP4 MLOAD GT PUSH2 0xEAC JUMPI PUSH1 0x40 MLOAD PUSH3 0x461BCD PUSH1 0xE5 SHL DUP2 MSTORE PUSH1 0x4 ADD PUSH2 0x600 SWAP1 PUSH2 0x373F JUMP JUMPDEST PUSH1 0x1 DUP2 LT ISZERO DUP1 ISZERO PUSH2 0xEBE JUMPI POP PUSH1 0xA DUP2 GT ISZERO JUMPDEST PUSH2 0xEDA JUMPI PUSH1 0x40 MLOAD PUSH3 0x461BCD PUSH1 0xE5 SHL DUP2 MSTORE PUSH1 0x4 ADD PUSH2 0x600 SWAP1 PUSH2 0x3D2F JUMP JUMPDEST PUSH1 0x11 SLOAD DUP3 LT PUSH2 0xEFB JUMPI PUSH1 0x40 MLOAD PUSH3 0x461BCD PUSH1 0xE5 SHL DUP2 MSTORE PUSH1 0x4 ADD PUSH2 0x600 SWAP1 PUSH2 0x3794 JUMP JUMPDEST PUSH2 0xF19 CALLER PUSH2 0xF07 PUSH2 0x7EF JUMP JUMPDEST PUSH2 0xF0F PUSH2 0x15D0 JUMP JUMPDEST PUSH2 0xB26 SWAP1 DUP6 PUSH2 0x412F JUMP JUMPDEST PUSH1 0x0 DUP1 DUP5 MLOAD GT PUSH2 0xF38 JUMPI PUSH1 0x40 MLOAD DUP1 PUSH1 0x20 ADD PUSH1 0x40 MSTORE DUP1 PUSH1 0x0 DUP2 MSTORE POP PUSH2 0xF85 JUMP JUMPDEST DUP4 PUSH1 0x11 DUP5 DUP2 SLOAD DUP2 LT PUSH2 0xF5A JUMPI PUSH4 0x4E487B71 PUSH1 0xE0 SHL PUSH1 0x0 MSTORE PUSH1 0x32 PUSH1 0x4 MSTORE PUSH1 0x24 PUSH1 0x0 REVERT JUMPDEST SWAP1 PUSH1 0x0 MSTORE PUSH1 0x20 PUSH1 0x0 KECCAK256 ADD PUSH1 0x40 MLOAD PUSH1 0x20 ADD PUSH2 0xF75 SWAP3 SWAP2 SWAP1 PUSH2 0x359E JUMP JUMPDEST PUSH1 0x40 MLOAD PUSH1 0x20 DUP2 DUP4 SUB SUB DUP2 MSTORE SWAP1 PUSH1 0x40 MSTORE JUMPDEST SWAP1 POP PUSH2 0xF93 DUP3 PUSH2 0x16D PUSH2 0x412F JUMP JUMPDEST PUSH2 0xFA0 SWAP1 PUSH3 0x15180 PUSH2 0x412F JUMP JUMPDEST PUSH2 0xFAA SWAP1 TIMESTAMP PUSH2 0x4103 JUMP JUMPDEST PUSH1 0x9 DUP3 PUSH1 0x40 MLOAD PUSH2 0xFBA SWAP2 SWAP1 PUSH2 0x3553 JUMP JUMPDEST SWAP1 DUP2 MSTORE PUSH1 0x40 MLOAD SWAP1 DUP2 SWAP1 SUB PUSH1 0x20 ADD DUP2 KECCAK256 PUSH1 0x2 ADD SWAP2 SWAP1 SWAP2 SSTORE PUSH2 0xFDB SWAP1 DUP3 SWAP1 PUSH2 0x3553 JUMP JUMPDEST PUSH1 0x40 MLOAD SWAP1 DUP2 SWAP1 SUB DUP2 KECCAK256 SWAP1 CALLER SWAP1 PUSH32 0x78635DF14D3FE30B948A7977339CE6635025A590B1F1DDE3F8AA39E6D78DE54B SWAP1 PUSH1 0x0 SWAP1 LOG3 POP POP POP POP JUMP JUMPDEST PUSH1 0x1 PUSH1 0x1 PUSH1 0xA0 SHL SUB DUP2 AND PUSH1 0x0 SWAP1 DUP2 MSTORE PUSH1 0xA PUSH1 0x20 SWAP1 DUP2 MSTORE PUSH1 0x40 SWAP2 DUP3 SWAP1 KECCAK256 DUP1 SLOAD DUP4 MLOAD DUP2 DUP5 MUL DUP2 ADD DUP5 ADD SWAP1 SWAP5 MSTORE DUP1 DUP5 MSTORE PUSH1 0x60 SWAP4 SWAP3 DUP4 ADD DUP3 DUP3 DUP1 ISZERO PUSH2 0x1073 JUMPI PUSH1 0x20 MUL DUP3 ADD SWAP2 SWAP1 PUSH1 0x0 MSTORE PUSH1 0x20 PUSH1 0x0 KECCAK256 SWAP1 JUMPDEST DUP2 SLOAD DUP2 MSTORE PUSH1 0x20 ADD SWAP1 PUSH1 0x1 ADD SWAP1 DUP1 DUP4 GT PUSH2 0x105F JUMPI JUMPDEST POP POP POP POP POP SWAP1 POP SWAP2 SWAP1 POP JUMP JUMPDEST PUSH1 0x7 SLOAD PUSH1 0x1 PUSH1 0x1 PUSH1 0xA0 SHL SUB AND SWAP1 JUMP JUMPDEST PUSH1 0x60 PUSH1 0x1 DUP1 SLOAD PUSH2 0x556 SWAP1 PUSH2 0x4191 JUMP JUMPDEST PUSH2 0x10A5 PUSH2 0x15D0 JUMP JUMPDEST PUSH2 0x10AF PUSH1 0x1 PUSH2 0x6BD JUMP JUMPDEST PUSH1 0x1 PUSH1 0x1 PUSH1 0xA0 SHL SUB AND PUSH4 0x70A08231 CALLER PUSH1 0x40 MLOAD DUP3 PUSH4 0xFFFFFFFF AND PUSH1 0xE0 SHL DUP2 MSTORE PUSH1 0x4 ADD PUSH2 0x10DA SWAP2 SWAP1 PUSH2 0x35D1 JUMP JUMPDEST PUSH1 0x20 PUSH1 0x40 MLOAD DUP1 DUP4 SUB DUP2 DUP7 DUP1 EXTCODESIZE ISZERO DUP1 ISZERO PUSH2 0x10F2 JUMPI PUSH1 0x0 DUP1 REVERT JUMPDEST POP GAS STATICCALL ISZERO DUP1 ISZERO PUSH2 0x1106 JUMPI RETURNDATASIZE PUSH1 0x0 DUP1 RETURNDATACOPY RETURNDATASIZE PUSH1 0x0 REVERT JUMPDEST POP POP POP POP PUSH1 0x40 MLOAD RETURNDATASIZE PUSH1 0x1F NOT PUSH1 0x1F DUP3 ADD AND DUP3 ADD DUP1 PUSH1 0x40 MSTORE POP DUP2 ADD SWAP1 PUSH2 0x112A SWAP2 SWAP1 PUSH2 0x3477 JUMP JUMPDEST LT ISZERO PUSH2 0x1148 JUMPI PUSH1 0x40 MLOAD PUSH3 0x461BCD PUSH1 0xE5 SHL DUP2 MSTORE PUSH1 0x4 ADD PUSH2 0x600 SWAP1 PUSH2 0x3768 JUMP JUMPDEST PUSH1 0x0 PUSH1 0x9 DUP4 PUSH1 0x40 MLOAD PUSH2 0x115A SWAP2 SWAP1 PUSH2 0x3553 JUMP JUMPDEST SWAP1 DUP2 MSTORE PUSH1 0x40 MLOAD SWAP1 DUP2 SWAP1 SUB PUSH1 0x20 ADD SWAP1 KECCAK256 SLOAD PUSH1 0x1 PUSH1 0x1 PUSH1 0xA0 SHL SUB AND SWAP1 POP CALLER DUP2 EQ PUSH2 0x1194 JUMPI PUSH1 0x40 MLOAD PUSH3 0x461BCD PUSH1 0xE5 SHL DUP2 MSTORE PUSH1 0x4 ADD PUSH2 0x600 SWAP1 PUSH2 0x3C04 JUMP JUMPDEST PUSH2 0x11A8 CALLER PUSH2 0x11A0 PUSH2 0x7EF JUMP JUMPDEST PUSH2 0xB26 PUSH2 0x15D0 JUMP JUMPDEST PUSH1 0x0 DUP4 MLOAD GT PUSH2 0x11C9 JUMPI PUSH1 0x40 MLOAD PUSH3 0x461BCD PUSH1 0xE5 SHL DUP2 MSTORE PUSH1 0x4 ADD PUSH2 0x600 SWAP1 PUSH2 0x3708 JUMP JUMPDEST PUSH1 0x0 DUP3 MLOAD GT PUSH2 0x11EA JUMPI PUSH1 0x40 MLOAD PUSH3 0x461BCD PUSH1 0xE5 SHL DUP2 MSTORE PUSH1 0x4 ADD PUSH2 0x600 SWAP1 PUSH2 0x39BA JUMP JUMPDEST PUSH2 0x1215 PUSH1 0x9 DUP5 PUSH1 0x40 MLOAD PUSH2 0x11FD SWAP2 SWAP1 PUSH2 0x3553 JUMP JUMPDEST SWAP1 DUP2 MSTORE PUSH1 0x20 ADD PUSH1 0x40 MLOAD DUP1 SWAP2 SUB SWAP1 KECCAK256 PUSH1 0x1 ADD SLOAD DUP4 PUSH2 0x2AAC JUMP JUMPDEST DUP2 PUSH1 0x40 MLOAD PUSH2 0x1223 SWAP2 SWAP1 PUSH2 0x3553 JUMP JUMPDEST PUSH1 0x40 MLOAD DUP1 SWAP2 SUB SWAP1 KECCAK256 DUP4 PUSH1 0x40 MLOAD PUSH2 0x1239 SWAP2 SWAP1 PUSH2 0x3553 JUMP JUMPDEST PUSH1 0x40 MLOAD SWAP1 DUP2 SWAP1 SUB DUP2 KECCAK256 SWAP1 CALLER SWAP1 PUSH32 0x6A470467BFB3700194EDA002CBE84F65B70E4A8534E058A8DC06F55F632935CF SWAP1 PUSH1 0x0 SWAP1 LOG4 POP POP POP JUMP JUMPDEST PUSH2 0x1278 PUSH2 0x26FA JUMP JUMPDEST PUSH1 0x1 PUSH1 0x1 PUSH1 0xA0 SHL SUB AND PUSH2 0x1289 PUSH2 0x107F JUMP JUMPDEST PUSH1 0x1 PUSH1 0x1 PUSH1 0xA0 SHL SUB AND EQ PUSH2 0x12AF JUMPI PUSH1 0x40 MLOAD PUSH3 0x461BCD PUSH1 0xE5 SHL DUP2 MSTORE PUSH1 0x4 ADD PUSH2 0x600 SWAP1 PUSH2 0x3DCE JUMP JUMPDEST PUSH1 0x11 SLOAD PUSH1 0x0 JUMPDEST PUSH1 0x11 SLOAD DUP2 LT ISZERO PUSH2 0x1357 JUMPI PUSH1 0x11 DUP2 DUP2 SLOAD DUP2 LT PUSH2 0x12E0 JUMPI PUSH4 0x4E487B71 PUSH1 0xE0 SHL PUSH1 0x0 MSTORE PUSH1 0x32 PUSH1 0x4 MSTORE PUSH1 0x24 PUSH1 0x0 REVERT JUMPDEST SWAP1 PUSH1 0x0 MSTORE PUSH1 0x20 PUSH1 0x0 KECCAK256 ADD PUSH1 0x40 MLOAD PUSH1 0x20 ADD PUSH2 0x12FA SWAP2 SWAP1 PUSH2 0x35C5 JUMP JUMPDEST PUSH1 0x40 MLOAD PUSH1 0x20 DUP2 DUP4 SUB SUB DUP2 MSTORE SWAP1 PUSH1 0x40 MSTORE DUP1 MLOAD SWAP1 PUSH1 0x20 ADD KECCAK256 DUP4 PUSH1 0x40 MLOAD PUSH1 0x20 ADD PUSH2 0x1321 SWAP2 SWAP1 PUSH2 0x3553 JUMP JUMPDEST PUSH1 0x40 MLOAD PUSH1 0x20 DUP2 DUP4 SUB SUB DUP2 MSTORE SWAP1 PUSH1 0x40 MSTORE DUP1 MLOAD SWAP1 PUSH1 0x20 ADD KECCAK256 EQ ISZERO PUSH2 0x1345 JUMPI DUP1 SWAP2 POP PUSH2 0x1357 JUMP JUMPDEST DUP1 PUSH2 0x134F DUP2 PUSH2 0x41CC JUMP JUMPDEST SWAP2 POP POP PUSH2 0x12B5 JUMP JUMPDEST POP PUSH1 0x11 SLOAD DUP2 EQ PUSH2 0x1379 JUMPI PUSH1 0x40 MLOAD PUSH3 0x461BCD PUSH1 0xE5 SHL DUP2 MSTORE PUSH1 0x4 ADD PUSH2 0x600 SWAP1 PUSH2 0x4079 JUMP JUMPDEST PUSH1 0x11 DUP1 SLOAD PUSH1 0x1 DUP2 ADD DUP3 SSTORE PUSH1 0x0 SWAP2 SWAP1 SWAP2 MSTORE DUP3 MLOAD PUSH2 0x13BC SWAP2 PUSH32 0x31ECC21A745E3968A04E9570E4425BC18FA8019C68028196B546D1669C200C68 ADD SWAP1 PUSH1 0x20 DUP6 ADD SWAP1 PUSH2 0x2F88 JUMP JUMPDEST POP DUP2 PUSH1 0x40 MLOAD PUSH2 0x13CB SWAP2 SWAP1 PUSH2 0x3553 JUMP JUMPDEST PUSH1 0x40 MLOAD SWAP1 DUP2 SWAP1 SUB DUP2 KECCAK256 SWAP1 CALLER SWAP1 PUSH32 0x83882CD25E30059BC0E7B2B22D16E4B730D5471E0812CE89788DD22303C47C37 SWAP1 PUSH1 0x0 SWAP1 LOG3 POP POP JUMP JUMPDEST PUSH2 0x1409 PUSH2 0x26FA JUMP JUMPDEST PUSH1 0x1 PUSH1 0x1 PUSH1 0xA0 SHL SUB AND DUP3 PUSH1 0x1 PUSH1 0x1 PUSH1 0xA0 SHL SUB AND EQ ISZERO PUSH2 0x143A JUMPI PUSH1 0x40 MLOAD PUSH3 0x461BCD PUSH1 0xE5 SHL DUP2 MSTORE PUSH1 0x4 ADD PUSH2 0x600 SWAP1 PUSH2 0x3917 JUMP JUMPDEST DUP1 PUSH1 0x5 PUSH1 0x0 PUSH2 0x1447 PUSH2 0x26FA JUMP JUMPDEST PUSH1 0x1 PUSH1 0x1 PUSH1 0xA0 SHL SUB SWAP1 DUP2 AND DUP3 MSTORE PUSH1 0x20 DUP1 DUP4 ADD SWAP4 SWAP1 SWAP4 MSTORE PUSH1 0x40 SWAP2 DUP3 ADD PUSH1 0x0 SWAP1 DUP2 KECCAK256 SWAP2 DUP8 AND DUP1 DUP3 MSTORE SWAP2 SWAP1 SWAP4 MSTORE SWAP2 KECCAK256 DUP1 SLOAD PUSH1 0xFF NOT AND SWAP3 ISZERO ISZERO SWAP3 SWAP1 SWAP3 OR SWAP1 SWAP2 SSTORE PUSH2 0x148B PUSH2 0x26FA JUMP JUMPDEST PUSH1 0x1 PUSH1 0x1 PUSH1 0xA0 SHL SUB AND PUSH32 0x17307EAB39AB6107E8899845AD3D59BD9653F200F220920489CA2B5937696C31 DUP4 PUSH1 0x40 MLOAD PUSH2 0x14C3 SWAP2 SWAP1 PUSH2 0x36EA JUMP JUMPDEST PUSH1 0x40 MLOAD DUP1 SWAP2 SUB SWAP1 LOG3 POP POP JUMP JUMPDEST PUSH1 0x0 PUSH1 0x9 DUP4 PUSH1 0x40 MLOAD PUSH2 0x14E1 SWAP2 SWAP1 PUSH2 0x3553 JUMP JUMPDEST SWAP1 DUP2 MSTORE PUSH1 0x40 MLOAD SWAP1 DUP2 SWAP1 SUB PUSH1 0x20 ADD SWAP1 KECCAK256 SLOAD PUSH1 0x1 PUSH1 0x1 PUSH1 0xA0 SHL SUB AND SWAP1 POP CALLER DUP2 EQ PUSH2 0x151B JUMPI PUSH1 0x40 MLOAD PUSH3 0x461BCD PUSH1 0xE5 SHL DUP2 MSTORE PUSH1 0x4 ADD PUSH2 0x600 SWAP1 PUSH2 0x3C04 JUMP JUMPDEST PUSH1 0x1 PUSH1 0x9 DUP5 PUSH1 0x40 MLOAD PUSH2 0x152D SWAP2 SWAP1 PUSH2 0x3553 JUMP JUMPDEST SWAP1 DUP2 MSTORE PUSH1 0x40 MLOAD SWAP1 DUP2 SWAP1 SUB PUSH1 0x20 ADD DUP2 KECCAK256 PUSH1 0x3 ADD DUP1 SLOAD SWAP3 ISZERO ISZERO PUSH1 0xFF NOT SWAP1 SWAP4 AND SWAP3 SWAP1 SWAP3 OR SWAP1 SWAP2 SSTORE DUP3 SWAP1 PUSH1 0x9 SWAP1 PUSH2 0x1561 SWAP1 DUP7 SWAP1 PUSH2 0x3553 JUMP JUMPDEST SWAP1 DUP2 MSTORE PUSH1 0x40 MLOAD SWAP1 DUP2 SWAP1 SUB PUSH1 0x20 ADD DUP2 KECCAK256 PUSH1 0x4 ADD SWAP2 SWAP1 SWAP2 SSTORE PUSH2 0x1582 SWAP1 DUP5 SWAP1 PUSH2 0x3553 JUMP JUMPDEST PUSH1 0x40 MLOAD DUP1 SWAP2 SUB SWAP1 KECCAK256 CALLER PUSH1 0x1 PUSH1 0x1 PUSH1 0xA0 SHL SUB AND PUSH32 0xCA5EFA69465F7B855C422CC812D04259CEB90F80140AE5282CC8EB54E54C546C DUP5 PUSH1 0x40 MLOAD PUSH2 0x15C3 SWAP2 SWAP1 PUSH2 0x40EE JUMP JUMPDEST PUSH1 0x40 MLOAD DUP1 SWAP2 SUB SWAP1 LOG3 POP POP POP JUMP JUMPDEST PUSH1 0xB SLOAD SWAP1 JUMP JUMPDEST PUSH1 0x0 PUSH2 0x15E0 PUSH2 0x1DD6 JUMP JUMPDEST TIMESTAMP GT PUSH2 0x15FE JUMPI PUSH1 0x40 MLOAD PUSH3 0x461BCD PUSH1 0xE5 SHL DUP2 MSTORE PUSH1 0x4 ADD PUSH2 0x600 SWAP1 PUSH2 0x3C4C JUMP JUMPDEST PUSH2 0x1606 PUSH2 0x15D0 JUMP JUMPDEST PUSH2 0x1610 PUSH1 0x1 PUSH2 0x6BD JUMP JUMPDEST PUSH1 0x1 PUSH1 0x1 PUSH1 0xA0 SHL SUB AND PUSH4 0x70A08231 CALLER PUSH1 0x40 MLOAD DUP3 PUSH4 0xFFFFFFFF AND PUSH1 0xE0 SHL DUP2 MSTORE PUSH1 0x4 ADD PUSH2 0x163B SWAP2 SWAP1 PUSH2 0x35D1 JUMP JUMPDEST PUSH1 0x20 PUSH1 0x40 MLOAD DUP1 DUP4 SUB DUP2 DUP7 DUP1 EXTCODESIZE ISZERO DUP1 ISZERO PUSH2 0x1653 JUMPI PUSH1 0x0 DUP1 REVERT JUMPDEST POP GAS STATICCALL ISZERO DUP1 ISZERO PUSH2 0x1667 JUMPI RETURNDATASIZE PUSH1 0x0 DUP1 RETURNDATACOPY RETURNDATASIZE PUSH1 0x0 REVERT JUMPDEST POP POP POP POP PUSH1 0x40 MLOAD RETURNDATASIZE PUSH1 0x1F NOT PUSH1 0x1F DUP3 ADD AND DUP3 ADD DUP1 PUSH1 0x40 MSTORE POP DUP2 ADD SWAP1 PUSH2 0x168B SWAP2 SWAP1 PUSH2 0x3477 JUMP JUMPDEST LT ISZERO PUSH2 0x16A9 JUMPI PUSH1 0x40 MLOAD PUSH3 0x461BCD PUSH1 0xE5 SHL DUP2 MSTORE PUSH1 0x4 ADD PUSH2 0x600 SWAP1 PUSH2 0x3768 JUMP JUMPDEST PUSH1 0x0 DUP6 MLOAD GT PUSH2 0x16CA JUMPI PUSH1 0x40 MLOAD PUSH3 0x461BCD PUSH1 0xE5 SHL DUP2 MSTORE PUSH1 0x4 ADD PUSH2 0x600 SWAP1 PUSH2 0x373F JUMP JUMPDEST PUSH1 0x1 DUP3 LT ISZERO DUP1 ISZERO PUSH2 0x16DC JUMPI POP PUSH1 0xA DUP3 GT ISZERO JUMPDEST PUSH2 0x16F8 JUMPI PUSH1 0x40 MLOAD PUSH3 0x461BCD PUSH1 0xE5 SHL DUP2 MSTORE PUSH1 0x4 ADD PUSH2 0x600 SWAP1 PUSH2 0x3D2F JUMP JUMPDEST PUSH1 0x11 SLOAD DUP5 LT PUSH2 0x1719 JUMPI PUSH1 0x40 MLOAD PUSH3 0x461BCD PUSH1 0xE5 SHL DUP2 MSTORE PUSH1 0x4 ADD PUSH2 0x600 SWAP1 PUSH2 0x3794 JUMP JUMPDEST PUSH2 0x1726 CALLER ADDRESS PUSH2 0xB1C PUSH2 0x15D0 JUMP JUMPDEST PUSH1 0x0 DUP1 DUP7 MLOAD GT PUSH2 0x1745 JUMPI PUSH1 0x40 MLOAD DUP1 PUSH1 0x20 ADD PUSH1 0x40 MSTORE DUP1 PUSH1 0x0 DUP2 MSTORE POP PUSH2 0x1792 JUMP JUMPDEST DUP6 PUSH1 0x11 DUP7 DUP2 SLOAD DUP2 LT PUSH2 0x1767 JUMPI PUSH4 0x4E487B71 PUSH1 0xE0 SHL PUSH1 0x0 MSTORE PUSH1 0x32 PUSH1 0x4 MSTORE PUSH1 0x24 PUSH1 0x0 REVERT JUMPDEST SWAP1 PUSH1 0x0 MSTORE PUSH1 0x20 PUSH1 0x0 KECCAK256 ADD PUSH1 0x40 MLOAD PUSH1 0x20 ADD PUSH2 0x1782 SWAP3 SWAP2 SWAP1 PUSH2 0x359E JUMP JUMPDEST PUSH1 0x40 MLOAD PUSH1 0x20 DUP2 DUP4 SUB SUB DUP2 MSTORE SWAP1 PUSH1 0x40 MSTORE JUMPDEST SWAP1 POP PUSH2 0x179E PUSH1 0x8 PUSH2 0x2972 JUMP JUMPDEST PUSH1 0x0 PUSH2 0x17AA PUSH1 0x8 PUSH2 0x2916 JUMP JUMPDEST SWAP1 POP PUSH2 0x17B6 CALLER DUP3 PUSH2 0x297B JUMP JUMPDEST CALLER PUSH1 0x9 DUP4 PUSH1 0x40 MLOAD PUSH2 0x17C7 SWAP2 SWAP1 PUSH2 0x3553 JUMP JUMPDEST SWAP1 DUP2 MSTORE PUSH1 0x40 MLOAD SWAP1 DUP2 SWAP1 SUB PUSH1 0x20 ADD DUP2 KECCAK256 DUP1 SLOAD PUSH1 0x1 PUSH1 0x1 PUSH1 0xA0 SHL SUB SWAP4 SWAP1 SWAP4 AND PUSH1 0x1 PUSH1 0x1 PUSH1 0xA0 SHL SUB NOT SWAP1 SWAP4 AND SWAP3 SWAP1 SWAP3 OR SWAP1 SWAP2 SSTORE DUP2 SWAP1 PUSH1 0x9 SWAP1 PUSH2 0x1807 SWAP1 DUP6 SWAP1 PUSH2 0x3553 JUMP JUMPDEST SWAP1 DUP2 MSTORE PUSH1 0x40 MLOAD SWAP1 DUP2 SWAP1 SUB PUSH1 0x20 ADD SWAP1 KECCAK256 PUSH1 0x1 ADD SSTORE PUSH2 0x1826 DUP5 PUSH2 0x16D PUSH2 0x412F JUMP JUMPDEST PUSH2 0x1833 SWAP1 PUSH3 0x15180 PUSH2 0x412F JUMP JUMPDEST PUSH2 0x183D SWAP1 TIMESTAMP PUSH2 0x4103 JUMP JUMPDEST PUSH1 0x9 DUP4 PUSH1 0x40 MLOAD PUSH2 0x184D SWAP2 SWAP1 PUSH2 0x3553 JUMP JUMPDEST SWAP1 DUP2 MSTORE PUSH1 0x20 ADD PUSH1 0x40 MLOAD DUP1 SWAP2 SUB SWAP1 KECCAK256 PUSH1 0x2 ADD DUP2 SWAP1 SSTORE POP PUSH1 0x0 PUSH1 0x9 DUP4 PUSH1 0x40 MLOAD PUSH2 0x1874 SWAP2 SWAP1 PUSH2 0x3553 JUMP JUMPDEST SWAP1 DUP2 MSTORE PUSH1 0x40 MLOAD SWAP1 DUP2 SWAP1 SUB PUSH1 0x20 ADD DUP2 KECCAK256 PUSH1 0x3 ADD DUP1 SLOAD SWAP3 ISZERO ISZERO PUSH1 0xFF NOT SWAP1 SWAP4 AND SWAP3 SWAP1 SWAP3 OR SWAP1 SWAP2 SSTORE PUSH1 0x0 SWAP1 PUSH1 0x9 SWAP1 PUSH2 0x18A9 SWAP1 DUP6 SWAP1 PUSH2 0x3553 JUMP JUMPDEST SWAP1 DUP2 MSTORE PUSH1 0x20 ADD PUSH1 0x40 MLOAD DUP1 SWAP2 SUB SWAP1 KECCAK256 PUSH1 0x4 ADD DUP2 SWAP1 SSTORE POP DUP5 PUSH1 0x9 DUP4 PUSH1 0x40 MLOAD PUSH2 0x18CF SWAP2 SWAP1 PUSH2 0x3553 JUMP JUMPDEST SWAP1 DUP2 MSTORE PUSH1 0x20 ADD PUSH1 0x40 MLOAD DUP1 SWAP2 SUB SWAP1 KECCAK256 PUSH1 0x5 ADD SWAP1 DUP1 MLOAD SWAP1 PUSH1 0x20 ADD SWAP1 PUSH2 0x18F3 SWAP3 SWAP2 SWAP1 PUSH2 0x2F88 JUMP JUMPDEST POP CALLER PUSH1 0x0 SWAP1 DUP2 MSTORE PUSH1 0xA PUSH1 0x20 SWAP1 DUP2 MSTORE PUSH1 0x40 DUP1 DUP4 KECCAK256 DUP1 SLOAD PUSH1 0x1 DUP2 ADD DUP3 SSTORE SWAP1 DUP5 MSTORE SWAP2 SWAP1 SWAP3 KECCAK256 ADD DUP3 SWAP1 SSTORE MLOAD PUSH2 0x1925 SWAP1 DUP4 SWAP1 PUSH2 0x3553 JUMP JUMPDEST PUSH1 0x40 MLOAD SWAP1 DUP2 SWAP1 SUB DUP2 KECCAK256 SWAP1 CALLER SWAP1 PUSH32 0xEE9BA7EBCA3C2C751338640C4CEAABE8E67CEC7238718D356B666F5B1AAC65C6 SWAP1 PUSH1 0x0 SWAP1 LOG3 SWAP7 SWAP6 POP POP POP POP POP POP JUMP JUMPDEST PUSH2 0x1972 PUSH2 0x196C PUSH2 0x26FA JUMP JUMPDEST DUP4 PUSH2 0x276C JUMP JUMPDEST PUSH2 0x198E JUMPI PUSH1 0x40 MLOAD PUSH3 0x461BCD PUSH1 0xE5 SHL DUP2 MSTORE PUSH1 0x4 ADD PUSH2 0x600 SWAP1 PUSH2 0x3F13 JUMP JUMPDEST PUSH2 0x199A DUP5 DUP5 DUP5 DUP5 PUSH2 0x2AF0 JUMP JUMPDEST POP POP POP POP JUMP JUMPDEST PUSH2 0x19A8 PUSH2 0x26FA JUMP JUMPDEST PUSH1 0x1 PUSH1 0x1 PUSH1 0xA0 SHL SUB AND PUSH2 0x19B9 PUSH2 0x107F JUMP JUMPDEST PUSH1 0x1 PUSH1 0x1 PUSH1 0xA0 SHL SUB AND EQ PUSH2 0x19DF JUMPI PUSH1 0x40 MLOAD PUSH3 0x461BCD PUSH1 0xE5 SHL DUP2 MSTORE PUSH1 0x4 ADD PUSH2 0x600 SWAP1 PUSH2 0x3DCE JUMP JUMPDEST PUSH2 0x19E7 PUSH2 0x1DD6 JUMP JUMPDEST TIMESTAMP GT PUSH2 0x1A05 JUMPI PUSH1 0x40 MLOAD PUSH3 0x461BCD PUSH1 0xE5 SHL DUP2 MSTORE PUSH1 0x4 ADD PUSH2 0x600 SWAP1 PUSH2 0x3C4C JUMP JUMPDEST PUSH2 0x1A0D PUSH2 0x15D0 JUMP JUMPDEST PUSH2 0x1A17 SWAP1 DUP3 PUSH2 0x412F JUMP JUMPDEST PUSH2 0x1A21 PUSH1 0x1 PUSH2 0x6BD JUMP JUMPDEST PUSH1 0x1 PUSH1 0x1 PUSH1 0xA0 SHL SUB AND PUSH4 0x70A08231 CALLER PUSH1 0x40 MLOAD DUP3 PUSH4 0xFFFFFFFF AND PUSH1 0xE0 SHL DUP2 MSTORE PUSH1 0x4 ADD PUSH2 0x1A4C SWAP2 SWAP1 PUSH2 0x35D1 JUMP JUMPDEST PUSH1 0x20 PUSH1 0x40 MLOAD DUP1 DUP4 SUB DUP2 DUP7 DUP1 EXTCODESIZE ISZERO DUP1 ISZERO PUSH2 0x1A64 JUMPI PUSH1 0x0 DUP1 REVERT JUMPDEST POP GAS STATICCALL ISZERO DUP1 ISZERO PUSH2 0x1A78 JUMPI RETURNDATASIZE PUSH1 0x0 DUP1 RETURNDATACOPY RETURNDATASIZE PUSH1 0x0 REVERT JUMPDEST POP POP POP POP PUSH1 0x40 MLOAD RETURNDATASIZE PUSH1 0x1F NOT PUSH1 0x1F DUP3 ADD AND DUP3 ADD DUP1 PUSH1 0x40 MSTORE POP DUP2 ADD SWAP1 PUSH2 0x1A9C SWAP2 SWAP1 PUSH2 0x3477 JUMP JUMPDEST LT ISZERO PUSH2 0x1ABA JUMPI PUSH1 0x40 MLOAD PUSH3 0x461BCD PUSH1 0xE5 SHL DUP2 MSTORE PUSH1 0x4 ADD PUSH2 0x600 SWAP1 PUSH2 0x3768 JUMP JUMPDEST PUSH1 0x0 DUP3 MLOAD GT PUSH2 0x1ADB JUMPI PUSH1 0x40 MLOAD PUSH3 0x461BCD PUSH1 0xE5 SHL DUP2 MSTORE PUSH1 0x4 ADD PUSH2 0x600 SWAP1 PUSH2 0x3E9B JUMP JUMPDEST PUSH1 0x1 DUP2 LT ISZERO DUP1 ISZERO PUSH2 0x1AED JUMPI POP PUSH1 0xA DUP2 GT ISZERO JUMPDEST PUSH2 0x1B09 JUMPI PUSH1 0x40 MLOAD PUSH3 0x461BCD PUSH1 0xE5 SHL DUP2 MSTORE PUSH1 0x4 ADD PUSH2 0x600 SWAP1 PUSH2 0x3D2F JUMP JUMPDEST PUSH2 0x1B15 CALLER PUSH2 0xF07 PUSH2 0x7EF JUMP JUMPDEST PUSH2 0x1B21 DUP2 PUSH2 0x16D PUSH2 0x412F JUMP JUMPDEST PUSH2 0x1B2E SWAP1 PUSH3 0x15180 PUSH2 0x412F JUMP JUMPDEST PUSH2 0x1B38 SWAP1 TIMESTAMP PUSH2 0x4103 JUMP JUMPDEST PUSH1 0x9 DUP4 PUSH1 0x40 MLOAD PUSH2 0x1B48 SWAP2 SWAP1 PUSH2 0x3553 JUMP JUMPDEST SWAP1 DUP2 MSTORE PUSH1 0x20 ADD PUSH1 0x40 MLOAD DUP1 SWAP2 SUB SWAP1 KECCAK256 PUSH1 0x2 ADD DUP2 SWAP1 SSTORE POP DUP1 DUP3 PUSH1 0x40 MLOAD PUSH2 0x1B6C SWAP2 SWAP1 PUSH2 0x3553 JUMP JUMPDEST PUSH1 0x40 MLOAD SWAP1 DUP2 SWAP1 SUB DUP2 KECCAK256 SWAP1 CALLER SWAP1 PUSH32 0x9DE62FFAFDF5B831A9BCF93CD86A5C9BEC2F8B567CD49266E210AEA0583F1CFA SWAP1 PUSH1 0x0 SWAP1 LOG4 POP POP JUMP JUMPDEST PUSH2 0x1BAA PUSH2 0x26FA JUMP JUMPDEST PUSH1 0x1 PUSH1 0x1 PUSH1 0xA0 SHL SUB AND PUSH2 0x1BBB PUSH2 0x107F JUMP JUMPDEST PUSH1 0x1 PUSH1 0x1 PUSH1 0xA0 SHL SUB AND EQ PUSH2 0x1BE1 JUMPI PUSH1 0x40 MLOAD PUSH3 0x461BCD PUSH1 0xE5 SHL DUP2 MSTORE PUSH1 0x4 ADD PUSH2 0x600 SWAP1 PUSH2 0x3DCE JUMP JUMPDEST PUSH1 0x12 DUP2 SWAP1 SSTORE PUSH1 0x40 MLOAD DUP2 SWAP1 CALLER SWAP1 PUSH32 0xFA687075F357BEE6C0210D4F4A22CD3D6D38AB2E3CA4C07B935D8B9BED10B7B0 SWAP1 PUSH1 0x0 SWAP1 LOG3 POP JUMP JUMPDEST PUSH1 0x60 PUSH2 0x1C21 DUP3 PUSH2 0x26DD JUMP JUMPDEST PUSH2 0x1C3D JUMPI PUSH1 0x40 MLOAD PUSH3 0x461BCD PUSH1 0xE5 SHL DUP2 MSTORE PUSH1 0x4 ADD PUSH2 0x600 SWAP1 PUSH2 0x3CDE JUMP JUMPDEST PUSH1 0x0 DUP3 DUP2 MSTORE PUSH1 0x6 PUSH1 0x20 MSTORE PUSH1 0x40 DUP2 KECCAK256 DUP1 SLOAD PUSH2 0x1C56 SWAP1 PUSH2 0x4191 JUMP JUMPDEST DUP1 PUSH1 0x1F ADD PUSH1 0x20 DUP1 SWAP2 DIV MUL PUSH1 0x20 ADD PUSH1 0x40 MLOAD SWAP1 DUP2 ADD PUSH1 0x40 MSTORE DUP1 SWAP3 SWAP2 SWAP1 DUP2 DUP2 MSTORE PUSH1 0x20 ADD DUP3 DUP1 SLOAD PUSH2 0x1C82 SWAP1 PUSH2 0x4191 JUMP JUMPDEST DUP1 ISZERO PUSH2 0x1CCF JUMPI DUP1 PUSH1 0x1F LT PUSH2 0x1CA4 JUMPI PUSH2 0x100 DUP1 DUP4 SLOAD DIV MUL DUP4 MSTORE SWAP2 PUSH1 0x20 ADD SWAP2 PUSH2 0x1CCF JUMP JUMPDEST DUP3 ADD SWAP2 SWAP1 PUSH1 0x0 MSTORE PUSH1 0x20 PUSH1 0x0 KECCAK256 SWAP1 JUMPDEST DUP2 SLOAD DUP2 MSTORE SWAP1 PUSH1 0x1 ADD SWAP1 PUSH1 0x20 ADD DUP1 DUP4 GT PUSH2 0x1CB2 JUMPI DUP3 SWAP1 SUB PUSH1 0x1F AND DUP3 ADD SWAP2 JUMPDEST POP POP POP POP POP SWAP1 POP PUSH1 0x0 PUSH2 0x1CE0 PUSH2 0x2B23 JUMP JUMPDEST SWAP1 POP DUP1 MLOAD PUSH1 0x0 EQ ISZERO PUSH2 0x1CF4 JUMPI POP SWAP1 POP PUSH2 0x542 JUMP JUMPDEST DUP2 MLOAD ISZERO PUSH2 0x1D26 JUMPI DUP1 DUP3 PUSH1 0x40 MLOAD PUSH1 0x20 ADD PUSH2 0x1D0E SWAP3 SWAP2 SWAP1 PUSH2 0x356F JUMP JUMPDEST PUSH1 0x40 MLOAD PUSH1 0x20 DUP2 DUP4 SUB SUB DUP2 MSTORE SWAP1 PUSH1 0x40 MSTORE SWAP3 POP POP POP PUSH2 0x542 JUMP JUMPDEST PUSH2 0xD19 DUP5 PUSH2 0x2B35 JUMP JUMPDEST PUSH1 0x0 PUSH1 0x2 DUP3 GT ISZERO PUSH2 0x1D52 JUMPI PUSH1 0x40 MLOAD PUSH3 0x461BCD PUSH1 0xE5 SHL DUP2 MSTORE PUSH1 0x4 ADD PUSH2 0x600 SWAP1 PUSH2 0x40BF JUMP JUMPDEST PUSH2 0x1D5B DUP3 PUSH2 0x6BD JUMP JUMPDEST PUSH1 0x1 PUSH1 0x1 PUSH1 0xA0 SHL SUB AND PUSH4 0x70A08231 ADDRESS PUSH1 0x40 MLOAD DUP3 PUSH4 0xFFFFFFFF AND PUSH1 0xE0 SHL DUP2 MSTORE PUSH1 0x4 ADD PUSH2 0x1D86 SWAP2 SWAP1 PUSH2 0x35D1 JUMP JUMPDEST PUSH1 0x20 PUSH1 0x40 MLOAD DUP1 DUP4 SUB DUP2 DUP7 DUP1 EXTCODESIZE ISZERO DUP1 ISZERO PUSH2 0x1D9E JUMPI PUSH1 0x0 DUP1 REVERT JUMPDEST POP GAS STATICCALL ISZERO DUP1 ISZERO PUSH2 0x1DB2 JUMPI RETURNDATASIZE PUSH1 0x0 DUP1 RETURNDATACOPY RETURNDATASIZE PUSH1 0x0 REVERT JUMPDEST POP POP POP POP PUSH1 0x40 MLOAD RETURNDATASIZE PUSH1 0x1F NOT PUSH1 0x1F DUP3 ADD AND DUP3 ADD DUP1 PUSH1 0x40 MSTORE POP DUP2 ADD SWAP1 PUSH2 0x53F SWAP2 SWAP1 PUSH2 0x3477 JUMP JUMPDEST PUSH1 0xC SLOAD SWAP1 JUMP JUMPDEST PUSH2 0x1DE4 PUSH2 0x1DD6 JUMP JUMPDEST TIMESTAMP GT PUSH2 0x1E02 JUMPI PUSH1 0x40 MLOAD PUSH3 0x461BCD PUSH1 0xE5 SHL DUP2 MSTORE PUSH1 0x4 ADD PUSH2 0x600 SWAP1 PUSH2 0x3F9B JUMP JUMPDEST PUSH1 0x0 DUP2 MLOAD GT PUSH2 0x1E23 JUMPI PUSH1 0x40 MLOAD PUSH3 0x461BCD PUSH1 0xE5 SHL DUP2 MSTORE PUSH1 0x4 ADD PUSH2 0x600 SWAP1 PUSH2 0x3708 JUMP JUMPDEST PUSH1 0x9 DUP2 PUSH1 0x40 MLOAD PUSH2 0x1E33 SWAP2 SWAP1 PUSH2 0x3553 JUMP JUMPDEST SWAP1 DUP2 MSTORE PUSH1 0x20 ADD PUSH1 0x40 MLOAD DUP1 SWAP2 SUB SWAP1 KECCAK256 PUSH1 0x4 ADD SLOAD PUSH2 0x1E4F PUSH1 0x2 PUSH2 0x6BD JUMP JUMPDEST PUSH1 0x1 PUSH1 0x1 PUSH1 0xA0 SHL SUB AND PUSH4 0x70A08231 CALLER PUSH1 0x40 MLOAD DUP3 PUSH4 0xFFFFFFFF AND PUSH1 0xE0 SHL DUP2 MSTORE PUSH1 0x4 ADD PUSH2 0x1E7A SWAP2 SWAP1 PUSH2 0x35D1 JUMP JUMPDEST PUSH1 0x20 PUSH1 0x40 MLOAD DUP1 DUP4 SUB DUP2 DUP7 DUP1 EXTCODESIZE ISZERO DUP1 ISZERO PUSH2 0x1E92 JUMPI PUSH1 0x0 DUP1 REVERT JUMPDEST POP GAS STATICCALL ISZERO DUP1 ISZERO PUSH2 0x1EA6 JUMPI RETURNDATASIZE PUSH1 0x0 DUP1 RETURNDATACOPY RETURNDATASIZE PUSH1 0x0 REVERT JUMPDEST POP POP POP POP PUSH1 0x40 MLOAD RETURNDATASIZE PUSH1 0x1F NOT PUSH1 0x1F DUP3 ADD AND DUP3 ADD DUP1 PUSH1 0x40 MSTORE POP DUP2 ADD SWAP1 PUSH2 0x1ECA SWAP2 SWAP1 PUSH2 0x3477 JUMP JUMPDEST LT ISZERO PUSH2 0x1EE8 JUMPI PUSH1 0x40 MLOAD PUSH3 0x461BCD PUSH1 0xE5 SHL DUP2 MSTORE PUSH1 0x4 ADD PUSH2 0x600 SWAP1 PUSH2 0x3768 JUMP JUMPDEST PUSH2 0x1F3C PUSH1 0x9 DUP3 PUSH1 0x40 MLOAD PUSH2 0x1EFB SWAP2 SWAP1 PUSH2 0x3553 JUMP JUMPDEST SWAP1 DUP2 MSTORE PUSH1 0x40 MLOAD SWAP1 DUP2 SWAP1 SUB PUSH1 0x20 ADD DUP2 KECCAK256 SLOAD PUSH1 0x1 PUSH1 0x1 PUSH1 0xA0 SHL SUB AND SWAP1 ADDRESS SWAP1 PUSH1 0x9 SWAP1 PUSH2 0x1F25 SWAP1 DUP7 SWAP1 PUSH2 0x3553 JUMP JUMPDEST SWAP1 DUP2 MSTORE PUSH1 0x20 ADD PUSH1 0x40 MLOAD DUP1 SWAP2 SUB SWAP1 KECCAK256 PUSH1 0x1 ADD SLOAD PUSH2 0x86A JUMP JUMPDEST PUSH2 0x1F6D CALLER ADDRESS PUSH1 0x9 DUP5 PUSH1 0x40 MLOAD PUSH2 0x1F51 SWAP2 SWAP1 PUSH2 0x3553 JUMP JUMPDEST SWAP1 DUP2 MSTORE PUSH1 0x20 ADD PUSH1 0x40 MLOAD DUP1 SWAP2 SUB SWAP1 KECCAK256 PUSH1 0x4 ADD SLOAD PUSH2 0xB30 PUSH1 0x2 PUSH2 0x6BD JUMP JUMPDEST PUSH2 0x1FEB ADDRESS PUSH1 0x9 DUP4 PUSH1 0x40 MLOAD PUSH2 0x1F81 SWAP2 SWAP1 PUSH2 0x3553 JUMP JUMPDEST SWAP1 DUP2 MSTORE PUSH1 0x40 MLOAD SWAP1 DUP2 SWAP1 SUB PUSH1 0x20 ADD DUP2 KECCAK256 SLOAD PUSH1 0x1 PUSH1 0x1 PUSH1 0xA0 SHL SUB AND SWAP1 PUSH1 0x64 SWAP1 PUSH1 0x9 SWAP1 PUSH2 0x1FAC SWAP1 DUP8 SWAP1 PUSH2 0x3553 JUMP JUMPDEST SWAP1 DUP2 MSTORE PUSH1 0x20 ADD PUSH1 0x40 MLOAD DUP1 SWAP2 SUB SWAP1 KECCAK256 PUSH1 0x4 ADD SLOAD PUSH1 0x12 SLOAD PUSH1 0x64 PUSH2 0x1FCD SWAP2 SWAP1 PUSH2 0x414E JUMP JUMPDEST PUSH2 0x1FD7 SWAP2 SWAP1 PUSH2 0x412F JUMP JUMPDEST PUSH2 0x1FE1 SWAP2 SWAP1 PUSH2 0x411B JUMP JUMPDEST PUSH2 0xB30 PUSH1 0x2 PUSH2 0x6BD JUMP JUMPDEST PUSH2 0x2000 ADDRESS CALLER PUSH1 0x9 DUP5 PUSH1 0x40 MLOAD PUSH2 0x1F25 SWAP2 SWAP1 PUSH2 0x3553 JUMP JUMPDEST PUSH1 0x0 PUSH1 0xA PUSH1 0x0 PUSH1 0x9 DUP5 PUSH1 0x40 MLOAD PUSH2 0x2016 SWAP2 SWAP1 PUSH2 0x3553 JUMP JUMPDEST SWAP1 DUP2 MSTORE PUSH1 0x40 DUP1 MLOAD PUSH1 0x20 SWAP3 DUP2 SWAP1 SUB DUP4 ADD SWAP1 KECCAK256 SLOAD PUSH1 0x1 PUSH1 0x1 PUSH1 0xA0 SHL SUB AND DUP4 MSTORE SWAP1 DUP3 ADD SWAP3 SWAP1 SWAP3 MSTORE ADD PUSH1 0x0 SWAP1 DUP2 KECCAK256 SLOAD SWAP2 POP DUP2 SWAP1 JUMPDEST PUSH1 0xA PUSH1 0x0 PUSH1 0x9 DUP7 PUSH1 0x40 MLOAD PUSH2 0x205A SWAP2 SWAP1 PUSH2 0x3553 JUMP JUMPDEST SWAP1 DUP2 MSTORE PUSH1 0x40 DUP1 MLOAD PUSH1 0x20 SWAP3 DUP2 SWAP1 SUB DUP4 ADD SWAP1 KECCAK256 SLOAD PUSH1 0x1 PUSH1 0x1 PUSH1 0xA0 SHL SUB AND DUP4 MSTORE SWAP1 DUP3 ADD SWAP3 SWAP1 SWAP3 MSTORE ADD PUSH1 0x0 KECCAK256 SLOAD DUP2 LT ISZERO PUSH2 0x2133 JUMPI PUSH1 0xA PUSH1 0x0 PUSH1 0x9 DUP7 PUSH1 0x40 MLOAD PUSH2 0x209E SWAP2 SWAP1 PUSH2 0x3553 JUMP JUMPDEST SWAP1 DUP2 MSTORE PUSH1 0x40 DUP1 MLOAD PUSH1 0x20 SWAP3 DUP2 SWAP1 SUB DUP4 ADD SWAP1 KECCAK256 SLOAD PUSH1 0x1 PUSH1 0x1 PUSH1 0xA0 SHL SUB AND DUP4 MSTORE SWAP1 DUP3 ADD SWAP3 SWAP1 SWAP3 MSTORE ADD PUSH1 0x0 KECCAK256 DUP1 SLOAD DUP3 SWAP1 DUP2 LT PUSH2 0x20E6 JUMPI PUSH4 0x4E487B71 PUSH1 0xE0 SHL PUSH1 0x0 MSTORE PUSH1 0x32 PUSH1 0x4 MSTORE PUSH1 0x24 PUSH1 0x0 REVERT JUMPDEST SWAP1 PUSH1 0x0 MSTORE PUSH1 0x20 PUSH1 0x0 KECCAK256 ADD SLOAD PUSH1 0x9 DUP6 PUSH1 0x40 MLOAD PUSH2 0x2101 SWAP2 SWAP1 PUSH2 0x3553 JUMP JUMPDEST SWAP1 DUP2 MSTORE PUSH1 0x20 ADD PUSH1 0x40 MLOAD DUP1 SWAP2 SUB SWAP1 KECCAK256 PUSH1 0x1 ADD SLOAD EQ ISZERO PUSH2 0x2121 JUMPI DUP1 SWAP2 POP PUSH2 0x2133 JUMP JUMPDEST DUP1 PUSH2 0x212B DUP2 PUSH2 0x41CC JUMP JUMPDEST SWAP2 POP POP PUSH2 0x2046 JUMP JUMPDEST POP DUP2 DUP2 LT ISZERO PUSH2 0x2286 JUMPI PUSH1 0xA PUSH1 0x0 PUSH1 0x9 DUP6 PUSH1 0x40 MLOAD PUSH2 0x2150 SWAP2 SWAP1 PUSH2 0x3553 JUMP JUMPDEST SWAP1 DUP2 MSTORE PUSH1 0x40 DUP1 MLOAD PUSH1 0x20 SWAP3 DUP2 SWAP1 SUB DUP4 ADD SWAP1 KECCAK256 SLOAD PUSH1 0x1 PUSH1 0x1 PUSH1 0xA0 SHL SUB AND DUP4 MSTORE SWAP1 DUP3 ADD SWAP3 SWAP1 SWAP3 MSTORE ADD PUSH1 0x0 KECCAK256 PUSH2 0x2183 PUSH1 0x1 DUP5 PUSH2 0x414E JUMP JUMPDEST DUP2 SLOAD DUP2 LT PUSH2 0x21A1 JUMPI PUSH4 0x4E487B71 PUSH1 0xE0 SHL PUSH1 0x0 MSTORE PUSH1 0x32 PUSH1 0x4 MSTORE PUSH1 0x24 PUSH1 0x0 REVERT JUMPDEST SWAP1 PUSH1 0x0 MSTORE PUSH1 0x20 PUSH1 0x0 KECCAK256 ADD SLOAD PUSH1 0xA PUSH1 0x0 PUSH1 0x9 DUP7 PUSH1 0x40 MLOAD PUSH2 0x21C0 SWAP2 SWAP1 PUSH2 0x3553 JUMP JUMPDEST SWAP1 DUP2 MSTORE PUSH1 0x40 DUP1 MLOAD PUSH1 0x20 SWAP3 DUP2 SWAP1 SUB DUP4 ADD SWAP1 KECCAK256 SLOAD PUSH1 0x1 PUSH1 0x1 PUSH1 0xA0 SHL SUB AND DUP4 MSTORE SWAP1 DUP3 ADD SWAP3 SWAP1 SWAP3 MSTORE ADD PUSH1 0x0 KECCAK256 DUP1 SLOAD DUP4 SWAP1 DUP2 LT PUSH2 0x2208 JUMPI PUSH4 0x4E487B71 PUSH1 0xE0 SHL PUSH1 0x0 MSTORE PUSH1 0x32 PUSH1 0x4 MSTORE PUSH1 0x24 PUSH1 0x0 REVERT JUMPDEST SWAP1 PUSH1 0x0 MSTORE PUSH1 0x20 PUSH1 0x0 KECCAK256 ADD DUP2 SWAP1 SSTORE POP PUSH1 0xA PUSH1 0x0 PUSH1 0x9 DUP6 PUSH1 0x40 MLOAD PUSH2 0x222A SWAP2 SWAP1 PUSH2 0x3553 JUMP JUMPDEST SWAP1 DUP2 MSTORE PUSH1 0x40 DUP1 MLOAD PUSH1 0x20 SWAP3 DUP2 SWAP1 SUB DUP4 ADD SWAP1 KECCAK256 SLOAD PUSH1 0x1 PUSH1 0x1 PUSH1 0xA0 SHL SUB AND DUP4 MSTORE SWAP1 DUP3 ADD SWAP3 SWAP1 SWAP3 MSTORE ADD PUSH1 0x0 KECCAK256 DUP1 SLOAD DUP1 PUSH2 0x226F JUMPI PUSH4 0x4E487B71 PUSH1 0xE0 SHL PUSH1 0x0 MSTORE PUSH1 0x31 PUSH1 0x4 MSTORE PUSH1 0x24 PUSH1 0x0 REVERT JUMPDEST PUSH1 0x1 SWAP1 SUB DUP2 DUP2 SWAP1 PUSH1 0x0 MSTORE PUSH1 0x20 PUSH1 0x0 KECCAK256 ADD PUSH1 0x0 SWAP1 SSTORE SWAP1 SSTORE JUMPDEST CALLER PUSH1 0x9 DUP5 PUSH1 0x40 MLOAD PUSH2 0x2297 SWAP2 SWAP1 PUSH2 0x3553 JUMP JUMPDEST SWAP1 DUP2 MSTORE PUSH1 0x40 MLOAD SWAP1 DUP2 SWAP1 SUB PUSH1 0x20 ADD DUP2 KECCAK256 DUP1 SLOAD PUSH1 0x1 PUSH1 0x1 PUSH1 0xA0 SHL SUB SWAP4 SWAP1 SWAP4 AND PUSH1 0x1 PUSH1 0x1 PUSH1 0xA0 SHL SUB NOT SWAP1 SWAP4 AND SWAP3 SWAP1 SWAP3 OR SWAP1 SWAP2 SSTORE PUSH1 0x0 SWAP1 PUSH1 0x9 SWAP1 PUSH2 0x22D8 SWAP1 DUP7 SWAP1 PUSH2 0x3553 JUMP JUMPDEST SWAP1 DUP2 MSTORE PUSH1 0x40 MLOAD SWAP1 DUP2 SWAP1 SUB PUSH1 0x20 ADD DUP2 KECCAK256 PUSH1 0x3 ADD DUP1 SLOAD SWAP3 ISZERO ISZERO PUSH1 0xFF NOT SWAP1 SWAP4 AND SWAP3 SWAP1 SWAP3 OR SWAP1 SWAP2 SSTORE PUSH1 0x0 SWAP1 PUSH1 0x9 SWAP1 PUSH2 0x230D SWAP1 DUP7 SWAP1 PUSH2 0x3553 JUMP JUMPDEST SWAP1 DUP2 MSTORE PUSH1 0x40 DUP1 MLOAD PUSH1 0x20 SWAP3 DUP2 SWAP1 SUB DUP4 ADD DUP2 KECCAK256 PUSH1 0x4 ADD SWAP4 SWAP1 SWAP4 SSTORE CALLER PUSH1 0x0 SWAP1 DUP2 MSTORE PUSH1 0xA SWAP1 SWAP3 MSTORE SWAP1 KECCAK256 SWAP1 PUSH1 0x9 SWAP1 PUSH2 0x2341 SWAP1 DUP7 SWAP1 PUSH2 0x3553 JUMP JUMPDEST SWAP1 DUP2 MSTORE PUSH1 0x40 MLOAD PUSH1 0x20 SWAP2 DUP2 SWAP1 SUB DUP3 ADD DUP2 KECCAK256 PUSH1 0x1 SWAP1 DUP2 ADD SLOAD DUP5 SLOAD SWAP2 DUP3 ADD DUP6 SSTORE PUSH1 0x0 SWAP5 DUP6 MSTORE SWAP3 SWAP1 SWAP4 KECCAK256 SWAP1 SWAP3 ADD SSTORE PUSH2 0x2376 SWAP1 DUP5 SWAP1 PUSH2 0x3553 JUMP JUMPDEST PUSH1 0x40 MLOAD SWAP1 DUP2 SWAP1 SUB DUP2 KECCAK256 SWAP1 CALLER SWAP1 PUSH32 0x1E16ED3FA80468F8486B2AD46C023B0B7AE24615D22FB0A5A471A18CC2663FA4 SWAP1 PUSH1 0x0 SWAP1 LOG3 POP POP POP JUMP JUMPDEST PUSH1 0x1 PUSH1 0x1 PUSH1 0xA0 SHL SUB SWAP2 DUP3 AND PUSH1 0x0 SWAP1 DUP2 MSTORE PUSH1 0x5 PUSH1 0x20 SWAP1 DUP2 MSTORE PUSH1 0x40 DUP1 DUP4 KECCAK256 SWAP4 SWAP1 SWAP5 AND DUP3 MSTORE SWAP2 SWAP1 SWAP2 MSTORE KECCAK256 SLOAD PUSH1 0xFF AND SWAP1 JUMP JUMPDEST PUSH2 0x23E3 PUSH2 0x26FA JUMP JUMPDEST PUSH1 0x1 PUSH1 0x1 PUSH1 0xA0 SHL SUB AND PUSH2 0x23F4 PUSH2 0x107F JUMP JUMPDEST PUSH1 0x1 PUSH1 0x1 PUSH1 0xA0 SHL SUB AND EQ PUSH2 0x241A JUMPI PUSH1 0x40 MLOAD PUSH3 0x461BCD PUSH1 0xE5 SHL DUP2 MSTORE PUSH1 0x4 ADD PUSH2 0x600 SWAP1 PUSH2 0x3DCE JUMP JUMPDEST PUSH1 0x1 PUSH1 0x1 PUSH1 0xA0 SHL SUB DUP2 AND PUSH2 0x2440 JUMPI PUSH1 0x40 MLOAD PUSH3 0x461BCD PUSH1 0xE5 SHL DUP2 MSTORE PUSH1 0x4 ADD PUSH2 0x600 SWAP1 PUSH2 0x380D JUMP JUMPDEST PUSH2 0x2449 DUP2 PUSH2 0x2A5A JUMP JUMPDEST POP JUMP JUMPDEST PUSH1 0x2 DUP2 GT ISZERO PUSH2 0x246D JUMPI PUSH1 0x40 MLOAD PUSH3 0x461BCD PUSH1 0xE5 SHL DUP2 MSTORE PUSH1 0x4 ADD PUSH2 0x600 SWAP1 PUSH2 0x40BF JUMP JUMPDEST PUSH1 0x0 PUSH2 0x2478 DUP3 PUSH2 0x6BD JUMP JUMPDEST PUSH1 0x1 PUSH1 0x1 PUSH1 0xA0 SHL SUB AND PUSH4 0x70A08231 ADDRESS PUSH1 0x40 MLOAD DUP3 PUSH4 0xFFFFFFFF AND PUSH1 0xE0 SHL DUP2 MSTORE PUSH1 0x4 ADD PUSH2 0x24A3 SWAP2 SWAP1 PUSH2 0x35D1 JUMP JUMPDEST PUSH1 0x20 PUSH1 0x40 MLOAD DUP1 DUP4 SUB DUP2 DUP7 DUP1 EXTCODESIZE ISZERO DUP1 ISZERO PUSH2 0x24BB JUMPI PUSH1 0x0 DUP1 REVERT JUMPDEST POP GAS STATICCALL ISZERO DUP1 ISZERO PUSH2 0x24CF JUMPI RETURNDATASIZE PUSH1 0x0 DUP1 RETURNDATACOPY RETURNDATASIZE PUSH1 0x0 REVERT JUMPDEST POP POP POP POP PUSH1 0x40 MLOAD RETURNDATASIZE PUSH1 0x1F NOT PUSH1 0x1F DUP3 ADD AND DUP3 ADD DUP1 PUSH1 0x40 MSTORE POP DUP2 ADD SWAP1 PUSH2 0x24F3 SWAP2 SWAP1 PUSH2 0x3477 JUMP JUMPDEST SWAP1 POP PUSH1 0x0 DUP2 GT PUSH2 0x2515 JUMPI PUSH1 0x40 MLOAD PUSH3 0x461BCD PUSH1 0xE5 SHL DUP2 MSTORE PUSH1 0x4 ADD PUSH2 0x600 SWAP1 PUSH2 0x38CE JUMP JUMPDEST PUSH2 0x252B ADDRESS PUSH2 0x2521 PUSH2 0x7EF JUMP JUMPDEST DUP4 PUSH2 0xB30 DUP7 PUSH2 0x6BD JUMP JUMPDEST DUP1 PUSH2 0x2534 PUSH2 0x7EF JUMP JUMPDEST PUSH1 0x1 PUSH1 0x1 PUSH1 0xA0 SHL SUB AND ADDRESS PUSH1 0x1 PUSH1 0x1 PUSH1 0xA0 SHL SUB AND PUSH32 0x73B4085607A6C9FCA1C3D2544335BC2CC164C57DEBCEDE3D0A05D79FB524C1DF PUSH1 0x40 MLOAD PUSH1 0x40 MLOAD DUP1 SWAP2 SUB SWAP1 LOG4 POP POP JUMP JUMPDEST PUSH2 0x257F PUSH2 0x26FA JUMP JUMPDEST PUSH1 0x1 PUSH1 0x1 PUSH1 0xA0 SHL SUB AND PUSH2 0x2590 PUSH2 0x107F JUMP JUMPDEST PUSH1 0x1 PUSH1 0x1 PUSH1 0xA0 SHL SUB AND EQ PUSH2 0x25B6 JUMPI PUSH1 0x40 MLOAD PUSH3 0x461BCD PUSH1 0xE5 SHL DUP2 MSTORE PUSH1 0x4 ADD PUSH2 0x600 SWAP1 PUSH2 0x3DCE JUMP JUMPDEST PUSH1 0xB DUP2 SWAP1 SSTORE PUSH1 0x40 MLOAD DUP2 SWAP1 CALLER SWAP1 PUSH32 0x663E40BF3EDF9E46F1132F481F812EE033807EA8F6A28E87D0E54688BC470D3A SWAP1 PUSH1 0x0 SWAP1 LOG3 POP JUMP JUMPDEST PUSH1 0x60 PUSH1 0x11 DUP1 SLOAD DUP1 PUSH1 0x20 MUL PUSH1 0x20 ADD PUSH1 0x40 MLOAD SWAP1 DUP2 ADD PUSH1 0x40 MSTORE DUP1 SWAP3 SWAP2 SWAP1 DUP2 DUP2 MSTORE PUSH1 0x20 ADD PUSH1 0x0 SWAP1 JUMPDEST DUP3 DUP3 LT ISZERO PUSH2 0x26BB JUMPI DUP4 DUP3 SWAP1 PUSH1 0x0 MSTORE PUSH1 0x20 PUSH1 0x0 KECCAK256 ADD DUP1 SLOAD PUSH2 0x262E SWAP1 PUSH2 0x4191 JUMP JUMPDEST DUP1 PUSH1 0x1F ADD PUSH1 0x20 DUP1 SWAP2 DIV MUL PUSH1 0x20 ADD PUSH1 0x40 MLOAD SWAP1 DUP2 ADD PUSH1 0x40 MSTORE DUP1 SWAP3 SWAP2 SWAP1 DUP2 DUP2 MSTORE PUSH1 0x20 ADD DUP3 DUP1 SLOAD PUSH2 0x265A SWAP1 PUSH2 0x4191 JUMP JUMPDEST DUP1 ISZERO PUSH2 0x26A7 JUMPI DUP1 PUSH1 0x1F LT PUSH2 0x267C JUMPI PUSH2 0x100 DUP1 DUP4 SLOAD DIV MUL DUP4 MSTORE SWAP2 PUSH1 0x20 ADD SWAP2 PUSH2 0x26A7 JUMP JUMPDEST DUP3 ADD SWAP2 SWAP1 PUSH1 0x0 MSTORE PUSH1 0x20 PUSH1 0x0 KECCAK256 SWAP1 JUMPDEST DUP2 SLOAD DUP2 MSTORE SWAP1 PUSH1 0x1 ADD SWAP1 PUSH1 0x20 ADD DUP1 DUP4 GT PUSH2 0x268A JUMPI DUP3 SWAP1 SUB PUSH1 0x1F AND DUP3 ADD SWAP2 JUMPDEST POP POP POP POP POP DUP2 MSTORE PUSH1 0x20 ADD SWAP1 PUSH1 0x1 ADD SWAP1 PUSH2 0x260F JUMP JUMPDEST POP POP POP POP SWAP1 POP SWAP1 JUMP JUMPDEST PUSH1 0x1 PUSH1 0x1 PUSH1 0xE0 SHL SUB NOT DUP2 AND PUSH4 0x1FFC9A7 PUSH1 0xE0 SHL EQ SWAP2 SWAP1 POP JUMP JUMPDEST PUSH1 0x0 SWAP1 DUP2 MSTORE PUSH1 0x2 PUSH1 0x20 MSTORE PUSH1 0x40 SWAP1 KECCAK256 SLOAD PUSH1 0x1 PUSH1 0x1 PUSH1 0xA0 SHL SUB AND ISZERO ISZERO SWAP1 JUMP JUMPDEST CALLER SWAP1 JUMP JUMPDEST PUSH1 0x0 DUP2 DUP2 MSTORE PUSH1 0x4 PUSH1 0x20 MSTORE PUSH1 0x40 SWAP1 KECCAK256 DUP1 SLOAD PUSH1 0x1 PUSH1 0x1 PUSH1 0xA0 SHL SUB NOT AND PUSH1 0x1 PUSH1 0x1 PUSH1 0xA0 SHL SUB DUP5 AND SWAP1 DUP2 OR SWAP1 SWAP2 SSTORE DUP2 SWAP1 PUSH2 0x2733 DUP3 PUSH2 0x921 JUMP JUMPDEST PUSH1 0x1 PUSH1 0x1 PUSH1 0xA0 SHL SUB AND PUSH32 0x8C5BE1E5EBEC7D5BD14F71427D1E84F3DD0314C0F7B2291E5B200AC8C7C3B925 PUSH1 0x40 MLOAD PUSH1 0x40 MLOAD DUP1 SWAP2 SUB SWAP1 LOG4 POP POP JUMP JUMPDEST PUSH1 0x0 PUSH2 0x2777 DUP3 PUSH2 0x26DD JUMP JUMPDEST PUSH2 0x2793 JUMPI PUSH1 0x40 MLOAD PUSH3 0x461BCD PUSH1 0xE5 SHL DUP2 MSTORE PUSH1 0x4 ADD PUSH2 0x600 SWAP1 PUSH2 0x3A37 JUMP JUMPDEST PUSH1 0x0 PUSH2 0x279E DUP4 PUSH2 0x921 JUMP JUMPDEST SWAP1 POP DUP1 PUSH1 0x1 PUSH1 0x1 PUSH1 0xA0 SHL SUB AND DUP5 PUSH1 0x1 PUSH1 0x1 PUSH1 0xA0 SHL SUB AND EQ DUP1 PUSH2 0x27D9 JUMPI POP DUP4 PUSH1 0x1 PUSH1 0x1 PUSH1 0xA0 SHL SUB AND PUSH2 0x27CE DUP5 PUSH2 0x5D9 JUMP JUMPDEST PUSH1 0x1 PUSH1 0x1 PUSH1 0xA0 SHL SUB AND EQ JUMPDEST DUP1 PUSH2 0xD19 JUMPI POP PUSH2 0xD19 DUP2 DUP6 PUSH2 0x23AD JUMP JUMPDEST DUP3 PUSH1 0x1 PUSH1 0x1 PUSH1 0xA0 SHL SUB AND PUSH2 0x27FC DUP3 PUSH2 0x921 JUMP JUMPDEST PUSH1 0x1 PUSH1 0x1 PUSH1 0xA0 SHL SUB AND EQ PUSH2 0x2822 JUMPI PUSH1 0x40 MLOAD PUSH3 0x461BCD PUSH1 0xE5 SHL DUP2 MSTORE PUSH1 0x4 ADD PUSH2 0x600 SWAP1 PUSH2 0x3E03 JUMP JUMPDEST PUSH1 0x1 PUSH1 0x1 PUSH1 0xA0 SHL SUB DUP3 AND PUSH2 0x2848 JUMPI PUSH1 0x40 MLOAD PUSH3 0x461BCD PUSH1 0xE5 SHL DUP2 MSTORE PUSH1 0x4 ADD PUSH2 0x600 SWAP1 PUSH2 0x388A JUMP JUMPDEST PUSH2 0x2853 DUP4 DUP4 DUP4 PUSH2 0x6B8 JUMP JUMPDEST PUSH2 0x285E PUSH1 0x0 DUP3 PUSH2 0x26FE JUMP JUMPDEST PUSH1 0x1 PUSH1 0x1 PUSH1 0xA0 SHL SUB DUP4 AND PUSH1 0x0 SWAP1 DUP2 MSTORE PUSH1 0x3 PUSH1 0x20 MSTORE PUSH1 0x40 DUP2 KECCAK256 DUP1 SLOAD PUSH1 0x1 SWAP3 SWAP1 PUSH2 0x2887 SWAP1 DUP5 SWAP1 PUSH2 0x414E JUMP JUMPDEST SWAP1 SWAP2 SSTORE POP POP PUSH1 0x1 PUSH1 0x1 PUSH1 0xA0 SHL SUB DUP3 AND PUSH1 0x0 SWAP1 DUP2 MSTORE PUSH1 0x3 PUSH1 0x20 MSTORE PUSH1 0x40 DUP2 KECCAK256 DUP1 SLOAD PUSH1 0x1 SWAP3 SWAP1 PUSH2 0x28B5 SWAP1 DUP5 SWAP1 PUSH2 0x4103 JUMP JUMPDEST SWAP1 SWAP2 SSTORE POP POP PUSH1 0x0 DUP2 DUP2 MSTORE PUSH1 0x2 PUSH1 0x20 MSTORE PUSH1 0x40 DUP1 DUP3 KECCAK256 DUP1 SLOAD PUSH1 0x1 PUSH1 0x1 PUSH1 0xA0 SHL SUB NOT AND PUSH1 0x1 PUSH1 0x1 PUSH1 0xA0 SHL SUB DUP7 DUP2 AND SWAP2 DUP3 OR SWAP1 SWAP3 SSTORE SWAP2 MLOAD DUP5 SWAP4 SWAP2 DUP8 AND SWAP2 PUSH32 0xDDF252AD1BE2C89B69C2B068FC378DAA952BA7F163C4A11628F55A4DF523B3EF SWAP2 LOG4 POP POP POP JUMP JUMPDEST SLOAD SWAP1 JUMP JUMPDEST PUSH2 0x199A DUP5 PUSH4 0x23B872DD PUSH1 0xE0 SHL DUP6 DUP6 DUP6 PUSH1 0x40 MLOAD PUSH1 0x24 ADD PUSH2 0x293B SWAP4 SWAP3 SWAP2 SWAP1 PUSH2 0x35E5 JUMP JUMPDEST PUSH1 0x40 DUP1 MLOAD PUSH1 0x1F NOT DUP2 DUP5 SUB ADD DUP2 MSTORE SWAP2 SWAP1 MSTORE PUSH1 0x20 DUP2 ADD DUP1 MLOAD PUSH1 0x1 PUSH1 0x1 PUSH1 0xE0 SHL SUB AND PUSH1 0x1 PUSH1 0x1 PUSH1 0xE0 SHL SUB NOT SWAP1 SWAP4 AND SWAP3 SWAP1 SWAP3 OR SWAP1 SWAP2 MSTORE PUSH2 0x2BB8 JUMP JUMPDEST DUP1 SLOAD PUSH1 0x1 ADD SWAP1 SSTORE JUMP JUMPDEST PUSH1 0x1 PUSH1 0x1 PUSH1 0xA0 SHL SUB DUP3 AND PUSH2 0x29A1 JUMPI PUSH1 0x40 MLOAD PUSH3 0x461BCD PUSH1 0xE5 SHL DUP2 MSTORE PUSH1 0x4 ADD PUSH2 0x600 SWAP1 PUSH2 0x3CA9 JUMP JUMPDEST PUSH2 0x29AA DUP2 PUSH2 0x26DD JUMP JUMPDEST ISZERO PUSH2 0x29C7 JUMPI PUSH1 0x40 MLOAD PUSH3 0x461BCD PUSH1 0xE5 SHL DUP2 MSTORE PUSH1 0x4 ADD PUSH2 0x600 SWAP1 PUSH2 0x3853 JUMP JUMPDEST PUSH2 0x29D3 PUSH1 0x0 DUP4 DUP4 PUSH2 0x6B8 JUMP JUMPDEST PUSH1 0x1 PUSH1 0x1 PUSH1 0xA0 SHL SUB DUP3 AND PUSH1 0x0 SWAP1 DUP2 MSTORE PUSH1 0x3 PUSH1 0x20 MSTORE PUSH1 0x40 DUP2 KECCAK256 DUP1 SLOAD PUSH1 0x1 SWAP3 SWAP1 PUSH2 0x29FC SWAP1 DUP5 SWAP1 PUSH2 0x4103 JUMP JUMPDEST SWAP1 SWAP2 SSTORE POP POP PUSH1 0x0 DUP2 DUP2 MSTORE PUSH1 0x2 PUSH1 0x20 MSTORE PUSH1 0x40 DUP1 DUP3 KECCAK256 DUP1 SLOAD PUSH1 0x1 PUSH1 0x1 PUSH1 0xA0 SHL SUB NOT AND PUSH1 0x1 PUSH1 0x1 PUSH1 0xA0 SHL SUB DUP7 AND SWAP1 DUP2 OR SWAP1 SWAP2 SSTORE SWAP1 MLOAD DUP4 SWAP3 SWAP1 PUSH32 0xDDF252AD1BE2C89B69C2B068FC378DAA952BA7F163C4A11628F55A4DF523B3EF SWAP1 DUP3 SWAP1 LOG4 POP POP JUMP JUMPDEST PUSH1 0x7 DUP1 SLOAD PUSH1 0x1 PUSH1 0x1 PUSH1 0xA0 SHL SUB DUP4 DUP2 AND PUSH1 0x1 PUSH1 0x1 PUSH1 0xA0 SHL SUB NOT DUP4 AND DUP2 OR SWAP1 SWAP4 SSTORE PUSH1 0x40 MLOAD SWAP2 AND SWAP2 SWAP1 DUP3 SWAP1 PUSH32 0x8BE0079C531659141344CD1FD0A4F28419497F9722A3DAAFE3B4186F6B6457E0 SWAP1 PUSH1 0x0 SWAP1 LOG3 POP POP JUMP JUMPDEST PUSH2 0x2AB5 DUP3 PUSH2 0x26DD JUMP JUMPDEST PUSH2 0x2AD1 JUMPI PUSH1 0x40 MLOAD PUSH3 0x461BCD PUSH1 0xE5 SHL DUP2 MSTORE PUSH1 0x4 ADD PUSH2 0x600 SWAP1 PUSH2 0x3BB6 JUMP JUMPDEST PUSH1 0x0 DUP3 DUP2 MSTORE PUSH1 0x6 PUSH1 0x20 SWAP1 DUP2 MSTORE PUSH1 0x40 SWAP1 SWAP2 KECCAK256 DUP3 MLOAD PUSH2 0x6B8 SWAP3 DUP5 ADD SWAP1 PUSH2 0x2F88 JUMP JUMPDEST PUSH2 0x2AFB DUP5 DUP5 DUP5 PUSH2 0x27E9 JUMP JUMPDEST PUSH2 0x2B07 DUP5 DUP5 DUP5 DUP5 PUSH2 0x2C47 JUMP JUMPDEST PUSH2 0x199A JUMPI PUSH1 0x40 MLOAD PUSH3 0x461BCD PUSH1 0xE5 SHL DUP2 MSTORE PUSH1 0x4 ADD PUSH2 0x600 SWAP1 PUSH2 0x37BB JUMP JUMPDEST PUSH1 0x40 DUP1 MLOAD PUSH1 0x20 DUP2 ADD SWAP1 SWAP2 MSTORE PUSH1 0x0 DUP2 MSTORE SWAP1 JUMP JUMPDEST PUSH1 0x60 PUSH2 0x2B40 DUP3 PUSH2 0x26DD JUMP JUMPDEST PUSH2 0x2B5C JUMPI PUSH1 0x40 MLOAD PUSH3 0x461BCD PUSH1 0xE5 SHL DUP2 MSTORE PUSH1 0x4 ADD PUSH2 0x600 SWAP1 PUSH2 0x3E4C JUMP JUMPDEST PUSH1 0x0 PUSH2 0x2B66 PUSH2 0x2B23 JUMP JUMPDEST SWAP1 POP PUSH1 0x0 DUP2 MLOAD GT PUSH2 0x2B86 JUMPI PUSH1 0x40 MLOAD DUP1 PUSH1 0x20 ADD PUSH1 0x40 MSTORE DUP1 PUSH1 0x0 DUP2 MSTORE POP PUSH2 0x2BB1 JUMP JUMPDEST DUP1 PUSH2 0x2B90 DUP5 PUSH2 0x2D5F JUMP JUMPDEST PUSH1 0x40 MLOAD PUSH1 0x20 ADD PUSH2 0x2BA1 SWAP3 SWAP2 SWAP1 PUSH2 0x356F JUMP JUMPDEST PUSH1 0x40 MLOAD PUSH1 0x20 DUP2 DUP4 SUB SUB DUP2 MSTORE SWAP1 PUSH1 0x40 MSTORE JUMPDEST SWAP4 SWAP3 POP POP POP JUMP JUMPDEST PUSH1 0x0 PUSH2 0x2C0D DUP3 PUSH1 0x40 MLOAD DUP1 PUSH1 0x40 ADD PUSH1 0x40 MSTORE DUP1 PUSH1 0x20 DUP2 MSTORE PUSH1 0x20 ADD PUSH32 0x5361666545524332303A206C6F772D6C6576656C2063616C6C206661696C6564 DUP2 MSTORE POP DUP6 PUSH1 0x1 PUSH1 0x1 PUSH1 0xA0 SHL SUB AND PUSH2 0x2E7A SWAP1 SWAP3 SWAP2 SWAP1 PUSH4 0xFFFFFFFF AND JUMP JUMPDEST DUP1 MLOAD SWAP1 SWAP2 POP ISZERO PUSH2 0x6B8 JUMPI DUP1 DUP1 PUSH1 0x20 ADD SWAP1 MLOAD DUP2 ADD SWAP1 PUSH2 0x2C2B SWAP2 SWAP1 PUSH2 0x3294 JUMP JUMPDEST PUSH2 0x6B8 JUMPI PUSH1 0x40 MLOAD PUSH3 0x461BCD PUSH1 0xE5 SHL DUP2 MSTORE PUSH1 0x4 ADD PUSH2 0x600 SWAP1 PUSH2 0x3FF8 JUMP JUMPDEST PUSH1 0x0 PUSH2 0x2C5B DUP5 PUSH1 0x1 PUSH1 0x1 PUSH1 0xA0 SHL SUB AND PUSH2 0x2E89 JUMP JUMPDEST ISZERO PUSH2 0x2D57 JUMPI DUP4 PUSH1 0x1 PUSH1 0x1 PUSH1 0xA0 SHL SUB AND PUSH4 0x150B7A02 PUSH2 0x2C77 PUSH2 0x26FA JUMP JUMPDEST DUP8 DUP7 DUP7 PUSH1 0x40 MLOAD DUP6 PUSH4 0xFFFFFFFF AND PUSH1 0xE0 SHL DUP2 MSTORE PUSH1 0x4 ADD PUSH2 0x2C99 SWAP5 SWAP4 SWAP3 SWAP2 SWAP1 PUSH2 0x3609 JUMP JUMPDEST PUSH1 0x20 PUSH1 0x40 MLOAD DUP1 DUP4 SUB DUP2 PUSH1 0x0 DUP8 DUP1 EXTCODESIZE ISZERO DUP1 ISZERO PUSH2 0x2CB3 JUMPI PUSH1 0x0 DUP1 REVERT JUMPDEST POP GAS CALL SWAP3 POP POP POP DUP1 ISZERO PUSH2 0x2CE3 JUMPI POP PUSH1 0x40 DUP1 MLOAD PUSH1 0x1F RETURNDATASIZE SWAP1 DUP2 ADD PUSH1 0x1F NOT AND DUP3 ADD SWAP1 SWAP3 MSTORE PUSH2 0x2CE0 SWAP2 DUP2 ADD SWAP1 PUSH2 0x32CC JUMP JUMPDEST PUSH1 0x1 JUMPDEST PUSH2 0x2D3D JUMPI RETURNDATASIZE DUP1 DUP1 ISZERO PUSH2 0x2D11 JUMPI PUSH1 0x40 MLOAD SWAP2 POP PUSH1 0x1F NOT PUSH1 0x3F RETURNDATASIZE ADD AND DUP3 ADD PUSH1 0x40 MSTORE RETURNDATASIZE DUP3 MSTORE RETURNDATASIZE PUSH1 0x0 PUSH1 0x20 DUP5 ADD RETURNDATACOPY PUSH2 0x2D16 JUMP JUMPDEST PUSH1 0x60 SWAP2 POP JUMPDEST POP DUP1 MLOAD PUSH2 0x2D35 JUMPI PUSH1 0x40 MLOAD PUSH3 0x461BCD PUSH1 0xE5 SHL DUP2 MSTORE PUSH1 0x4 ADD PUSH2 0x600 SWAP1 PUSH2 0x37BB JUMP JUMPDEST DUP1 MLOAD DUP2 PUSH1 0x20 ADD REVERT JUMPDEST PUSH1 0x1 PUSH1 0x1 PUSH1 0xE0 SHL SUB NOT AND PUSH4 0xA85BD01 PUSH1 0xE1 SHL EQ SWAP1 POP PUSH2 0xD19 JUMP JUMPDEST POP PUSH1 0x1 PUSH2 0xD19 JUMP JUMPDEST PUSH1 0x60 DUP2 PUSH2 0x2D84 JUMPI POP PUSH1 0x40 DUP1 MLOAD DUP1 DUP3 ADD SWAP1 SWAP2 MSTORE PUSH1 0x1 DUP2 MSTORE PUSH1 0x3 PUSH1 0xFC SHL PUSH1 0x20 DUP3 ADD MSTORE PUSH2 0x542 JUMP JUMPDEST DUP2 PUSH1 0x0 JUMPDEST DUP2 ISZERO PUSH2 0x2DAE JUMPI DUP1 PUSH2 0x2D98 DUP2 PUSH2 0x41CC JUMP JUMPDEST SWAP2 POP PUSH2 0x2DA7 SWAP1 POP PUSH1 0xA DUP4 PUSH2 0x411B JUMP JUMPDEST SWAP2 POP PUSH2 0x2D88 JUMP JUMPDEST PUSH1 0x0 DUP2 PUSH8 0xFFFFFFFFFFFFFFFF DUP2 GT ISZERO PUSH2 0x2DD7 JUMPI PUSH4 0x4E487B71 PUSH1 0xE0 SHL PUSH1 0x0 MSTORE PUSH1 0x41 PUSH1 0x4 MSTORE PUSH1 0x24 PUSH1 0x0 REVERT JUMPDEST PUSH1 0x40 MLOAD SWAP1 DUP1 DUP3 MSTORE DUP1 PUSH1 0x1F ADD PUSH1 0x1F NOT AND PUSH1 0x20 ADD DUP3 ADD PUSH1 0x40 MSTORE DUP1 ISZERO PUSH2 0x2E01 JUMPI PUSH1 0x20 DUP3 ADD DUP2 DUP1 CALLDATASIZE DUP4 CALLDATACOPY ADD SWAP1 POP JUMPDEST POP SWAP1 POP JUMPDEST DUP5 ISZERO PUSH2 0xD19 JUMPI PUSH2 0x2E16 PUSH1 0x1 DUP4 PUSH2 0x414E JUMP JUMPDEST SWAP2 POP PUSH2 0x2E23 PUSH1 0xA DUP7 PUSH2 0x41E7 JUMP JUMPDEST PUSH2 0x2E2E SWAP1 PUSH1 0x30 PUSH2 0x4103 JUMP JUMPDEST PUSH1 0xF8 SHL DUP2 DUP4 DUP2 MLOAD DUP2 LT PUSH2 0x2E51 JUMPI PUSH4 0x4E487B71 PUSH1 0xE0 SHL PUSH1 0x0 MSTORE PUSH1 0x32 PUSH1 0x4 MSTORE PUSH1 0x24 PUSH1 0x0 REVERT JUMPDEST PUSH1 0x20 ADD ADD SWAP1 PUSH1 0x1 PUSH1 0x1 PUSH1 0xF8 SHL SUB NOT AND SWAP1 DUP2 PUSH1 0x0 BYTE SWAP1 MSTORE8 POP PUSH2 0x2E73 PUSH1 0xA DUP7 PUSH2 0x411B JUMP JUMPDEST SWAP5 POP PUSH2 0x2E05 JUMP JUMPDEST PUSH1 0x60 PUSH2 0xD19 DUP5 DUP5 PUSH1 0x0 DUP6 PUSH2 0x2E8F JUMP JUMPDEST EXTCODESIZE ISZERO ISZERO SWAP1 JUMP JUMPDEST PUSH1 0x60 DUP3 SELFBALANCE LT ISZERO PUSH2 0x2EB1 JUMPI PUSH1 0x40 MLOAD PUSH3 0x461BCD PUSH1 0xE5 SHL DUP2 MSTORE PUSH1 0x4 ADD PUSH2 0x600 SWAP1 PUSH2 0x39F1 JUMP JUMPDEST PUSH2 0x2EBA DUP6 PUSH2 0x2E89 JUMP JUMPDEST PUSH2 0x2ED6 JUMPI PUSH1 0x40 MLOAD PUSH3 0x461BCD PUSH1 0xE5 SHL DUP2 MSTORE PUSH1 0x4 ADD PUSH2 0x600 SWAP1 PUSH2 0x3F64 JUMP JUMPDEST PUSH1 0x0 DUP1 DUP7 PUSH1 0x1 PUSH1 0x1 PUSH1 0xA0 SHL SUB AND DUP6 DUP8 PUSH1 0x40 MLOAD PUSH2 0x2EF2 SWAP2 SWAP1 PUSH2 0x3553 JUMP JUMPDEST PUSH1 0x0 PUSH1 0x40 MLOAD DUP1 DUP4 SUB DUP2 DUP6 DUP8 GAS CALL SWAP3 POP POP POP RETURNDATASIZE DUP1 PUSH1 0x0 DUP2 EQ PUSH2 0x2F2F JUMPI PUSH1 0x40 MLOAD SWAP2 POP PUSH1 0x1F NOT PUSH1 0x3F RETURNDATASIZE ADD AND DUP3 ADD PUSH1 0x40 MSTORE RETURNDATASIZE DUP3 MSTORE RETURNDATASIZE PUSH1 0x0 PUSH1 0x20 DUP5 ADD RETURNDATACOPY PUSH2 0x2F34 JUMP JUMPDEST PUSH1 0x60 SWAP2 POP JUMPDEST POP SWAP2 POP SWAP2 POP PUSH2 0x2F44 DUP3 DUP3 DUP7 PUSH2 0x2F4F JUMP JUMPDEST SWAP8 SWAP7 POP POP POP POP POP POP POP JUMP JUMPDEST PUSH1 0x60 DUP4 ISZERO PUSH2 0x2F5E JUMPI POP DUP2 PUSH2 0x2BB1 JUMP JUMPDEST DUP3 MLOAD ISZERO PUSH2 0x2F6E JUMPI DUP3 MLOAD DUP1 DUP5 PUSH1 0x20 ADD REVERT JUMPDEST DUP2 PUSH1 0x40 MLOAD PUSH3 0x461BCD PUSH1 0xE5 SHL DUP2 MSTORE PUSH1 0x4 ADD PUSH2 0x600 SWAP2 SWAP1 PUSH2 0x36F5 JUMP JUMPDEST DUP3 DUP1 SLOAD PUSH2 0x2F94 SWAP1 PUSH2 0x4191 JUMP JUMPDEST SWAP1 PUSH1 0x0 MSTORE PUSH1 0x20 PUSH1 0x0 KECCAK256 SWAP1 PUSH1 0x1F ADD PUSH1 0x20 SWAP1 DIV DUP2 ADD SWAP3 DUP3 PUSH2 0x2FB6 JUMPI PUSH1 0x0 DUP6 SSTORE PUSH2 0x2FFC JUMP JUMPDEST DUP3 PUSH1 0x1F LT PUSH2 0x2FCF JUMPI DUP1 MLOAD PUSH1 0xFF NOT AND DUP4 DUP1 ADD OR DUP6 SSTORE PUSH2 0x2FFC JUMP JUMPDEST DUP3 DUP1 ADD PUSH1 0x1 ADD DUP6 SSTORE DUP3 ISZERO PUSH2 0x2FFC JUMPI SWAP2 DUP3 ADD JUMPDEST DUP3 DUP2 GT ISZERO PUSH2 0x2FFC JUMPI DUP3 MLOAD DUP3 SSTORE SWAP2 PUSH1 0x20 ADD SWAP2 SWAP1 PUSH1 0x1 ADD SWAP1 PUSH2 0x2FE1 JUMP JUMPDEST POP PUSH2 0x3008 SWAP3 SWAP2 POP PUSH2 0x300C JUMP JUMPDEST POP SWAP1 JUMP JUMPDEST JUMPDEST DUP1 DUP3 GT ISZERO PUSH2 0x3008 JUMPI PUSH1 0x0 DUP2 SSTORE PUSH1 0x1 ADD PUSH2 0x300D JUMP JUMPDEST PUSH1 0x0 PUSH8 0xFFFFFFFFFFFFFFFF DUP1 DUP5 GT ISZERO PUSH2 0x303C JUMPI PUSH2 0x303C PUSH2 0x4227 JUMP JUMPDEST PUSH1 0x40 MLOAD PUSH1 0x1F DUP6 ADD PUSH1 0x1F NOT AND DUP2 ADD PUSH1 0x20 ADD DUP3 DUP2 GT DUP3 DUP3 LT OR ISZERO PUSH2 0x3060 JUMPI PUSH2 0x3060 PUSH2 0x4227 JUMP JUMPDEST PUSH1 0x40 MSTORE DUP5 DUP2 MSTORE SWAP2 POP DUP2 DUP4 DUP6 ADD DUP7 LT ISZERO PUSH2 0x3078 JUMPI PUSH1 0x0 DUP1 REVERT JUMPDEST DUP5 DUP5 PUSH1 0x20 DUP4 ADD CALLDATACOPY PUSH1 0x0 PUSH1 0x20 DUP7 DUP4 ADD ADD MSTORE POP POP SWAP4 SWAP3 POP POP POP JUMP JUMPDEST PUSH1 0x0 DUP3 PUSH1 0x1F DUP4 ADD SLT PUSH2 0x30A1 JUMPI DUP1 DUP2 REVERT JUMPDEST PUSH2 0x2BB1 DUP4 DUP4 CALLDATALOAD PUSH1 0x20 DUP6 ADD PUSH2 0x3021 JUMP JUMPDEST PUSH1 0x0 PUSH1 0x20 DUP3 DUP5 SUB SLT ISZERO PUSH2 0x30C1 JUMPI DUP1 DUP2 REVERT JUMPDEST DUP2 CALLDATALOAD PUSH2 0x2BB1 DUP2 PUSH2 0x423D JUMP JUMPDEST PUSH1 0x0 DUP1 PUSH1 0x40 DUP4 DUP6 SUB SLT ISZERO PUSH2 0x30DE JUMPI DUP1 DUP2 REVERT JUMPDEST DUP3 CALLDATALOAD PUSH2 0x30E9 DUP2 PUSH2 0x423D JUMP JUMPDEST SWAP2 POP PUSH1 0x20 DUP4 ADD CALLDATALOAD PUSH2 0x30F9 DUP2 PUSH2 0x423D JUMP JUMPDEST DUP1 SWAP2 POP POP SWAP3 POP SWAP3 SWAP1 POP JUMP JUMPDEST PUSH1 0x0 DUP1 PUSH1 0x0 PUSH1 0x60 DUP5 DUP7 SUB SLT ISZERO PUSH2 0x3118 JUMPI DUP1 DUP2 REVERT JUMPDEST DUP4 CALLDATALOAD PUSH2 0x3123 DUP2 PUSH2 0x423D JUMP JUMPDEST SWAP3 POP PUSH1 0x20 DUP5 ADD CALLDATALOAD PUSH2 0x3133 DUP2 PUSH2 0x423D JUMP JUMPDEST SWAP3 SWAP6 SWAP3 SWAP5 POP POP POP PUSH1 0x40 SWAP2 SWAP1 SWAP2 ADD CALLDATALOAD SWAP1 JUMP JUMPDEST PUSH1 0x0 DUP1 PUSH1 0x0 DUP1 PUSH1 0x80 DUP6 DUP8 SUB SLT ISZERO PUSH2 0x3159 JUMPI DUP1 DUP2 REVERT JUMPDEST DUP5 CALLDATALOAD PUSH2 0x3164 DUP2 PUSH2 0x423D JUMP JUMPDEST SWAP4 POP PUSH1 0x20 DUP6 ADD CALLDATALOAD PUSH2 0x3174 DUP2 PUSH2 0x423D JUMP JUMPDEST SWAP3 POP PUSH1 0x40 DUP6 ADD CALLDATALOAD SWAP2 POP PUSH1 0x60 DUP6 ADD CALLDATALOAD PUSH8 0xFFFFFFFFFFFFFFFF DUP2 GT ISZERO PUSH2 0x3196 JUMPI DUP2 DUP3 REVERT JUMPDEST DUP6 ADD PUSH1 0x1F DUP2 ADD DUP8 SGT PUSH2 0x31A6 JUMPI DUP2 DUP3 REVERT JUMPDEST PUSH2 0x31B5 DUP8 DUP3 CALLDATALOAD PUSH1 0x20 DUP5 ADD PUSH2 0x3021 JUMP JUMPDEST SWAP2 POP POP SWAP3 SWAP6 SWAP2 SWAP5 POP SWAP3 POP JUMP JUMPDEST PUSH1 0x0 DUP1 PUSH1 0x40 DUP4 DUP6 SUB SLT ISZERO PUSH2 0x31D3 JUMPI DUP2 DUP3 REVERT JUMPDEST DUP3 CALLDATALOAD PUSH2 0x31DE DUP2 PUSH2 0x423D JUMP JUMPDEST SWAP2 POP PUSH1 0x20 DUP4 ADD CALLDATALOAD PUSH2 0x30F9 DUP2 PUSH2 0x4252 JUMP JUMPDEST PUSH1 0x0 DUP1 PUSH1 0x0 DUP1 PUSH1 0x80 DUP6 DUP8 SUB SLT ISZERO PUSH2 0x3203 JUMPI DUP4 DUP5 REVERT JUMPDEST DUP5 CALLDATALOAD PUSH2 0x320E DUP2 PUSH2 0x423D JUMP JUMPDEST SWAP4 POP PUSH1 0x20 DUP6 ADD CALLDATALOAD PUSH8 0xFFFFFFFFFFFFFFFF DUP1 DUP3 GT ISZERO PUSH2 0x322A JUMPI DUP5 DUP6 REVERT JUMPDEST PUSH2 0x3236 DUP9 DUP4 DUP10 ADD PUSH2 0x3091 JUMP JUMPDEST SWAP5 POP PUSH1 0x40 DUP8 ADD CALLDATALOAD SWAP2 POP DUP1 DUP3 GT ISZERO PUSH2 0x324B JUMPI DUP4 DUP5 REVERT JUMPDEST POP PUSH2 0x3258 DUP8 DUP3 DUP9 ADD PUSH2 0x3091 JUMP JUMPDEST SWAP5 SWAP8 SWAP4 SWAP7 POP SWAP4 SWAP5 PUSH1 0x60 ADD CALLDATALOAD SWAP4 POP POP POP JUMP JUMPDEST PUSH1 0x0 DUP1 PUSH1 0x40 DUP4 DUP6 SUB SLT ISZERO PUSH2 0x327B JUMPI DUP2 DUP3 REVERT JUMPDEST DUP3 CALLDATALOAD PUSH2 0x3286 DUP2 PUSH2 0x423D JUMP JUMPDEST SWAP5 PUSH1 0x20 SWAP4 SWAP1 SWAP4 ADD CALLDATALOAD SWAP4 POP POP POP JUMP JUMPDEST PUSH1 0x0 PUSH1 0x20 DUP3 DUP5 SUB SLT ISZERO PUSH2 0x32A5 JUMPI DUP1 DUP2 REVERT JUMPDEST DUP2 MLOAD PUSH2 0x2BB1 DUP2 PUSH2 0x4252 JUMP JUMPDEST PUSH1 0x0 PUSH1 0x20 DUP3 DUP5 SUB SLT ISZERO PUSH2 0x32C1 JUMPI DUP1 DUP2 REVERT JUMPDEST DUP2 CALLDATALOAD PUSH2 0x2BB1 DUP2 PUSH2 0x4260 JUMP JUMPDEST PUSH1 0x0 PUSH1 0x20 DUP3 DUP5 SUB SLT ISZERO PUSH2 0x32DD JUMPI DUP1 DUP2 REVERT JUMPDEST DUP2 MLOAD PUSH2 0x2BB1 DUP2 PUSH2 0x4260 JUMP JUMPDEST PUSH1 0x0 PUSH1 0x20 DUP3 DUP5 SUB SLT ISZERO PUSH2 0x32F9 JUMPI DUP1 DUP2 REVERT JUMPDEST DUP2 CALLDATALOAD PUSH8 0xFFFFFFFFFFFFFFFF DUP2 GT ISZERO PUSH2 0x330F JUMPI DUP2 DUP3 REVERT JUMPDEST PUSH2 0xD19 DUP5 DUP3 DUP6 ADD PUSH2 0x3091 JUMP JUMPDEST PUSH1 0x0 DUP1 PUSH1 0x40 DUP4 DUP6 SUB SLT ISZERO PUSH2 0x332D JUMPI DUP2 DUP3 REVERT JUMPDEST DUP3 CALLDATALOAD PUSH8 0xFFFFFFFFFFFFFFFF DUP1 DUP3 GT ISZERO PUSH2 0x3344 JUMPI DUP4 DUP5 REVERT JUMPDEST PUSH2 0x3350 DUP7 DUP4 DUP8 ADD PUSH2 0x3091 JUMP JUMPDEST SWAP4 POP PUSH1 0x20 DUP6 ADD CALLDATALOAD SWAP2 POP DUP1 DUP3 GT ISZERO PUSH2 0x3365 JUMPI DUP3 DUP4 REVERT JUMPDEST POP PUSH2 0x3372 DUP6 DUP3 DUP7 ADD PUSH2 0x3091 JUMP JUMPDEST SWAP2 POP POP SWAP3 POP SWAP3 SWAP1 POP JUMP JUMPDEST PUSH1 0x0 DUP1 PUSH1 0x40 DUP4 DUP6 SUB SLT ISZERO PUSH2 0x338E JUMPI DUP2 DUP3 REVERT JUMPDEST DUP3 CALLDATALOAD PUSH8 0xFFFFFFFFFFFFFFFF DUP2 GT ISZERO PUSH2 0x33A4 JUMPI DUP3 DUP4 REVERT JUMPDEST PUSH2 0x33B0 DUP6 DUP3 DUP7 ADD PUSH2 0x3091 JUMP JUMPDEST SWAP6 PUSH1 0x20 SWAP5 SWAP1 SWAP5 ADD CALLDATALOAD SWAP5 POP POP POP POP JUMP JUMPDEST PUSH1 0x0 DUP1 PUSH1 0x0 DUP1 PUSH1 0x80 DUP6 DUP8 SUB SLT ISZERO PUSH2 0x33D4 JUMPI DUP2 DUP3 REVERT JUMPDEST DUP5 CALLDATALOAD PUSH8 0xFFFFFFFFFFFFFFFF DUP1 DUP3 GT ISZERO PUSH2 0x33EB JUMPI DUP4 DUP5 REVERT JUMPDEST PUSH2 0x33F7 DUP9 DUP4 DUP10 ADD PUSH2 0x3091 JUMP JUMPDEST SWAP6 POP PUSH1 0x20 DUP8 ADD CALLDATALOAD SWAP5 POP PUSH1 0x40 DUP8 ADD CALLDATALOAD SWAP2 POP DUP1 DUP3 GT ISZERO PUSH2 0x324B JUMPI DUP4 DUP5 REVERT JUMPDEST PUSH1 0x0 DUP1 PUSH1 0x0 PUSH1 0x60 DUP5 DUP7 SUB SLT ISZERO PUSH2 0x3427 JUMPI DUP1 DUP2 REVERT JUMPDEST DUP4 CALLDATALOAD PUSH8 0xFFFFFFFFFFFFFFFF DUP2 GT ISZERO PUSH2 0x343D JUMPI DUP2 DUP3 REVERT JUMPDEST PUSH2 0x3449 DUP7 DUP3 DUP8 ADD PUSH2 0x3091 JUMP JUMPDEST SWAP7 PUSH1 0x20 DUP7 ADD CALLDATALOAD SWAP7 POP PUSH1 0x40 SWAP1 SWAP6 ADD CALLDATALOAD SWAP5 SWAP4 POP POP POP POP JUMP JUMPDEST PUSH1 0x0 PUSH1 0x20 DUP3 DUP5 SUB SLT ISZERO PUSH2 0x3470 JUMPI DUP1 DUP2 REVERT JUMPDEST POP CALLDATALOAD SWAP2 SWAP1 POP JUMP JUMPDEST PUSH1 0x0 PUSH1 0x20 DUP3 DUP5 SUB SLT ISZERO PUSH2 0x3488 JUMPI DUP1 DUP2 REVERT JUMPDEST POP MLOAD SWAP2 SWAP1 POP JUMP JUMPDEST PUSH1 0x0 DUP2 MLOAD DUP1 DUP5 MSTORE PUSH2 0x34A7 DUP2 PUSH1 0x20 DUP7 ADD PUSH1 0x20 DUP7 ADD PUSH2 0x4165 JUMP JUMPDEST PUSH1 0x1F ADD PUSH1 0x1F NOT AND SWAP3 SWAP1 SWAP3 ADD PUSH1 0x20 ADD SWAP3 SWAP2 POP POP JUMP JUMPDEST DUP1 SLOAD PUSH1 0x0 SWAP1 PUSH1 0x2 DUP2 DIV PUSH1 0x1 DUP1 DUP4 AND DUP1 PUSH2 0x34D5 JUMPI PUSH1 0x7F DUP4 AND SWAP3 POP JUMPDEST PUSH1 0x20 DUP1 DUP5 LT DUP3 EQ ISZERO PUSH2 0x34F5 JUMPI PUSH4 0x4E487B71 PUSH1 0xE0 SHL DUP7 MSTORE PUSH1 0x22 PUSH1 0x4 MSTORE PUSH1 0x24 DUP7 REVERT JUMPDEST DUP2 DUP1 ISZERO PUSH2 0x3509 JUMPI PUSH1 0x1 DUP2 EQ PUSH2 0x351A JUMPI PUSH2 0x3547 JUMP JUMPDEST PUSH1 0xFF NOT DUP7 AND DUP10 MSTORE DUP5 DUP10 ADD SWAP7 POP PUSH2 0x3547 JUMP JUMPDEST PUSH2 0x3523 DUP9 PUSH2 0x40F7 JUMP JUMPDEST PUSH1 0x0 JUMPDEST DUP7 DUP2 LT ISZERO PUSH2 0x353F JUMPI DUP2 SLOAD DUP12 DUP3 ADD MSTORE SWAP1 DUP6 ADD SWAP1 DUP4 ADD PUSH2 0x3526 JUMP JUMPDEST POP POP DUP5 DUP10 ADD SWAP7 POP JUMPDEST POP POP POP POP POP POP SWAP3 SWAP2 POP POP JUMP JUMPDEST PUSH1 0x0 DUP3 MLOAD PUSH2 0x3565 DUP2 DUP5 PUSH1 0x20 DUP8 ADD PUSH2 0x4165 JUMP JUMPDEST SWAP2 SWAP1 SWAP2 ADD SWAP3 SWAP2 POP POP JUMP JUMPDEST PUSH1 0x0 DUP4 MLOAD PUSH2 0x3581 DUP2 DUP5 PUSH1 0x20 DUP9 ADD PUSH2 0x4165 JUMP JUMPDEST DUP4 MLOAD SWAP1 DUP4 ADD SWAP1 PUSH2 0x3595 DUP2 DUP4 PUSH1 0x20 DUP9 ADD PUSH2 0x4165 JUMP JUMPDEST ADD SWAP5 SWAP4 POP POP POP POP JUMP JUMPDEST PUSH1 0x0 DUP4 MLOAD PUSH2 0x35B0 DUP2 DUP5 PUSH1 0x20 DUP9 ADD PUSH2 0x4165 JUMP JUMPDEST PUSH2 0x35BC DUP2 DUP5 ADD DUP6 PUSH2 0x34BB JUMP JUMPDEST SWAP6 SWAP5 POP POP POP POP POP JUMP JUMPDEST PUSH1 0x0 PUSH2 0x2BB1 DUP3 DUP5 PUSH2 0x34BB JUMP JUMPDEST PUSH1 0x1 PUSH1 0x1 PUSH1 0xA0 SHL SUB SWAP2 SWAP1 SWAP2 AND DUP2 MSTORE PUSH1 0x20 ADD SWAP1 JUMP JUMPDEST PUSH1 0x1 PUSH1 0x1 PUSH1 0xA0 SHL SUB SWAP4 DUP5 AND DUP2 MSTORE SWAP2 SWAP1 SWAP3 AND PUSH1 0x20 DUP3 ADD MSTORE PUSH1 0x40 DUP2 ADD SWAP2 SWAP1 SWAP2 MSTORE PUSH1 0x60 ADD SWAP1 JUMP JUMPDEST PUSH1 0x1 PUSH1 0x1 PUSH1 0xA0 SHL SUB DUP6 DUP2 AND DUP3 MSTORE DUP5 AND PUSH1 0x20 DUP3 ADD MSTORE PUSH1 0x40 DUP2 ADD DUP4 SWAP1 MSTORE PUSH1 0x80 PUSH1 0x60 DUP3 ADD DUP2 SWAP1 MSTORE PUSH1 0x0 SWAP1 PUSH2 0x363C SWAP1 DUP4 ADD DUP5 PUSH2 0x348F JUMP JUMPDEST SWAP7 SWAP6 POP POP POP POP POP POP JUMP JUMPDEST PUSH1 0x0 PUSH1 0x20 DUP1 DUP4 ADD DUP2 DUP5 MSTORE DUP1 DUP6 MLOAD DUP1 DUP4 MSTORE PUSH1 0x40 DUP7 ADD SWAP2 POP PUSH1 0x40 DUP5 DUP3 MUL DUP8 ADD ADD SWAP3 POP DUP4 DUP8 ADD DUP6 JUMPDEST DUP3 DUP2 LT ISZERO PUSH2 0x3699 JUMPI PUSH1 0x3F NOT DUP9 DUP7 SUB ADD DUP5 MSTORE PUSH2 0x3687 DUP6 DUP4 MLOAD PUSH2 0x348F JUMP JUMPDEST SWAP5 POP SWAP3 DUP6 ADD SWAP3 SWAP1 DUP6 ADD SWAP1 PUSH1 0x1 ADD PUSH2 0x366B JUMP JUMPDEST POP SWAP3 SWAP8 SWAP7 POP POP POP POP POP POP POP JUMP JUMPDEST PUSH1 0x20 DUP1 DUP3 MSTORE DUP3 MLOAD DUP3 DUP3 ADD DUP2 SWAP1 MSTORE PUSH1 0x0 SWAP2 SWAP1 DUP5 DUP3 ADD SWAP1 PUSH1 0x40 DUP6 ADD SWAP1 DUP5 JUMPDEST DUP2 DUP2 LT ISZERO PUSH2 0x36DE JUMPI DUP4 MLOAD DUP4 MSTORE SWAP3 DUP5 ADD SWAP3 SWAP2 DUP5 ADD SWAP2 PUSH1 0x1 ADD PUSH2 0x36C2 JUMP JUMPDEST POP SWAP1 SWAP7 SWAP6 POP POP POP POP POP POP JUMP JUMPDEST SWAP1 ISZERO ISZERO DUP2 MSTORE PUSH1 0x20 ADD SWAP1 JUMP JUMPDEST PUSH1 0x0 PUSH1 0x20 DUP3 MSTORE PUSH2 0x2BB1 PUSH1 0x20 DUP4 ADD DUP5 PUSH2 0x348F JUMP JUMPDEST PUSH1 0x20 DUP1 DUP3 MSTORE PUSH1 0x19 SWAP1 DUP3 ADD MSTORE PUSH32 0x4E46544E616D655F3A2043616E277420626520626C616E6B2100000000000000 PUSH1 0x40 DUP3 ADD MSTORE PUSH1 0x60 ADD SWAP1 JUMP JUMPDEST PUSH1 0x20 DUP1 DUP3 MSTORE PUSH1 0xF SWAP1 DUP3 ADD MSTORE PUSH15 0x43616E277420626520626C616E6B21 PUSH1 0x88 SHL PUSH1 0x40 DUP3 ADD MSTORE PUSH1 0x60 ADD SWAP1 JUMP JUMPDEST PUSH1 0x20 DUP1 DUP3 MSTORE PUSH1 0x12 SWAP1 DUP3 ADD MSTORE PUSH18 0x43616E277420706179206E66742066656521 PUSH1 0x70 SHL PUSH1 0x40 DUP3 ADD MSTORE PUSH1 0x60 ADD SWAP1 JUMP JUMPDEST PUSH1 0x20 DUP1 DUP3 MSTORE PUSH1 0xD SWAP1 DUP3 ADD MSTORE PUSH13 0x27BABA1037B31030B93930BC97 PUSH1 0x99 SHL PUSH1 0x40 DUP3 ADD MSTORE PUSH1 0x60 ADD SWAP1 JUMP JUMPDEST PUSH1 0x20 DUP1 DUP3 MSTORE PUSH1 0x32 SWAP1 DUP3 ADD MSTORE PUSH32 0x4552433732313A207472616E7366657220746F206E6F6E204552433732315265 PUSH1 0x40 DUP3 ADD MSTORE PUSH18 0x31B2B4BB32B91034B6B83632B6B2B73A32B9 PUSH1 0x71 SHL PUSH1 0x60 DUP3 ADD MSTORE PUSH1 0x80 ADD SWAP1 JUMP JUMPDEST PUSH1 0x20 DUP1 DUP3 MSTORE PUSH1 0x26 SWAP1 DUP3 ADD MSTORE PUSH32 0x4F776E61626C653A206E6577206F776E657220697320746865207A65726F2061 PUSH1 0x40 DUP3 ADD MSTORE PUSH6 0x646472657373 PUSH1 0xD0 SHL PUSH1 0x60 DUP3 ADD MSTORE PUSH1 0x80 ADD SWAP1 JUMP JUMPDEST PUSH1 0x20 DUP1 DUP3 MSTORE PUSH1 0x1C SWAP1 DUP3 ADD MSTORE PUSH32 0x4552433732313A20746F6B656E20616C7265616479206D696E74656400000000 PUSH1 0x40 DUP3 ADD MSTORE PUSH1 0x60 ADD SWAP1 JUMP JUMPDEST PUSH1 0x20 DUP1 DUP3 MSTORE PUSH1 0x24 SWAP1 DUP3 ADD MSTORE PUSH32 0x4552433732313A207472616E7366657220746F20746865207A65726F20616464 PUSH1 0x40 DUP3 ADD MSTORE PUSH4 0x72657373 PUSH1 0xE0 SHL PUSH1 0x60 DUP3 ADD MSTORE PUSH1 0x80 ADD SWAP1 JUMP JUMPDEST PUSH1 0x20 DUP1 DUP3 MSTORE PUSH1 0x29 SWAP1 DUP3 ADD MSTORE PUSH32 0x43757272656E742042616C616E636520697320746F6F20736D616C6C20746F20 PUSH1 0x40 DUP3 ADD MSTORE PUSH9 0x3BB4BA34323930BB97 PUSH1 0xB9 SHL PUSH1 0x60 DUP3 ADD MSTORE PUSH1 0x80 ADD SWAP1 JUMP JUMPDEST PUSH1 0x20 DUP1 DUP3 MSTORE PUSH1 0x19 SWAP1 DUP3 ADD MSTORE PUSH32 0x4552433732313A20617070726F766520746F2063616C6C657200000000000000 PUSH1 0x40 DUP3 ADD MSTORE PUSH1 0x60 ADD SWAP1 JUMP JUMPDEST PUSH1 0x20 DUP1 DUP3 MSTORE PUSH1 0x46 SWAP1 DUP3 ADD MSTORE PUSH32 0x54686973204E465420686173206265656E20657870697265642E204F776E6572 PUSH1 0x40 DUP3 ADD MSTORE PUSH32 0x206E65656420746F20657874656E642069747320737562736372697074696F6E PUSH1 0x60 DUP3 ADD MSTORE PUSH6 0x103A34B6B297 PUSH1 0xD1 SHL PUSH1 0x80 DUP3 ADD MSTORE PUSH1 0xA0 ADD SWAP1 JUMP JUMPDEST PUSH1 0x20 DUP1 DUP3 MSTORE PUSH1 0x19 SWAP1 DUP3 ADD MSTORE PUSH32 0x746F6B656E5552493A2043616E277420626520626C616E6B2100000000000000 PUSH1 0x40 DUP3 ADD MSTORE PUSH1 0x60 ADD SWAP1 JUMP JUMPDEST PUSH1 0x20 DUP1 DUP3 MSTORE PUSH1 0x26 SWAP1 DUP3 ADD MSTORE PUSH32 0x416464726573733A20696E73756666696369656E742062616C616E636520666F PUSH1 0x40 DUP3 ADD MSTORE PUSH6 0x1C8818D85B1B PUSH1 0xD2 SHL PUSH1 0x60 DUP3 ADD MSTORE PUSH1 0x80 ADD SWAP1 JUMP JUMPDEST PUSH1 0x20 DUP1 DUP3 MSTORE PUSH1 0x2C SWAP1 DUP3 ADD MSTORE PUSH32 0x4552433732313A206F70657261746F7220717565727920666F72206E6F6E6578 PUSH1 0x40 DUP3 ADD MSTORE PUSH12 0x34B9BA32B73A103A37B5B2B7 PUSH1 0xA1 SHL PUSH1 0x60 DUP3 ADD MSTORE PUSH1 0x80 ADD SWAP1 JUMP JUMPDEST PUSH1 0x20 DUP1 DUP3 MSTORE PUSH1 0x23 SWAP1 DUP3 ADD MSTORE PUSH32 0x4E65772062656E656669636961727920697320746865207A65726F2061646472 PUSH1 0x40 DUP3 ADD MSTORE PUSH3 0x657373 PUSH1 0xE8 SHL PUSH1 0x60 DUP3 ADD MSTORE PUSH1 0x80 ADD SWAP1 JUMP JUMPDEST PUSH1 0x20 DUP1 DUP3 MSTORE PUSH1 0x38 SWAP1 DUP3 ADD MSTORE PUSH32 0x4552433732313A20617070726F76652063616C6C6572206973206E6F74206F77 PUSH1 0x40 DUP3 ADD MSTORE PUSH32 0x6E6572206E6F7220617070726F76656420666F7220616C6C0000000000000000 PUSH1 0x60 DUP3 ADD MSTORE PUSH1 0x80 ADD SWAP1 JUMP JUMPDEST PUSH1 0x20 DUP1 DUP3 MSTORE PUSH1 0x2A SWAP1 DUP3 ADD MSTORE PUSH32 0x4552433732313A2062616C616E636520717565727920666F7220746865207A65 PUSH1 0x40 DUP3 ADD MSTORE PUSH10 0x726F2061646472657373 PUSH1 0xB0 SHL PUSH1 0x60 DUP3 ADD MSTORE PUSH1 0x80 ADD SWAP1 JUMP JUMPDEST PUSH1 0x20 DUP1 DUP3 MSTORE PUSH1 0x29 SWAP1 DUP3 ADD MSTORE PUSH32 0x4552433732313A206F776E657220717565727920666F72206E6F6E6578697374 PUSH1 0x40 DUP3 ADD MSTORE PUSH9 0x32B73A103A37B5B2B7 PUSH1 0xB9 SHL PUSH1 0x60 DUP3 ADD MSTORE PUSH1 0x80 ADD SWAP1 JUMP JUMPDEST PUSH1 0x20 DUP1 DUP3 MSTORE PUSH1 0x2E SWAP1 DUP3 ADD MSTORE PUSH32 0x45524337323155524953746F726167653A2055524920736574206F66206E6F6E PUSH1 0x40 DUP3 ADD MSTORE PUSH14 0x32BC34B9BA32B73A103A37B5B2B7 PUSH1 0x91 SHL PUSH1 0x60 DUP3 ADD MSTORE PUSH1 0x80 ADD SWAP1 JUMP JUMPDEST PUSH1 0x20 DUP1 DUP3 MSTORE PUSH1 0x28 SWAP1 DUP3 ADD MSTORE PUSH32 0x4F776E61626C653A2063616C6C6572206973206E6F7420746865206375727265 PUSH1 0x40 DUP3 ADD MSTORE PUSH8 0x373A1037BBB732B9 PUSH1 0xC1 SHL PUSH1 0x60 DUP3 ADD MSTORE PUSH1 0x80 ADD SWAP1 JUMP JUMPDEST PUSH1 0x20 DUP1 DUP3 MSTORE PUSH1 0x3A SWAP1 DUP3 ADD MSTORE PUSH32 0x41637469766554696D653A20596F752063616E2774207265676973746572204E PUSH1 0x40 DUP3 ADD MSTORE PUSH32 0x4654206265666F726520746865206163746976652074696D652E000000000000 PUSH1 0x60 DUP3 ADD MSTORE PUSH1 0x80 ADD SWAP1 JUMP JUMPDEST PUSH1 0x20 DUP1 DUP3 MSTORE DUP2 DUP2 ADD MSTORE PUSH32 0x4552433732313A206D696E7420746F20746865207A65726F2061646472657373 PUSH1 0x40 DUP3 ADD MSTORE PUSH1 0x60 ADD SWAP1 JUMP JUMPDEST PUSH1 0x20 DUP1 DUP3 MSTORE PUSH1 0x31 SWAP1 DUP3 ADD MSTORE PUSH32 0x45524337323155524953746F726167653A2055524920717565727920666F7220 PUSH1 0x40 DUP3 ADD MSTORE PUSH17 0x3737B732BC34B9BA32B73A103A37B5B2B7 PUSH1 0x79 SHL PUSH1 0x60 DUP3 ADD MSTORE PUSH1 0x80 ADD SWAP1 JUMP JUMPDEST PUSH1 0x20 DUP1 DUP3 MSTORE PUSH1 0x33 SWAP1 DUP3 ADD MSTORE PUSH32 0x43616E2774206265206C657373207468616E20312079656172206F7220677265 PUSH1 0x40 DUP3 ADD MSTORE PUSH19 0x61746572207468616E20313020796561727321 PUSH1 0x68 SHL PUSH1 0x60 DUP3 ADD MSTORE PUSH1 0x80 ADD SWAP1 JUMP JUMPDEST PUSH1 0x20 DUP1 DUP3 MSTORE PUSH1 0x2C SWAP1 DUP3 ADD MSTORE PUSH32 0x4552433732313A20617070726F76656420717565727920666F72206E6F6E6578 PUSH1 0x40 DUP3 ADD MSTORE PUSH12 0x34B9BA32B73A103A37B5B2B7 PUSH1 0xA1 SHL PUSH1 0x60 DUP3 ADD MSTORE PUSH1 0x80 ADD SWAP1 JUMP JUMPDEST PUSH1 0x20 DUP1 DUP3 MSTORE DUP2 DUP2 ADD MSTORE PUSH32 0x4F776E61626C653A2063616C6C6572206973206E6F7420746865206F776E6572 PUSH1 0x40 DUP3 ADD MSTORE PUSH1 0x60 ADD SWAP1 JUMP JUMPDEST PUSH1 0x20 DUP1 DUP3 MSTORE PUSH1 0x29 SWAP1 DUP3 ADD MSTORE PUSH32 0x4552433732313A207472616E73666572206F6620746F6B656E20746861742069 PUSH1 0x40 DUP3 ADD MSTORE PUSH9 0x39903737BA1037BBB7 PUSH1 0xB9 SHL PUSH1 0x60 DUP3 ADD MSTORE PUSH1 0x80 ADD SWAP1 JUMP JUMPDEST PUSH1 0x20 DUP1 DUP3 MSTORE PUSH1 0x2F SWAP1 DUP3 ADD MSTORE PUSH32 0x4552433732314D657461646174613A2055524920717565727920666F72206E6F PUSH1 0x40 DUP3 ADD MSTORE PUSH15 0x3732BC34B9BA32B73A103A37B5B2B7 PUSH1 0x89 SHL PUSH1 0x60 DUP3 ADD MSTORE PUSH1 0x80 ADD SWAP1 JUMP JUMPDEST PUSH1 0x20 DUP1 DUP3 MSTORE PUSH1 0x17 SWAP1 DUP3 ADD MSTORE PUSH32 0x6E65774E46543A2043616E277420626520626C616E6B21000000000000000000 PUSH1 0x40 DUP3 ADD MSTORE PUSH1 0x60 ADD SWAP1 JUMP JUMPDEST PUSH1 0x20 DUP1 DUP3 MSTORE PUSH1 0x21 SWAP1 DUP3 ADD MSTORE PUSH32 0x4552433732313A20617070726F76616C20746F2063757272656E74206F776E65 PUSH1 0x40 DUP3 ADD MSTORE PUSH1 0x39 PUSH1 0xF9 SHL PUSH1 0x60 DUP3 ADD MSTORE PUSH1 0x80 ADD SWAP1 JUMP JUMPDEST PUSH1 0x20 DUP1 DUP3 MSTORE PUSH1 0x31 SWAP1 DUP3 ADD MSTORE PUSH32 0x4552433732313A207472616E736665722063616C6C6572206973206E6F74206F PUSH1 0x40 DUP3 ADD MSTORE PUSH17 0x1DDB995C881B9BDC88185C1C1C9BDD9959 PUSH1 0x7A SHL PUSH1 0x60 DUP3 ADD MSTORE PUSH1 0x80 ADD SWAP1 JUMP JUMPDEST PUSH1 0x20 DUP1 DUP3 MSTORE PUSH1 0x1D SWAP1 DUP3 ADD MSTORE PUSH32 0x416464726573733A2063616C6C20746F206E6F6E2D636F6E7472616374000000 PUSH1 0x40 DUP3 ADD MSTORE PUSH1 0x60 ADD SWAP1 JUMP JUMPDEST PUSH1 0x20 DUP1 DUP3 MSTORE PUSH1 0x3D SWAP1 DUP3 ADD MSTORE PUSH32 0x41637469766554696D653A20596F752063616E277420627579204E4654206265 PUSH1 0x40 DUP3 ADD MSTORE PUSH32 0x666F7265207468652063757272656E74206163746976652074696D652E000000 PUSH1 0x60 DUP3 ADD MSTORE PUSH1 0x80 ADD SWAP1 JUMP JUMPDEST PUSH1 0x20 DUP1 DUP3 MSTORE PUSH1 0x2A SWAP1 DUP3 ADD MSTORE PUSH32 0x5361666545524332303A204552433230206F7065726174696F6E20646964206E PUSH1 0x40 DUP3 ADD MSTORE PUSH10 0x1BDD081CDD58D8D95959 PUSH1 0xB2 SHL PUSH1 0x60 DUP3 ADD MSTORE PUSH1 0x80 ADD SWAP1 JUMP JUMPDEST PUSH1 0x20 DUP1 DUP3 MSTORE PUSH1 0x1D SWAP1 DUP3 ADD MSTORE PUSH32 0x726563697069656E7420697320746865207A65726F2061646472657373000000 PUSH1 0x40 DUP3 ADD MSTORE PUSH1 0x60 ADD SWAP1 JUMP JUMPDEST PUSH1 0x20 DUP1 DUP3 MSTORE PUSH1 0x26 SWAP1 DUP3 ADD MSTORE PUSH32 0x546865206E616D6520657874656E73696F6E20697320616C7265616479206578 PUSH1 0x40 DUP3 ADD MSTORE PUSH6 0x34B9BA32B217 PUSH1 0xD1 SHL PUSH1 0x60 DUP3 ADD MSTORE PUSH1 0x80 ADD SWAP1 JUMP JUMPDEST PUSH1 0x20 DUP1 DUP3 MSTORE PUSH1 0x15 SWAP1 DUP3 ADD MSTORE PUSH21 0x2AB735B737BBB7103830BCB6B2B73A103A37B5B2B7 PUSH1 0x59 SHL PUSH1 0x40 DUP3 ADD MSTORE PUSH1 0x60 ADD SWAP1 JUMP JUMPDEST SWAP1 DUP2 MSTORE PUSH1 0x20 ADD SWAP1 JUMP JUMPDEST PUSH1 0x0 SWAP1 DUP2 MSTORE PUSH1 0x20 SWAP1 KECCAK256 SWAP1 JUMP JUMPDEST PUSH1 0x0 DUP3 NOT DUP3 GT ISZERO PUSH2 0x4116 JUMPI PUSH2 0x4116 PUSH2 0x41FB JUMP JUMPDEST POP ADD SWAP1 JUMP JUMPDEST PUSH1 0x0 DUP3 PUSH2 0x412A JUMPI PUSH2 0x412A PUSH2 0x4211 JUMP JUMPDEST POP DIV SWAP1 JUMP JUMPDEST PUSH1 0x0 DUP2 PUSH1 0x0 NOT DIV DUP4 GT DUP3 ISZERO ISZERO AND ISZERO PUSH2 0x4149 JUMPI PUSH2 0x4149 PUSH2 0x41FB JUMP JUMPDEST POP MUL SWAP1 JUMP JUMPDEST PUSH1 0x0 DUP3 DUP3 LT ISZERO PUSH2 0x4160 JUMPI PUSH2 0x4160 PUSH2 0x41FB JUMP JUMPDEST POP SUB SWAP1 JUMP JUMPDEST PUSH1 0x0 JUMPDEST DUP4 DUP2 LT ISZERO PUSH2 0x4180 JUMPI DUP2 DUP2 ADD MLOAD DUP4 DUP3 ADD MSTORE PUSH1 0x20 ADD PUSH2 0x4168 JUMP JUMPDEST DUP4 DUP2 GT ISZERO PUSH2 0x199A JUMPI POP POP PUSH1 0x0 SWAP2 ADD MSTORE JUMP JUMPDEST PUSH1 0x2 DUP2 DIV PUSH1 0x1 DUP3 AND DUP1 PUSH2 0x41A5 JUMPI PUSH1 0x7F DUP3 AND SWAP2 POP JUMPDEST PUSH1 0x20 DUP3 LT DUP2 EQ ISZERO PUSH2 0x41C6 JUMPI PUSH4 0x4E487B71 PUSH1 0xE0 SHL PUSH1 0x0 MSTORE PUSH1 0x22 PUSH1 0x4 MSTORE PUSH1 0x24 PUSH1 0x0 REVERT JUMPDEST POP SWAP2 SWAP1 POP JUMP JUMPDEST PUSH1 0x0 PUSH1 0x0 NOT DUP3 EQ ISZERO PUSH2 0x41E0 JUMPI PUSH2 0x41E0 PUSH2 0x41FB JUMP JUMPDEST POP PUSH1 0x1 ADD SWAP1 JUMP JUMPDEST PUSH1 0x0 DUP3 PUSH2 0x41F6 JUMPI PUSH2 0x41F6 PUSH2 0x4211 JUMP JUMPDEST POP MOD SWAP1 JUMP JUMPDEST PUSH4 0x4E487B71 PUSH1 0xE0 SHL PUSH1 0x0 MSTORE PUSH1 0x11 PUSH1 0x4 MSTORE PUSH1 0x24 PUSH1 0x0 REVERT JUMPDEST PUSH4 0x4E487B71 PUSH1 0xE0 SHL PUSH1 0x0 MSTORE PUSH1 0x12 PUSH1 0x4 MSTORE PUSH1 0x24 PUSH1 0x0 REVERT JUMPDEST PUSH4 0x4E487B71 PUSH1 0xE0 SHL PUSH1 0x0 MSTORE PUSH1 0x41 PUSH1 0x4 MSTORE PUSH1 0x24 PUSH1 0x0 REVERT JUMPDEST PUSH1 0x1 PUSH1 0x1 PUSH1 0xA0 SHL SUB DUP2 AND DUP2 EQ PUSH2 0x2449 JUMPI PUSH1 0x0 DUP1 REVERT JUMPDEST DUP1 ISZERO ISZERO DUP2 EQ PUSH2 0x2449 JUMPI PUSH1 0x0 DUP1 REVERT JUMPDEST PUSH1 0x1 PUSH1 0x1 PUSH1 0xE0 SHL SUB NOT DUP2 AND DUP2 EQ PUSH2 0x2449 JUMPI PUSH1 0x0 DUP1 REVERT INVALID LOG2 PUSH5 0x6970667358 0x22 SLT KECCAK256 LT CALLER PUSH31 0xD13963A4CDDA9400C198F23C89B70C330B2D012CF4BD7713703E3B3F736473 PUSH16 0x6C634300080000330000000000000000 "
		},
		"gasEstimates": {
			"creation": {
				"codeDepositCost": "3413600",
				"executionCost": "infinite",
				"totalCost": "infinite"
			},
			"external": {
				"addXTExt(string)": "infinite",
				"approve(address,uint256)": "infinite",
				"balanceOf(address)": "1349",
				"balanceTokenForPayment(uint256)": "infinite",
				"beneficiary()": "1182",
				"buyNFTFromMarketPlace(string)": "infinite",
				"extendImportedNFTSubscription(string,uint256)": "infinite",
				"extendNFTSubscription(string,uint256,uint256)": "infinite",
				"getActiveTime()": "1139",
				"getApproved(uint256)": "2246",
				"getCurrentTokenId()": "1131",
				"getMintPrice()": "1095",
				"getNFTURI(string)": "infinite",
				"getNameExt()": "infinite",
				"getTokenIdsByAddress(address)": "infinite",
				"importNFT(address,string,string,uint256)": "infinite",
				"isApprovedForAll(address,address)": "infinite",
				"name()": "infinite",
				"owner()": "1203",
				"ownerOf(uint256)": "1389",
				"paymentToken(uint256)": "1266",
				"registerNFT(string,uint256,string,uint256)": "infinite",
				"renounceOwnership()": "23574",
				"safeTransferFrom(address,address,uint256)": "infinite",
				"safeTransferFrom(address,address,uint256,bytes)": "infinite",
				"setApprovalForAll(address,bool)": "infinite",
				"setBeneficiary(address)": "23717",
				"setMarketPlaceFee(uint256)": "22736",
				"setMintPrice(uint256)": "22801",
				"setNFTSalePrice(string,uint256)": "infinite",
				"setNFTURI(string,string)": "infinite",
				"setTokenForPayment(address)": "23704",
				"supportsInterface(bytes4)": "627",
				"symbol()": "infinite",
				"tokenURI(uint256)": "infinite",
				"transferFrom(address,address,uint256)": "infinite",
				"transferOwnership(address)": "infinite",
				"withdrawTokenForPayment(uint256)": "infinite"
			}
		},
		"methodIdentifiers": {
			"addXTExt(string)": "9c9fb5f4",
			"approve(address,uint256)": "095ea7b3",
			"balanceOf(address)": "70a08231",
			"balanceTokenForPayment(uint256)": "d21ed580",
			"beneficiary()": "38af3eed",
			"buyNFTFromMarketPlace(string)": "e9563a19",
			"extendImportedNFTSubscription(string,uint256)": "bafe149a",
			"extendNFTSubscription(string,uint256,uint256)": "87715a0f",
			"getActiveTime()": "df03ba68",
			"getApproved(uint256)": "081812fc",
			"getCurrentTokenId()": "56189236",
			"getMintPrice()": "a7f93ebd",
			"getNFTURI(string)": "400f50ee",
			"getNameExt()": "ff3e64e6",
			"getTokenIdsByAddress(address)": "89d5feee",
			"importNFT(address,string,string,uint256)": "6b92eb0c",
			"isApprovedForAll(address,address)": "e985e9c5",
			"name()": "06fdde03",
			"owner()": "8da5cb5b",
			"ownerOf(uint256)": "6352211e",
			"paymentToken(uint256)": "0e101b60",
			"registerNFT(string,uint256,string,uint256)": "a8c4d105",
			"renounceOwnership()": "715018a6",
			"safeTransferFrom(address,address,uint256)": "42842e0e",
			"safeTransferFrom(address,address,uint256,bytes)": "b88d4fde",
			"setApprovalForAll(address,bool)": "a22cb465",
			"setBeneficiary(address)": "1c31f710",
			"setMarketPlaceFee(uint256)": "c20925c9",
			"setMintPrice(uint256)": "f4a0a528",
			"setNFTSalePrice(string,uint256)": "a665f76d",
			"setNFTURI(string,string)": "9873803d",
			"setTokenForPayment(address)": "59c77222",
			"supportsInterface(bytes4)": "01ffc9a7",
			"symbol()": "95d89b41",
			"tokenURI(uint256)": "c87b56dd",
			"transferFrom(address,address,uint256)": "23b872dd",
			"transferOwnership(address)": "f2fde38b",
			"withdrawTokenForPayment(uint256)": "f431d1e9"
		}
	},
	"abi": [
		{
			"inputs": [],
			"stateMutability": "nonpayable",
			"type": "constructor"
		},
		{
			"anonymous": false,
			"inputs": [
				{
					"indexed": true,
					"internalType": "address",
					"name": "caller",
					"type": "address"
				},
				{
					"indexed": true,
					"internalType": "string",
					"name": "nameExt_",
					"type": "string"
				}
			],
			"name": "AddXTExt",
			"type": "event"
		},
		{
			"anonymous": false,
			"inputs": [
				{
					"indexed": true,
					"internalType": "address",
					"name": "owner",
					"type": "address"
				},
				{
					"indexed": true,
					"internalType": "address",
					"name": "approved",
					"type": "address"
				},
				{
					"indexed": true,
					"internalType": "uint256",
					"name": "tokenId",
					"type": "uint256"
				}
			],
			"name": "Approval",
			"type": "event"
		},
		{
			"anonymous": false,
			"inputs": [
				{
					"indexed": true,
					"internalType": "address",
					"name": "owner",
					"type": "address"
				},
				{
					"indexed": true,
					"internalType": "address",
					"name": "operator",
					"type": "address"
				},
				{
					"indexed": false,
					"internalType": "bool",
					"name": "approved",
					"type": "bool"
				}
			],
			"name": "ApprovalForAll",
			"type": "event"
		},
		{
			"anonymous": false,
			"inputs": [
				{
					"indexed": true,
					"internalType": "address",
					"name": "caller",
					"type": "address"
				},
				{
					"indexed": true,
					"internalType": "string",
					"name": "NFTName_",
					"type": "string"
				}
			],
			"name": "BuyNFTFromMarketPlace",
			"type": "event"
		},
		{
			"anonymous": false,
			"inputs": [
				{
					"indexed": true,
					"internalType": "address",
					"name": "caller",
					"type": "address"
				},
				{
					"indexed": true,
					"internalType": "string",
					"name": "newNFT",
					"type": "string"
				},
				{
					"indexed": true,
					"internalType": "uint256",
					"name": "numOfYear",
					"type": "uint256"
				}
			],
			"name": "ExtendImportedNFTSubscription",
			"type": "event"
		},
		{
			"anonymous": false,
			"inputs": [
				{
					"indexed": true,
					"internalType": "address",
					"name": "caller",
					"type": "address"
				},
				{
					"indexed": true,
					"internalType": "string",
					"name": "newNFT",
					"type": "string"
				}
			],
			"name": "ExtendNFTSubscription",
			"type": "event"
		},
		{
			"anonymous": false,
			"inputs": [
				{
					"indexed": true,
					"internalType": "address",
					"name": "caller",
					"type": "address"
				},
				{
					"indexed": true,
					"internalType": "string",
					"name": "newNFT",
					"type": "string"
				}
			],
			"name": "ImportNewNFT",
			"type": "event"
		},
		{
			"anonymous": false,
			"inputs": [
				{
					"indexed": true,
					"internalType": "address",
					"name": "previousOwner",
					"type": "address"
				},
				{
					"indexed": true,
					"internalType": "address",
					"name": "newOwner",
					"type": "address"
				}
			],
			"name": "OwnershipTransferred",
			"type": "event"
		},
		{
			"anonymous": false,
			"inputs": [
				{
					"indexed": true,
					"internalType": "address",
					"name": "caller",
					"type": "address"
				},
				{
					"indexed": true,
					"internalType": "string",
					"name": "newNFT",
					"type": "string"
				}
			],
			"name": "RegisteredNewNFT",
			"type": "event"
		},
		{
			"anonymous": false,
			"inputs": [
				{
					"indexed": true,
					"internalType": "address",
					"name": "caller",
					"type": "address"
				},
				{
					"indexed": true,
					"internalType": "address",
					"name": "beneficiary_",
					"type": "address"
				}
			],
			"name": "SetBeneficiary",
			"type": "event"
		},
		{
			"anonymous": false,
			"inputs": [
				{
					"indexed": true,
					"internalType": "address",
					"name": "caller",
					"type": "address"
				},
				{
					"indexed": true,
					"internalType": "uint256",
					"name": "marketplaceFee_",
					"type": "uint256"
				}
			],
			"name": "SetMarketPlaceFee",
			"type": "event"
		},
		{
			"anonymous": false,
			"inputs": [
				{
					"indexed": true,
					"internalType": "address",
					"name": "caller",
					"type": "address"
				},
				{
					"indexed": true,
					"internalType": "uint256",
					"name": "newMintPrice",
					"type": "uint256"
				}
			],
			"name": "SetMintPrice",
			"type": "event"
		},
		{
			"anonymous": false,
			"inputs": [
				{
					"indexed": true,
					"internalType": "address",
					"name": "caller",
					"type": "address"
				},
				{
					"indexed": true,
					"internalType": "string",
					"name": "NFTName_",
					"type": "string"
				},
				{
					"indexed": false,
					"internalType": "uint256",
					"name": "salePrice_",
					"type": "uint256"
				}
			],
			"name": "SetNFTSalePrice",
			"type": "event"
		},
		{
			"anonymous": false,
			"inputs": [
				{
					"indexed": true,
					"internalType": "address",
					"name": "caller",
					"type": "address"
				},
				{
					"indexed": true,
					"internalType": "string",
					"name": "NFTName_",
					"type": "string"
				},
				{
					"indexed": true,
					"internalType": "string",
					"name": "tokenURI",
					"type": "string"
				}
			],
			"name": "SetNFTURI",
			"type": "event"
		},
		{
			"anonymous": false,
			"inputs": [
				{
					"indexed": true,
					"internalType": "address",
					"name": "caller",
					"type": "address"
				},
				{
					"indexed": true,
					"internalType": "contract IERC20",
					"name": "token_",
					"type": "address"
				}
			],
			"name": "SetTokenForPayment",
			"type": "event"
		},
		{
			"anonymous": false,
			"inputs": [
				{
					"indexed": true,
					"internalType": "address",
					"name": "from",
					"type": "address"
				},
				{
					"indexed": true,
					"internalType": "address",
					"name": "to",
					"type": "address"
				},
				{
					"indexed": true,
					"internalType": "uint256",
					"name": "tokenId",
					"type": "uint256"
				}
			],
			"name": "Transfer",
			"type": "event"
		},
		{
			"anonymous": false,
			"inputs": [
				{
					"indexed": true,
					"internalType": "address",
					"name": "caller",
					"type": "address"
				},
				{
					"indexed": true,
					"internalType": "address",
					"name": "beneficiary_",
					"type": "address"
				},
				{
					"indexed": true,
					"internalType": "uint256",
					"name": "balance_",
					"type": "uint256"
				}
			],
			"name": "WithdrawTokenForPayment",
			"type": "event"
		},
		{
			"inputs": [
				{
					"internalType": "string",
					"name": "nameExt_",
					"type": "string"
				}
			],
			"name": "addXTExt",
			"outputs": [],
			"stateMutability": "nonpayable",
			"type": "function"
		},
		{
			"inputs": [
				{
					"internalType": "address",
					"name": "to",
					"type": "address"
				},
				{
					"internalType": "uint256",
					"name": "tokenId",
					"type": "uint256"
				}
			],
			"name": "approve",
			"outputs": [],
			"stateMutability": "nonpayable",
			"type": "function"
		},
		{
			"inputs": [
				{
					"internalType": "address",
					"name": "owner",
					"type": "address"
				}
			],
			"name": "balanceOf",
			"outputs": [
				{
					"internalType": "uint256",
					"name": "",
					"type": "uint256"
				}
			],
			"stateMutability": "view",
			"type": "function"
		},
		{
			"inputs": [
				{
					"internalType": "uint256",
					"name": "paymentId",
					"type": "uint256"
				}
			],
			"name": "balanceTokenForPayment",
			"outputs": [
				{
					"internalType": "uint256",
					"name": "",
					"type": "uint256"
				}
			],
			"stateMutability": "view",
			"type": "function"
		},
		{
			"inputs": [],
			"name": "beneficiary",
			"outputs": [
				{
					"internalType": "address",
					"name": "",
					"type": "address"
				}
			],
			"stateMutability": "view",
			"type": "function"
		},
		{
			"inputs": [
				{
					"internalType": "string",
					"name": "NFTName_",
					"type": "string"
				}
			],
			"name": "buyNFTFromMarketPlace",
			"outputs": [],
			"stateMutability": "nonpayable",
			"type": "function"
		},
		{
			"inputs": [
				{
					"internalType": "string",
					"name": "newNFT",
					"type": "string"
				},
				{
					"internalType": "uint256",
					"name": "numOfYear",
					"type": "uint256"
				}
			],
			"name": "extendImportedNFTSubscription",
			"outputs": [],
			"stateMutability": "nonpayable",
			"type": "function"
		},
		{
			"inputs": [
				{
					"internalType": "string",
					"name": "newNFT",
					"type": "string"
				},
				{
					"internalType": "uint256",
					"name": "nameXTExtId_",
					"type": "uint256"
				},
				{
					"internalType": "uint256",
					"name": "numOfYear",
					"type": "uint256"
				}
			],
			"name": "extendNFTSubscription",
			"outputs": [],
			"stateMutability": "nonpayable",
			"type": "function"
		},
		{
			"inputs": [],
			"name": "getActiveTime",
			"outputs": [
				{
					"internalType": "uint256",
					"name": "",
					"type": "uint256"
				}
			],
			"stateMutability": "view",
			"type": "function"
		},
		{
			"inputs": [
				{
					"internalType": "uint256",
					"name": "tokenId",
					"type": "uint256"
				}
			],
			"name": "getApproved",
			"outputs": [
				{
					"internalType": "address",
					"name": "",
					"type": "address"
				}
			],
			"stateMutability": "view",
			"type": "function"
		},
		{
			"inputs": [],
			"name": "getCurrentTokenId",
			"outputs": [
				{
					"internalType": "uint256",
					"name": "",
					"type": "uint256"
				}
			],
			"stateMutability": "view",
			"type": "function"
		},
		{
			"inputs": [],
			"name": "getMintPrice",
			"outputs": [
				{
					"internalType": "uint256",
					"name": "",
					"type": "uint256"
				}
			],
			"stateMutability": "view",
			"type": "function"
		},
		{
			"inputs": [
				{
					"internalType": "string",
					"name": "NFTName",
					"type": "string"
				}
			],
			"name": "getNFTURI",
			"outputs": [
				{
					"internalType": "string",
					"name": "",
					"type": "string"
				}
			],
			"stateMutability": "view",
			"type": "function"
		},
		{
			"inputs": [],
			"name": "getNameExt",
			"outputs": [
				{
					"internalType": "string[]",
					"name": "",
					"type": "string[]"
				}
			],
			"stateMutability": "view",
			"type": "function"
		},
		{
			"inputs": [
				{
					"internalType": "address",
					"name": "walletAddress",
					"type": "address"
				}
			],
			"name": "getTokenIdsByAddress",
			"outputs": [
				{
					"internalType": "uint256[]",
					"name": "tokenIds",
					"type": "uint256[]"
				}
			],
			"stateMutability": "view",
			"type": "function"
		},
		{
			"inputs": [
				{
					"internalType": "address",
					"name": "recipient",
					"type": "address"
				},
				{
					"internalType": "string",
					"name": "newNFT",
					"type": "string"
				},
				{
					"internalType": "string",
					"name": "tokenURI_",
					"type": "string"
				},
				{
					"internalType": "uint256",
					"name": "numOfYear",
					"type": "uint256"
				}
			],
			"name": "importNFT",
			"outputs": [
				{
					"internalType": "uint256",
					"name": "",
					"type": "uint256"
				}
			],
			"stateMutability": "nonpayable",
			"type": "function"
		},
		{
			"inputs": [
				{
					"internalType": "address",
					"name": "owner",
					"type": "address"
				},
				{
					"internalType": "address",
					"name": "operator",
					"type": "address"
				}
			],
			"name": "isApprovedForAll",
			"outputs": [
				{
					"internalType": "bool",
					"name": "",
					"type": "bool"
				}
			],
			"stateMutability": "view",
			"type": "function"
		},
		{
			"inputs": [],
			"name": "name",
			"outputs": [
				{
					"internalType": "string",
					"name": "",
					"type": "string"
				}
			],
			"stateMutability": "view",
			"type": "function"
		},
		{
			"inputs": [],
			"name": "owner",
			"outputs": [
				{
					"internalType": "address",
					"name": "",
					"type": "address"
				}
			],
			"stateMutability": "view",
			"type": "function"
		},
		{
			"inputs": [
				{
					"internalType": "uint256",
					"name": "tokenId",
					"type": "uint256"
				}
			],
			"name": "ownerOf",
			"outputs": [
				{
					"internalType": "address",
					"name": "",
					"type": "address"
				}
			],
			"stateMutability": "view",
			"type": "function"
		},
		{
			"inputs": [
				{
					"internalType": "uint256",
					"name": "paymentId",
					"type": "uint256"
				}
			],
			"name": "paymentToken",
			"outputs": [
				{
					"internalType": "contract IERC20",
					"name": "",
					"type": "address"
				}
			],
			"stateMutability": "view",
			"type": "function"
		},
		{
			"inputs": [
				{
					"internalType": "string",
					"name": "newNFT",
					"type": "string"
				},
				{
					"internalType": "uint256",
					"name": "nameXTExtId_",
					"type": "uint256"
				},
				{
					"internalType": "string",
					"name": "tokenURI_",
					"type": "string"
				},
				{
					"internalType": "uint256",
					"name": "numOfYear",
					"type": "uint256"
				}
			],
			"name": "registerNFT",
			"outputs": [
				{
					"internalType": "uint256",
					"name": "",
					"type": "uint256"
				}
			],
			"stateMutability": "nonpayable",
			"type": "function"
		},
		{
			"inputs": [],
			"name": "renounceOwnership",
			"outputs": [],
			"stateMutability": "nonpayable",
			"type": "function"
		},
		{
			"inputs": [
				{
					"internalType": "address",
					"name": "from",
					"type": "address"
				},
				{
					"internalType": "address",
					"name": "to",
					"type": "address"
				},
				{
					"internalType": "uint256",
					"name": "tokenId",
					"type": "uint256"
				}
			],
			"name": "safeTransferFrom",
			"outputs": [],
			"stateMutability": "nonpayable",
			"type": "function"
		},
		{
			"inputs": [
				{
					"internalType": "address",
					"name": "from",
					"type": "address"
				},
				{
					"internalType": "address",
					"name": "to",
					"type": "address"
				},
				{
					"internalType": "uint256",
					"name": "tokenId",
					"type": "uint256"
				},
				{
					"internalType": "bytes",
					"name": "_data",
					"type": "bytes"
				}
			],
			"name": "safeTransferFrom",
			"outputs": [],
			"stateMutability": "nonpayable",
			"type": "function"
		},
		{
			"inputs": [
				{
					"internalType": "address",
					"name": "operator",
					"type": "address"
				},
				{
					"internalType": "bool",
					"name": "approved",
					"type": "bool"
				}
			],
			"name": "setApprovalForAll",
			"outputs": [],
			"stateMutability": "nonpayable",
			"type": "function"
		},
		{
			"inputs": [
				{
					"internalType": "address",
					"name": "beneficiary_",
					"type": "address"
				}
			],
			"name": "setBeneficiary",
			"outputs": [],
			"stateMutability": "nonpayable",
			"type": "function"
		},
		{
			"inputs": [
				{
					"internalType": "uint256",
					"name": "marketplaceFee_",
					"type": "uint256"
				}
			],
			"name": "setMarketPlaceFee",
			"outputs": [],
			"stateMutability": "nonpayable",
			"type": "function"
		},
		{
			"inputs": [
				{
					"internalType": "uint256",
					"name": "newMintPrice",
					"type": "uint256"
				}
			],
			"name": "setMintPrice",
			"outputs": [],
			"stateMutability": "nonpayable",
			"type": "function"
		},
		{
			"inputs": [
				{
					"internalType": "string",
					"name": "NFTName_",
					"type": "string"
				},
				{
					"internalType": "uint256",
					"name": "salePrice_",
					"type": "uint256"
				}
			],
			"name": "setNFTSalePrice",
			"outputs": [],
			"stateMutability": "nonpayable",
			"type": "function"
		},
		{
			"inputs": [
				{
					"internalType": "string",
					"name": "NFTName_",
					"type": "string"
				},
				{
					"internalType": "string",
					"name": "tokenURI",
					"type": "string"
				}
			],
			"name": "setNFTURI",
			"outputs": [],
			"stateMutability": "nonpayable",
			"type": "function"
		},
		{
			"inputs": [
				{
					"internalType": "contract IERC20",
					"name": "token_",
					"type": "address"
				}
			],
			"name": "setTokenForPayment",
			"outputs": [],
			"stateMutability": "nonpayable",
			"type": "function"
		},
		{
			"inputs": [
				{
					"internalType": "bytes4",
					"name": "interfaceId",
					"type": "bytes4"
				}
			],
			"name": "supportsInterface",
			"outputs": [
				{
					"internalType": "bool",
					"name": "",
					"type": "bool"
				}
			],
			"stateMutability": "view",
			"type": "function"
		},
		{
			"inputs": [],
			"name": "symbol",
			"outputs": [
				{
					"internalType": "string",
					"name": "",
					"type": "string"
				}
			],
			"stateMutability": "view",
			"type": "function"
		},
		{
			"inputs": [
				{
					"internalType": "uint256",
					"name": "tokenId",
					"type": "uint256"
				}
			],
			"name": "tokenURI",
			"outputs": [
				{
					"internalType": "string",
					"name": "",
					"type": "string"
				}
			],
			"stateMutability": "view",
			"type": "function"
		},
		{
			"inputs": [
				{
					"internalType": "address",
					"name": "from",
					"type": "address"
				},
				{
					"internalType": "address",
					"name": "to",
					"type": "address"
				},
				{
					"internalType": "uint256",
					"name": "tokenId",
					"type": "uint256"
				}
			],
			"name": "transferFrom",
			"outputs": [],
			"stateMutability": "nonpayable",
			"type": "function"
		},
		{
			"inputs": [
				{
					"internalType": "address",
					"name": "newOwner",
					"type": "address"
				}
			],
			"name": "transferOwnership",
			"outputs": [],
			"stateMutability": "nonpayable",
			"type": "function"
		},
		{
			"inputs": [
				{
					"internalType": "uint256",
					"name": "paymentId",
					"type": "uint256"
				}
			],
			"name": "withdrawTokenForPayment",
			"outputs": [],
			"stateMutability": "nonpayable",
			"type": "function"
		}
	]
}